{
	"contracts/Link3.sol": {
		"Link3": {
			"abi": [
				{
					"inputs": [],
					"stateMutability": "nonpayable",
					"type": "constructor"
				},
				{
					"inputs": [
						{
							"internalType": "string",
							"name": "url",
							"type": "string"
						},
						{
							"internalType": "string",
							"name": "linkId",
							"type": "string"
						},
						{
							"internalType": "uint256",
							"name": "fee",
							"type": "uint256"
						}
					],
					"name": "addLink",
					"outputs": [],
					"stateMutability": "nonpayable",
					"type": "function"
				},
				{
					"inputs": [],
					"name": "admin",
					"outputs": [
						{
							"internalType": "address",
							"name": "",
							"type": "address"
						}
					],
					"stateMutability": "view",
					"type": "function"
				},
				{
					"inputs": [],
					"name": "comission",
					"outputs": [
						{
							"internalType": "uint256",
							"name": "",
							"type": "uint256"
						}
					],
					"stateMutability": "view",
					"type": "function"
				},
				{
					"inputs": [
						{
							"internalType": "string",
							"name": "linkId",
							"type": "string"
						}
					],
					"name": "getLink",
					"outputs": [
						{
							"components": [
								{
									"internalType": "string",
									"name": "url",
									"type": "string"
								},
								{
									"internalType": "address",
									"name": "owner",
									"type": "address"
								},
								{
									"internalType": "uint256",
									"name": "fee",
									"type": "uint256"
								}
							],
							"internalType": "struct Link3.Link",
							"name": "",
							"type": "tuple"
						}
					],
					"stateMutability": "view",
					"type": "function"
				},
				{
					"inputs": [
						{
							"internalType": "string",
							"name": "",
							"type": "string"
						},
						{
							"internalType": "address",
							"name": "",
							"type": "address"
						}
					],
					"name": "hasAccess",
					"outputs": [
						{
							"internalType": "bool",
							"name": "",
							"type": "bool"
						}
					],
					"stateMutability": "view",
					"type": "function"
				},
				{
					"inputs": [
						{
							"internalType": "string",
							"name": "linkId",
							"type": "string"
						}
					],
					"name": "payLink",
					"outputs": [],
					"stateMutability": "payable",
					"type": "function"
				},
				{
					"inputs": [],
					"name": "withdraw",
					"outputs": [],
					"stateMutability": "nonpayable",
					"type": "function"
				}
			],
			"devdoc": {
				"kind": "dev",
				"methods": {},
				"version": 1
			},
			"evm": {
				"assembly": "    /* \"contracts/Link3.sol\":58:2363  contract Link3 {... */\n  mstore(0x40, 0xa0)\n    /* \"contracts/Link3.sol\":469:470  1 */\n  0x01\n    /* \"contracts/Link3.sol\":442:470  uint256 public comission = 1 */\n  0x00\n  sstore\n    /* \"contracts/Link3.sol\":677:726  constructor() {... */\n  callvalue\n  dup1\n  iszero\n  tag_1\n  jumpi\n  revert(0x00, 0x00)\ntag_1:\n  pop\n    /* \"contracts/Link3.sol\":709:719  msg.sender */\n  caller\n    /* \"contracts/Link3.sol\":701:719  admin = msg.sender */\n  0xffffffffffffffffffffffffffffffffffffffff\n  and\n  0x80\n  dup2\n  0xffffffffffffffffffffffffffffffffffffffff\n  and\n  dup2\n  mstore\n  pop\n  pop\n    /* \"contracts/Link3.sol\":58:2363  contract Link3 {... */\n  mload(0x80)\n  codecopy(0x00, dataOffset(sub_0), dataSize(sub_0))\n  0x00\n  assignImmutable(\"0x789bcdf275fa270780a52ae3b79bb1ce0fda7e0aaad87b57b74bb99ac290714a\")\n  return(0x00, dataSize(sub_0))\nstop\n\nsub_0: assembly {\n        /* \"contracts/Link3.sol\":58:2363  contract Link3 {... */\n      mstore(0x40, 0x80)\n      jumpi(tag_1, lt(calldatasize, 0x04))\n      shr(0xe0, calldataload(0x00))\n      dup1\n      0x429cad86\n      gt\n      tag_9\n      jumpi\n      dup1\n      0x429cad86\n      eq\n      tag_5\n      jumpi\n      dup1\n      0x7476452a\n      eq\n      tag_6\n      jumpi\n      dup1\n      0xf851a440\n      eq\n      tag_7\n      jumpi\n      dup1\n      0xfc5f2b78\n      eq\n      tag_8\n      jumpi\n      jump(tag_1)\n    tag_9:\n      dup1\n      0x13bd20e2\n      eq\n      tag_2\n      jumpi\n      dup1\n      0x3a4b4532\n      eq\n      tag_3\n      jumpi\n      dup1\n      0x3ccfd60b\n      eq\n      tag_4\n      jumpi\n    tag_1:\n      revert(0x00, 0x00)\n        /* \"contracts/Link3.sol\":555:615  mapping(string => mapping(address => bool)) public hasAccess */\n    tag_2:\n      callvalue\n      dup1\n      iszero\n      tag_10\n      jumpi\n      revert(0x00, 0x00)\n    tag_10:\n      pop\n      tag_11\n      0x04\n      dup1\n      calldatasize\n      sub\n      dup2\n      add\n      swap1\n      tag_12\n      swap2\n      swap1\n      tag_13\n      jump\t// in\n    tag_12:\n      tag_14\n      jump\t// in\n    tag_11:\n      mload(0x40)\n      tag_15\n      swap2\n      swap1\n      tag_16\n      jump\t// in\n    tag_15:\n      mload(0x40)\n      dup1\n      swap2\n      sub\n      swap1\n      return\n        /* \"contracts/Link3.sol\":442:470  uint256 public comission = 1 */\n    tag_3:\n      callvalue\n      dup1\n      iszero\n      tag_17\n      jumpi\n      revert(0x00, 0x00)\n    tag_17:\n      pop\n      tag_18\n      tag_19\n      jump\t// in\n    tag_18:\n      mload(0x40)\n      tag_20\n      swap2\n      swap1\n      tag_21\n      jump\t// in\n    tag_20:\n      mload(0x40)\n      dup1\n      swap2\n      sub\n      swap1\n      return\n        /* \"contracts/Link3.sol\":2183:2361  function withdraw() public {... */\n    tag_4:\n      callvalue\n      dup1\n      iszero\n      tag_22\n      jumpi\n      revert(0x00, 0x00)\n    tag_22:\n      pop\n      tag_23\n      tag_24\n      jump\t// in\n    tag_23:\n      stop\n        /* \"contracts/Link3.sol\":1465:1920  function payLink(string calldata linkId) public payable {... */\n    tag_5:\n      tag_25\n      0x04\n      dup1\n      calldatasize\n      sub\n      dup2\n      add\n      swap1\n      tag_26\n      swap2\n      swap1\n      tag_27\n      jump\t// in\n    tag_26:\n      tag_28\n      jump\t// in\n    tag_25:\n      stop\n        /* \"contracts/Link3.sol\":1926:2178  function getLink(string calldata linkId) public view returns (Link memory) {... */\n    tag_6:\n      callvalue\n      dup1\n      iszero\n      tag_29\n      jumpi\n      revert(0x00, 0x00)\n    tag_29:\n      pop\n      tag_30\n      0x04\n      dup1\n      calldatasize\n      sub\n      dup2\n      add\n      swap1\n      tag_31\n      swap2\n      swap1\n      tag_27\n      jump\t// in\n    tag_31:\n      tag_32\n      jump\t// in\n    tag_30:\n      mload(0x40)\n      tag_33\n      swap2\n      swap1\n      tag_34\n      jump\t// in\n    tag_33:\n      mload(0x40)\n      dup1\n      swap2\n      sub\n      swap1\n      return\n        /* \"contracts/Link3.sol\":476:506  address public immutable admin */\n    tag_7:\n      callvalue\n      dup1\n      iszero\n      tag_35\n      jumpi\n      revert(0x00, 0x00)\n    tag_35:\n      pop\n      tag_36\n      tag_37\n      jump\t// in\n    tag_36:\n      mload(0x40)\n      tag_38\n      swap2\n      swap1\n      tag_39\n      jump\t// in\n    tag_38:\n      mload(0x40)\n      dup1\n      swap2\n      sub\n      swap1\n      return\n        /* \"contracts/Link3.sol\":919:1459  function addLink(... */\n    tag_8:\n      callvalue\n      dup1\n      iszero\n      tag_40\n      jumpi\n      revert(0x00, 0x00)\n    tag_40:\n      pop\n      tag_41\n      0x04\n      dup1\n      calldatasize\n      sub\n      dup2\n      add\n      swap1\n      tag_42\n      swap2\n      swap1\n      tag_43\n      jump\t// in\n    tag_42:\n      tag_44\n      jump\t// in\n    tag_41:\n      stop\n        /* \"contracts/Link3.sol\":555:615  mapping(string => mapping(address => bool)) public hasAccess */\n    tag_14:\n      0x02\n      dup3\n      dup1\n      mload\n      0x20\n      dup2\n      add\n      dup3\n      add\n      dup1\n      mload\n      dup5\n      dup3\n      mstore\n      0x20\n      dup4\n      add\n      0x20\n      dup6\n      add\n      keccak256\n      dup2\n      dup4\n      mstore\n      dup1\n      swap6\n      pop\n      pop\n      pop\n      pop\n      pop\n      pop\n      0x20\n      mstore\n      dup1\n      0x00\n      mstore\n      keccak256(0x00, 0x40)\n      0x00\n      swap2\n      pop\n      swap2\n      pop\n      swap1\n      sload\n      swap1\n      0x0100\n      exp\n      swap1\n      div\n      0xff\n      and\n      dup2\n      jump\t// out\n        /* \"contracts/Link3.sol\":442:470  uint256 public comission = 1 */\n    tag_19:\n      sload(0x00)\n      dup2\n      jump\t// out\n        /* \"contracts/Link3.sol\":2183:2361  function withdraw() public {... */\n    tag_24:\n        /* \"contracts/Link3.sol\":2242:2247  admin */\n      immutable(\"0x789bcdf275fa270780a52ae3b79bb1ce0fda7e0aaad87b57b74bb99ac290714a\")\n        /* \"contracts/Link3.sol\":2228:2247  msg.sender == admin */\n      0xffffffffffffffffffffffffffffffffffffffff\n      and\n        /* \"contracts/Link3.sol\":2228:2238  msg.sender */\n      caller\n        /* \"contracts/Link3.sol\":2228:2247  msg.sender == admin */\n      0xffffffffffffffffffffffffffffffffffffffff\n      and\n      eq\n        /* \"contracts/Link3.sol\":2220:2265  require(msg.sender == admin, \"Access denied\") */\n      tag_46\n      jumpi\n      mload(0x40)\n      0x08c379a000000000000000000000000000000000000000000000000000000000\n      dup2\n      mstore\n      0x04\n      add\n      tag_47\n      swap1\n      tag_48\n      jump\t// in\n    tag_47:\n      mload(0x40)\n      dup1\n      swap2\n      sub\n      swap1\n      revert\n    tag_46:\n        /* \"contracts/Link3.sol\":2275:2289  uint256 amount */\n      0x00\n        /* \"contracts/Link3.sol\":2292:2313  address(this).balance */\n      selfbalance\n        /* \"contracts/Link3.sol\":2275:2313  uint256 amount = address(this).balance */\n      swap1\n      pop\n        /* \"contracts/Link3.sol\":2331:2336  admin */\n      immutable(\"0x789bcdf275fa270780a52ae3b79bb1ce0fda7e0aaad87b57b74bb99ac290714a\")\n        /* \"contracts/Link3.sol\":2323:2346  payable(admin).transfer */\n      0xffffffffffffffffffffffffffffffffffffffff\n      and\n        /* \"contracts/Link3.sol\":2323:2354  payable(admin).transfer(amount) */\n      0x08fc\n        /* \"contracts/Link3.sol\":2347:2353  amount */\n      dup3\n        /* \"contracts/Link3.sol\":2323:2354  payable(admin).transfer(amount) */\n      swap1\n      dup2\n      iszero\n      mul\n      swap1\n      mload(0x40)\n      0x00\n      mload(0x40)\n      dup1\n      dup4\n      sub\n      dup2\n      dup6\n      dup9\n      dup9\n      call\n      swap4\n      pop\n      pop\n      pop\n      pop\n      iszero\n      dup1\n      iszero\n      tag_50\n      jumpi\n      returndatacopy(0x00, 0x00, returndatasize)\n      revert(0x00, returndatasize)\n    tag_50:\n      pop\n        /* \"contracts/Link3.sol\":2210:2361  {... */\n      pop\n        /* \"contracts/Link3.sol\":2183:2361  function withdraw() public {... */\n      jump\t// out\n        /* \"contracts/Link3.sol\":1465:1920  function payLink(string calldata linkId) public payable {... */\n    tag_28:\n        /* \"contracts/Link3.sol\":1531:1547  Link memory link */\n      0x00\n        /* \"contracts/Link3.sol\":1550:1555  links */\n      0x01\n        /* \"contracts/Link3.sol\":1556:1562  linkId */\n      dup4\n      dup4\n        /* \"contracts/Link3.sol\":1550:1563  links[linkId] */\n      mload(0x40)\n      tag_52\n      swap3\n      swap2\n      swap1\n      tag_53\n      jump\t// in\n    tag_52:\n      swap1\n      dup2\n      mstore\n      0x20\n      add\n      mload(0x40)\n      dup1\n      swap2\n      sub\n      swap1\n      keccak256\n        /* \"contracts/Link3.sol\":1531:1563  Link memory link = links[linkId] */\n      mload(0x40)\n      dup1\n      0x60\n      add\n      0x40\n      mstore\n      swap1\n      dup2\n      0x00\n      dup3\n      add\n      dup1\n      sload\n      tag_54\n      swap1\n      tag_55\n      jump\t// in\n    tag_54:\n      dup1\n      0x1f\n      add\n      0x20\n      dup1\n      swap2\n      div\n      mul\n      0x20\n      add\n      mload(0x40)\n      swap1\n      dup2\n      add\n      0x40\n      mstore\n      dup1\n      swap3\n      swap2\n      swap1\n      dup2\n      dup2\n      mstore\n      0x20\n      add\n      dup3\n      dup1\n      sload\n      tag_56\n      swap1\n      tag_55\n      jump\t// in\n    tag_56:\n      dup1\n      iszero\n      tag_57\n      jumpi\n      dup1\n      0x1f\n      lt\n      tag_58\n      jumpi\n      0x0100\n      dup1\n      dup4\n      sload\n      div\n      mul\n      dup4\n      mstore\n      swap2\n      0x20\n      add\n      swap2\n      jump(tag_57)\n    tag_58:\n      dup3\n      add\n      swap2\n      swap1\n      0x00\n      mstore\n      keccak256(0x00, 0x20)\n      swap1\n    tag_59:\n      dup2\n      sload\n      dup2\n      mstore\n      swap1\n      0x01\n      add\n      swap1\n      0x20\n      add\n      dup1\n      dup4\n      gt\n      tag_59\n      jumpi\n      dup3\n      swap1\n      sub\n      0x1f\n      and\n      dup3\n      add\n      swap2\n    tag_57:\n      pop\n      pop\n      pop\n      pop\n      pop\n      dup2\n      mstore\n      0x20\n      add\n      0x01\n      dup3\n      add\n      0x00\n      swap1\n      sload\n      swap1\n      0x0100\n      exp\n      swap1\n      div\n      0xffffffffffffffffffffffffffffffffffffffff\n      and\n      0xffffffffffffffffffffffffffffffffffffffff\n      and\n      0xffffffffffffffffffffffffffffffffffffffff\n      and\n      dup2\n      mstore\n      0x20\n      add\n      0x02\n      dup3\n      add\n      sload\n      dup2\n      mstore\n      pop\n      pop\n      swap1\n      pop\n        /* \"contracts/Link3.sol\":1603:1604  0 */\n      0x00\n        /* \"contracts/Link3.sol\":1581:1605  link.owner != address(0) */\n      0xffffffffffffffffffffffffffffffffffffffff\n      and\n        /* \"contracts/Link3.sol\":1581:1585  link */\n      dup2\n        /* \"contracts/Link3.sol\":1581:1591  link.owner */\n      0x20\n      add\n      mload\n        /* \"contracts/Link3.sol\":1581:1605  link.owner != address(0) */\n      0xffffffffffffffffffffffffffffffffffffffff\n      and\n      sub\n        /* \"contracts/Link3.sol\":1573:1624  require(link.owner != address(0), \"Link not found\") */\n      tag_60\n      jumpi\n      mload(0x40)\n      0x08c379a000000000000000000000000000000000000000000000000000000000\n      dup2\n      mstore\n      0x04\n      add\n      tag_61\n      swap1\n      tag_62\n      jump\t// in\n    tag_61:\n      mload(0x40)\n      dup1\n      swap2\n      sub\n      swap1\n      revert\n    tag_60:\n        /* \"contracts/Link3.sol\":1688:1693  false */\n      0x00\n        /* \"contracts/Link3.sol\":1655:1693  hasAccess[linkId][msg.sender] == false */\n      iszero\n      iszero\n        /* \"contracts/Link3.sol\":1655:1664  hasAccess */\n      0x02\n        /* \"contracts/Link3.sol\":1665:1671  linkId */\n      dup5\n      dup5\n        /* \"contracts/Link3.sol\":1655:1672  hasAccess[linkId] */\n      mload(0x40)\n      tag_63\n      swap3\n      swap2\n      swap1\n      tag_53\n      jump\t// in\n    tag_63:\n      swap1\n      dup2\n      mstore\n      0x20\n      add\n      mload(0x40)\n      dup1\n      swap2\n      sub\n      swap1\n      keccak256\n        /* \"contracts/Link3.sol\":1655:1684  hasAccess[linkId][msg.sender] */\n      0x00\n        /* \"contracts/Link3.sol\":1673:1683  msg.sender */\n      caller\n        /* \"contracts/Link3.sol\":1655:1684  hasAccess[linkId][msg.sender] */\n      0xffffffffffffffffffffffffffffffffffffffff\n      and\n      0xffffffffffffffffffffffffffffffffffffffff\n      and\n      dup2\n      mstore\n      0x20\n      add\n      swap1\n      dup2\n      mstore\n      0x20\n      add\n      0x00\n      keccak256\n      0x00\n      swap1\n      sload\n      swap1\n      0x0100\n      exp\n      swap1\n      div\n      0xff\n      and\n        /* \"contracts/Link3.sol\":1655:1693  hasAccess[linkId][msg.sender] == false */\n      iszero\n      iszero\n      eq\n        /* \"contracts/Link3.sol\":1634:1742  require(... */\n      tag_64\n      jumpi\n      mload(0x40)\n      0x08c379a000000000000000000000000000000000000000000000000000000000\n      dup2\n      mstore\n      0x04\n      add\n      tag_65\n      swap1\n      tag_66\n      jump\t// in\n    tag_65:\n      mload(0x40)\n      dup1\n      swap2\n      sub\n      swap1\n      revert\n    tag_64:\n        /* \"contracts/Link3.sol\":1773:1777  link */\n      dup1\n        /* \"contracts/Link3.sol\":1773:1781  link.fee */\n      0x40\n      add\n      mload\n        /* \"contracts/Link3.sol\":1760:1769  msg.value */\n      callvalue\n        /* \"contracts/Link3.sol\":1760:1781  msg.value >= link.fee */\n      lt\n      iszero\n        /* \"contracts/Link3.sol\":1752:1806  require(msg.value >= link.fee, \"Insufficient payment\") */\n      tag_67\n      jumpi\n      mload(0x40)\n      0x08c379a000000000000000000000000000000000000000000000000000000000\n      dup2\n      mstore\n      0x04\n      add\n      tag_68\n      swap1\n      tag_69\n      jump\t// in\n    tag_68:\n      mload(0x40)\n      dup1\n      swap2\n      sub\n      swap1\n      revert\n    tag_67:\n        /* \"contracts/Link3.sol\":1848:1852  true */\n      0x01\n        /* \"contracts/Link3.sol\":1816:1825  hasAccess */\n      0x02\n        /* \"contracts/Link3.sol\":1826:1832  linkId */\n      dup5\n      dup5\n        /* \"contracts/Link3.sol\":1816:1833  hasAccess[linkId] */\n      mload(0x40)\n      tag_70\n      swap3\n      swap2\n      swap1\n      tag_53\n      jump\t// in\n    tag_70:\n      swap1\n      dup2\n      mstore\n      0x20\n      add\n      mload(0x40)\n      dup1\n      swap2\n      sub\n      swap1\n      keccak256\n        /* \"contracts/Link3.sol\":1816:1845  hasAccess[linkId][msg.sender] */\n      0x00\n        /* \"contracts/Link3.sol\":1834:1844  msg.sender */\n      caller\n        /* \"contracts/Link3.sol\":1816:1845  hasAccess[linkId][msg.sender] */\n      0xffffffffffffffffffffffffffffffffffffffff\n      and\n      0xffffffffffffffffffffffffffffffffffffffff\n      and\n      dup2\n      mstore\n      0x20\n      add\n      swap1\n      dup2\n      mstore\n      0x20\n      add\n      0x00\n      keccak256\n      0x00\n        /* \"contracts/Link3.sol\":1816:1852  hasAccess[linkId][msg.sender] = true */\n      0x0100\n      exp\n      dup2\n      sload\n      dup2\n      0xff\n      mul\n      not\n      and\n      swap1\n      dup4\n      iszero\n      iszero\n      mul\n      or\n      swap1\n      sstore\n      pop\n        /* \"contracts/Link3.sol\":1870:1874  link */\n      dup1\n        /* \"contracts/Link3.sol\":1870:1880  link.owner */\n      0x20\n      add\n      mload\n        /* \"contracts/Link3.sol\":1862:1890  payable(link.owner).transfer */\n      0xffffffffffffffffffffffffffffffffffffffff\n      and\n        /* \"contracts/Link3.sol\":1862:1913  payable(link.owner).transfer(msg.value - comission) */\n      0x08fc\n        /* \"contracts/Link3.sol\":1903:1912  comission */\n      sload(0x00)\n        /* \"contracts/Link3.sol\":1891:1900  msg.value */\n      callvalue\n        /* \"contracts/Link3.sol\":1891:1912  msg.value - comission */\n      tag_71\n      swap2\n      swap1\n      tag_72\n      jump\t// in\n    tag_71:\n        /* \"contracts/Link3.sol\":1862:1913  payable(link.owner).transfer(msg.value - comission) */\n      swap1\n      dup2\n      iszero\n      mul\n      swap1\n      mload(0x40)\n      0x00\n      mload(0x40)\n      dup1\n      dup4\n      sub\n      dup2\n      dup6\n      dup9\n      dup9\n      call\n      swap4\n      pop\n      pop\n      pop\n      pop\n      iszero\n      dup1\n      iszero\n      tag_74\n      jumpi\n      returndatacopy(0x00, 0x00, returndatasize)\n      revert(0x00, returndatasize)\n    tag_74:\n      pop\n        /* \"contracts/Link3.sol\":1521:1920  {... */\n      pop\n        /* \"contracts/Link3.sol\":1465:1920  function payLink(string calldata linkId) public payable {... */\n      pop\n      pop\n      jump\t// out\n        /* \"contracts/Link3.sol\":1926:2178  function getLink(string calldata linkId) public view returns (Link memory) {... */\n    tag_32:\n        /* \"contracts/Link3.sol\":1988:1999  Link memory */\n      tag_75\n      tag_76\n      jump\t// in\n    tag_75:\n        /* \"contracts/Link3.sol\":2011:2027  Link memory link */\n      0x00\n        /* \"contracts/Link3.sol\":2030:2035  links */\n      0x01\n        /* \"contracts/Link3.sol\":2036:2042  linkId */\n      dup5\n      dup5\n        /* \"contracts/Link3.sol\":2030:2043  links[linkId] */\n      mload(0x40)\n      tag_78\n      swap3\n      swap2\n      swap1\n      tag_53\n      jump\t// in\n    tag_78:\n      swap1\n      dup2\n      mstore\n      0x20\n      add\n      mload(0x40)\n      dup1\n      swap2\n      sub\n      swap1\n      keccak256\n        /* \"contracts/Link3.sol\":2011:2043  Link memory link = links[linkId] */\n      mload(0x40)\n      dup1\n      0x60\n      add\n      0x40\n      mstore\n      swap1\n      dup2\n      0x00\n      dup3\n      add\n      dup1\n      sload\n      tag_79\n      swap1\n      tag_55\n      jump\t// in\n    tag_79:\n      dup1\n      0x1f\n      add\n      0x20\n      dup1\n      swap2\n      div\n      mul\n      0x20\n      add\n      mload(0x40)\n      swap1\n      dup2\n      add\n      0x40\n      mstore\n      dup1\n      swap3\n      swap2\n      swap1\n      dup2\n      dup2\n      mstore\n      0x20\n      add\n      dup3\n      dup1\n      sload\n      tag_80\n      swap1\n      tag_55\n      jump\t// in\n    tag_80:\n      dup1\n      iszero\n      tag_81\n      jumpi\n      dup1\n      0x1f\n      lt\n      tag_82\n      jumpi\n      0x0100\n      dup1\n      dup4\n      sload\n      div\n      mul\n      dup4\n      mstore\n      swap2\n      0x20\n      add\n      swap2\n      jump(tag_81)\n    tag_82:\n      dup3\n      add\n      swap2\n      swap1\n      0x00\n      mstore\n      keccak256(0x00, 0x20)\n      swap1\n    tag_83:\n      dup2\n      sload\n      dup2\n      mstore\n      swap1\n      0x01\n      add\n      swap1\n      0x20\n      add\n      dup1\n      dup4\n      gt\n      tag_83\n      jumpi\n      dup3\n      swap1\n      sub\n      0x1f\n      and\n      dup3\n      add\n      swap2\n    tag_81:\n      pop\n      pop\n      pop\n      pop\n      pop\n      dup2\n      mstore\n      0x20\n      add\n      0x01\n      dup3\n      add\n      0x00\n      swap1\n      sload\n      swap1\n      0x0100\n      exp\n      swap1\n      div\n      0xffffffffffffffffffffffffffffffffffffffff\n      and\n      0xffffffffffffffffffffffffffffffffffffffff\n      and\n      0xffffffffffffffffffffffffffffffffffffffff\n      and\n      dup2\n      mstore\n      0x20\n      add\n      0x02\n      dup3\n      add\n      sload\n      dup2\n      mstore\n      pop\n      pop\n      swap1\n      pop\n        /* \"contracts/Link3.sol\":2069:2070  0 */\n      0x00\n        /* \"contracts/Link3.sol\":2057:2061  link */\n      dup2\n        /* \"contracts/Link3.sol\":2057:2065  link.fee */\n      0x40\n      add\n      mload\n        /* \"contracts/Link3.sol\":2057:2070  link.fee == 0 */\n      sub\n        /* \"contracts/Link3.sol\":2053:2083  if (link.fee == 0) return link */\n      tag_84\n      jumpi\n        /* \"contracts/Link3.sol\":2079:2083  link */\n      dup1\n        /* \"contracts/Link3.sol\":2072:2083  return link */\n      swap2\n      pop\n      pop\n      jump(tag_77)\n        /* \"contracts/Link3.sol\":2053:2083  if (link.fee == 0) return link */\n    tag_84:\n        /* \"contracts/Link3.sol\":2130:2135  false */\n      0x00\n        /* \"contracts/Link3.sol\":2097:2135  hasAccess[linkId][msg.sender] == false */\n      iszero\n      iszero\n        /* \"contracts/Link3.sol\":2097:2106  hasAccess */\n      0x02\n        /* \"contracts/Link3.sol\":2107:2113  linkId */\n      dup6\n      dup6\n        /* \"contracts/Link3.sol\":2097:2114  hasAccess[linkId] */\n      mload(0x40)\n      tag_85\n      swap3\n      swap2\n      swap1\n      tag_53\n      jump\t// in\n    tag_85:\n      swap1\n      dup2\n      mstore\n      0x20\n      add\n      mload(0x40)\n      dup1\n      swap2\n      sub\n      swap1\n      keccak256\n        /* \"contracts/Link3.sol\":2097:2126  hasAccess[linkId][msg.sender] */\n      0x00\n        /* \"contracts/Link3.sol\":2115:2125  msg.sender */\n      caller\n        /* \"contracts/Link3.sol\":2097:2126  hasAccess[linkId][msg.sender] */\n      0xffffffffffffffffffffffffffffffffffffffff\n      and\n      0xffffffffffffffffffffffffffffffffffffffff\n      and\n      dup2\n      mstore\n      0x20\n      add\n      swap1\n      dup2\n      mstore\n      0x20\n      add\n      0x00\n      keccak256\n      0x00\n      swap1\n      sload\n      swap1\n      0x0100\n      exp\n      swap1\n      div\n      0xff\n      and\n        /* \"contracts/Link3.sol\":2097:2135  hasAccess[linkId][msg.sender] == false */\n      iszero\n      iszero\n      sub\n        /* \"contracts/Link3.sol\":2093:2150  if (hasAccess[linkId][msg.sender] == false) link.url = \"\" */\n      tag_86\n      jumpi\n        /* \"contracts/Link3.sol\":2137:2150  link.url = \"\" */\n      mload(0x40)\n      dup1\n      0x20\n      add\n      0x40\n      mstore\n      dup1\n      0x00\n      dup2\n      mstore\n      pop\n        /* \"contracts/Link3.sol\":2137:2141  link */\n      dup2\n        /* \"contracts/Link3.sol\":2137:2145  link.url */\n      0x00\n      add\n        /* \"contracts/Link3.sol\":2137:2150  link.url = \"\" */\n      dup2\n      swap1\n      mstore\n      pop\n        /* \"contracts/Link3.sol\":2093:2150  if (hasAccess[linkId][msg.sender] == false) link.url = \"\" */\n    tag_86:\n        /* \"contracts/Link3.sol\":2167:2171  link */\n      dup1\n        /* \"contracts/Link3.sol\":2160:2171  return link */\n      swap2\n      pop\n      pop\n        /* \"contracts/Link3.sol\":1926:2178  function getLink(string calldata linkId) public view returns (Link memory) {... */\n    tag_77:\n      swap3\n      swap2\n      pop\n      pop\n      jump\t// out\n        /* \"contracts/Link3.sol\":476:506  address public immutable admin */\n    tag_37:\n      immutable(\"0x789bcdf275fa270780a52ae3b79bb1ce0fda7e0aaad87b57b74bb99ac290714a\")\n      dup2\n      jump\t// out\n        /* \"contracts/Link3.sol\":919:1459  function addLink(... */\n    tag_44:\n        /* \"contracts/Link3.sol\":1041:1057  Link memory link */\n      0x00\n        /* \"contracts/Link3.sol\":1060:1065  links */\n      0x01\n        /* \"contracts/Link3.sol\":1066:1072  linkId */\n      dup5\n      dup5\n        /* \"contracts/Link3.sol\":1060:1073  links[linkId] */\n      mload(0x40)\n      tag_88\n      swap3\n      swap2\n      swap1\n      tag_53\n      jump\t// in\n    tag_88:\n      swap1\n      dup2\n      mstore\n      0x20\n      add\n      mload(0x40)\n      dup1\n      swap2\n      sub\n      swap1\n      keccak256\n        /* \"contracts/Link3.sol\":1041:1073  Link memory link = links[linkId] */\n      mload(0x40)\n      dup1\n      0x60\n      add\n      0x40\n      mstore\n      swap1\n      dup2\n      0x00\n      dup3\n      add\n      dup1\n      sload\n      tag_89\n      swap1\n      tag_55\n      jump\t// in\n    tag_89:\n      dup1\n      0x1f\n      add\n      0x20\n      dup1\n      swap2\n      div\n      mul\n      0x20\n      add\n      mload(0x40)\n      swap1\n      dup2\n      add\n      0x40\n      mstore\n      dup1\n      swap3\n      swap2\n      swap1\n      dup2\n      dup2\n      mstore\n      0x20\n      add\n      dup3\n      dup1\n      sload\n      tag_90\n      swap1\n      tag_55\n      jump\t// in\n    tag_90:\n      dup1\n      iszero\n      tag_91\n      jumpi\n      dup1\n      0x1f\n      lt\n      tag_92\n      jumpi\n      0x0100\n      dup1\n      dup4\n      sload\n      div\n      mul\n      dup4\n      mstore\n      swap2\n      0x20\n      add\n      swap2\n      jump(tag_91)\n    tag_92:\n      dup3\n      add\n      swap2\n      swap1\n      0x00\n      mstore\n      keccak256(0x00, 0x20)\n      swap1\n    tag_93:\n      dup2\n      sload\n      dup2\n      mstore\n      swap1\n      0x01\n      add\n      swap1\n      0x20\n      add\n      dup1\n      dup4\n      gt\n      tag_93\n      jumpi\n      dup3\n      swap1\n      sub\n      0x1f\n      and\n      dup3\n      add\n      swap2\n    tag_91:\n      pop\n      pop\n      pop\n      pop\n      pop\n      dup2\n      mstore\n      0x20\n      add\n      0x01\n      dup3\n      add\n      0x00\n      swap1\n      sload\n      swap1\n      0x0100\n      exp\n      swap1\n      div\n      0xffffffffffffffffffffffffffffffffffffffff\n      and\n      0xffffffffffffffffffffffffffffffffffffffff\n      and\n      0xffffffffffffffffffffffffffffffffffffffff\n      and\n      dup2\n      mstore\n      0x20\n      add\n      0x02\n      dup3\n      add\n      sload\n      dup2\n      mstore\n      pop\n      pop\n      swap1\n      pop\n        /* \"contracts/Link3.sol\":1126:1127  0 */\n      0x00\n        /* \"contracts/Link3.sol\":1104:1128  link.owner == address(0) */\n      0xffffffffffffffffffffffffffffffffffffffff\n      and\n        /* \"contracts/Link3.sol\":1104:1108  link */\n      dup2\n        /* \"contracts/Link3.sol\":1104:1114  link.owner */\n      0x20\n      add\n      mload\n        /* \"contracts/Link3.sol\":1104:1128  link.owner == address(0) */\n      0xffffffffffffffffffffffffffffffffffffffff\n      and\n      eq\n        /* \"contracts/Link3.sol\":1104:1156  link.owner == address(0) || link.owner == msg.sender */\n      dup1\n      tag_94\n      jumpi\n      pop\n        /* \"contracts/Link3.sol\":1146:1156  msg.sender */\n      caller\n        /* \"contracts/Link3.sol\":1132:1156  link.owner == msg.sender */\n      0xffffffffffffffffffffffffffffffffffffffff\n      and\n        /* \"contracts/Link3.sol\":1132:1136  link */\n      dup2\n        /* \"contracts/Link3.sol\":1132:1142  link.owner */\n      0x20\n      add\n      mload\n        /* \"contracts/Link3.sol\":1132:1156  link.owner == msg.sender */\n      0xffffffffffffffffffffffffffffffffffffffff\n      and\n      eq\n        /* \"contracts/Link3.sol\":1104:1156  link.owner == address(0) || link.owner == msg.sender */\n    tag_94:\n        /* \"contracts/Link3.sol\":1083:1214  require(... */\n      tag_95\n      jumpi\n      mload(0x40)\n      0x08c379a000000000000000000000000000000000000000000000000000000000\n      dup2\n      mstore\n      0x04\n      add\n      tag_96\n      swap1\n      tag_97\n      jump\t// in\n    tag_96:\n      mload(0x40)\n      dup1\n      swap2\n      sub\n      swap1\n      revert\n    tag_95:\n        /* \"contracts/Link3.sol\":1239:1240  0 */\n      0x00\n        /* \"contracts/Link3.sol\":1232:1235  fee */\n      dup3\n        /* \"contracts/Link3.sol\":1232:1240  fee == 0 */\n      eq\n        /* \"contracts/Link3.sol\":1232:1259  fee == 0 || fee > comission */\n      dup1\n      tag_98\n      jumpi\n      pop\n        /* \"contracts/Link3.sol\":1250:1259  comission */\n      sload(0x00)\n        /* \"contracts/Link3.sol\":1244:1247  fee */\n      dup3\n        /* \"contracts/Link3.sol\":1244:1259  fee > comission */\n      gt\n        /* \"contracts/Link3.sol\":1232:1259  fee == 0 || fee > comission */\n    tag_98:\n        /* \"contracts/Link3.sol\":1224:1295  require(fee == 0 || fee > comission, \"Fee must be more than comission\") */\n      tag_99\n      jumpi\n      mload(0x40)\n      0x08c379a000000000000000000000000000000000000000000000000000000000\n      dup2\n      mstore\n      0x04\n      add\n      tag_100\n      swap1\n      tag_101\n      jump\t// in\n    tag_100:\n      mload(0x40)\n      dup1\n      swap2\n      sub\n      swap1\n      revert\n    tag_99:\n        /* \"contracts/Link3.sol\":1316:1319  url */\n      dup6\n      dup6\n        /* \"contracts/Link3.sol\":1305:1319  link.url = url */\n      dup1\n      dup1\n      0x1f\n      add\n      0x20\n      dup1\n      swap2\n      div\n      mul\n      0x20\n      add\n      mload(0x40)\n      swap1\n      dup2\n      add\n      0x40\n      mstore\n      dup1\n      swap4\n      swap3\n      swap2\n      swap1\n      dup2\n      dup2\n      mstore\n      0x20\n      add\n      dup4\n      dup4\n      dup1\n      dup3\n      dup5\n      calldatacopy\n      0x00\n      dup2\n      dup5\n      add\n      mstore\n      not(0x1f)\n      0x1f\n      dup3\n      add\n      and\n      swap1\n      pop\n      dup1\n      dup4\n      add\n      swap3\n      pop\n      pop\n      pop\n      pop\n      pop\n      pop\n      pop\n        /* \"contracts/Link3.sol\":1305:1309  link */\n      dup2\n        /* \"contracts/Link3.sol\":1305:1313  link.url */\n      0x00\n      add\n        /* \"contracts/Link3.sol\":1305:1319  link.url = url */\n      dup2\n      swap1\n      mstore\n      pop\n        /* \"contracts/Link3.sol\":1340:1343  fee */\n      dup2\n        /* \"contracts/Link3.sol\":1329:1333  link */\n      dup2\n        /* \"contracts/Link3.sol\":1329:1337  link.fee */\n      0x40\n      add\n        /* \"contracts/Link3.sol\":1329:1343  link.fee = fee */\n      dup2\n      dup2\n      mstore\n      pop\n      pop\n        /* \"contracts/Link3.sol\":1366:1376  msg.sender */\n      caller\n        /* \"contracts/Link3.sol\":1353:1357  link */\n      dup2\n        /* \"contracts/Link3.sol\":1353:1363  link.owner */\n      0x20\n      add\n        /* \"contracts/Link3.sol\":1353:1376  link.owner = msg.sender */\n      swap1\n      0xffffffffffffffffffffffffffffffffffffffff\n      and\n      swap1\n      dup2\n      0xffffffffffffffffffffffffffffffffffffffff\n      and\n      dup2\n      mstore\n      pop\n      pop\n        /* \"contracts/Link3.sol\":1402:1406  link */\n      dup1\n        /* \"contracts/Link3.sol\":1386:1391  links */\n      0x01\n        /* \"contracts/Link3.sol\":1392:1398  linkId */\n      dup6\n      dup6\n        /* \"contracts/Link3.sol\":1386:1399  links[linkId] */\n      mload(0x40)\n      tag_102\n      swap3\n      swap2\n      swap1\n      tag_53\n      jump\t// in\n    tag_102:\n      swap1\n      dup2\n      mstore\n      0x20\n      add\n      mload(0x40)\n      dup1\n      swap2\n      sub\n      swap1\n      keccak256\n        /* \"contracts/Link3.sol\":1386:1406  links[linkId] = link */\n      0x00\n      dup3\n      add\n      mload\n      dup2\n      0x00\n      add\n      swap1\n      dup2\n      tag_103\n      swap2\n      swap1\n      tag_104\n      jump\t// in\n    tag_103:\n      pop\n      0x20\n      dup3\n      add\n      mload\n      dup2\n      0x01\n      add\n      exp(0x0100, 0x00)\n      dup2\n      sload\n      dup2\n      0xffffffffffffffffffffffffffffffffffffffff\n      mul\n      not\n      and\n      swap1\n      dup4\n      0xffffffffffffffffffffffffffffffffffffffff\n      and\n      mul\n      or\n      swap1\n      sstore\n      pop\n      0x40\n      dup3\n      add\n      mload\n      dup2\n      0x02\n      add\n      sstore\n      swap1\n      pop\n      pop\n        /* \"contracts/Link3.sol\":1448:1452  true */\n      0x01\n        /* \"contracts/Link3.sol\":1416:1425  hasAccess */\n      0x02\n        /* \"contracts/Link3.sol\":1426:1432  linkId */\n      dup6\n      dup6\n        /* \"contracts/Link3.sol\":1416:1433  hasAccess[linkId] */\n      mload(0x40)\n      tag_105\n      swap3\n      swap2\n      swap1\n      tag_53\n      jump\t// in\n    tag_105:\n      swap1\n      dup2\n      mstore\n      0x20\n      add\n      mload(0x40)\n      dup1\n      swap2\n      sub\n      swap1\n      keccak256\n        /* \"contracts/Link3.sol\":1416:1445  hasAccess[linkId][msg.sender] */\n      0x00\n        /* \"contracts/Link3.sol\":1434:1444  msg.sender */\n      caller\n        /* \"contracts/Link3.sol\":1416:1445  hasAccess[linkId][msg.sender] */\n      0xffffffffffffffffffffffffffffffffffffffff\n      and\n      0xffffffffffffffffffffffffffffffffffffffff\n      and\n      dup2\n      mstore\n      0x20\n      add\n      swap1\n      dup2\n      mstore\n      0x20\n      add\n      0x00\n      keccak256\n      0x00\n        /* \"contracts/Link3.sol\":1416:1452  hasAccess[linkId][msg.sender] = true */\n      0x0100\n      exp\n      dup2\n      sload\n      dup2\n      0xff\n      mul\n      not\n      and\n      swap1\n      dup4\n      iszero\n      iszero\n      mul\n      or\n      swap1\n      sstore\n      pop\n        /* \"contracts/Link3.sol\":1031:1459  {... */\n      pop\n        /* \"contracts/Link3.sol\":919:1459  function addLink(... */\n      pop\n      pop\n      pop\n      pop\n      pop\n      jump\t// out\n    tag_76:\n      mload(0x40)\n      dup1\n      0x60\n      add\n      0x40\n      mstore\n      dup1\n      0x60\n      dup2\n      mstore\n      0x20\n      add\n      and(0xffffffffffffffffffffffffffffffffffffffff, 0x00)\n      dup2\n      mstore\n      0x20\n      add\n      0x00\n      dup2\n      mstore\n      pop\n      swap1\n      jump\t// out\n        /* \"#utility.yul\":7:82   */\n    tag_106:\n        /* \"#utility.yul\":40:46   */\n      0x00\n        /* \"#utility.yul\":73:75   */\n      0x40\n        /* \"#utility.yul\":67:76   */\n      mload\n        /* \"#utility.yul\":57:76   */\n      swap1\n      pop\n        /* \"#utility.yul\":7:82   */\n      swap1\n      jump\t// out\n        /* \"#utility.yul\":88:205   */\n    tag_107:\n        /* \"#utility.yul\":197:198   */\n      0x00\n        /* \"#utility.yul\":194:195   */\n      0x00\n        /* \"#utility.yul\":187:199   */\n      revert\n        /* \"#utility.yul\":211:328   */\n    tag_108:\n        /* \"#utility.yul\":320:321   */\n      0x00\n        /* \"#utility.yul\":317:318   */\n      0x00\n        /* \"#utility.yul\":310:322   */\n      revert\n        /* \"#utility.yul\":334:451   */\n    tag_109:\n        /* \"#utility.yul\":443:444   */\n      0x00\n        /* \"#utility.yul\":440:441   */\n      0x00\n        /* \"#utility.yul\":433:445   */\n      revert\n        /* \"#utility.yul\":457:574   */\n    tag_110:\n        /* \"#utility.yul\":566:567   */\n      0x00\n        /* \"#utility.yul\":563:564   */\n      0x00\n        /* \"#utility.yul\":556:568   */\n      revert\n        /* \"#utility.yul\":580:682   */\n    tag_111:\n        /* \"#utility.yul\":621:627   */\n      0x00\n        /* \"#utility.yul\":672:674   */\n      0x1f\n        /* \"#utility.yul\":668:675   */\n      not\n        /* \"#utility.yul\":663:665   */\n      0x1f\n        /* \"#utility.yul\":656:661   */\n      dup4\n        /* \"#utility.yul\":652:666   */\n      add\n        /* \"#utility.yul\":648:676   */\n      and\n        /* \"#utility.yul\":638:676   */\n      swap1\n      pop\n        /* \"#utility.yul\":580:682   */\n      swap2\n      swap1\n      pop\n      jump\t// out\n        /* \"#utility.yul\":688:868   */\n    tag_112:\n        /* \"#utility.yul\":736:813   */\n      0x4e487b7100000000000000000000000000000000000000000000000000000000\n        /* \"#utility.yul\":733:734   */\n      0x00\n        /* \"#utility.yul\":726:814   */\n      mstore\n        /* \"#utility.yul\":833:837   */\n      0x41\n        /* \"#utility.yul\":830:831   */\n      0x04\n        /* \"#utility.yul\":823:838   */\n      mstore\n        /* \"#utility.yul\":857:861   */\n      0x24\n        /* \"#utility.yul\":854:855   */\n      0x00\n        /* \"#utility.yul\":847:862   */\n      revert\n        /* \"#utility.yul\":874:1155   */\n    tag_113:\n        /* \"#utility.yul\":957:984   */\n      tag_181\n        /* \"#utility.yul\":979:983   */\n      dup3\n        /* \"#utility.yul\":957:984   */\n      tag_111\n      jump\t// in\n    tag_181:\n        /* \"#utility.yul\":949:955   */\n      dup2\n        /* \"#utility.yul\":945:985   */\n      add\n        /* \"#utility.yul\":1087:1093   */\n      dup2\n        /* \"#utility.yul\":1075:1085   */\n      dup2\n        /* \"#utility.yul\":1072:1094   */\n      lt\n        /* \"#utility.yul\":1051:1069   */\n      0xffffffffffffffff\n        /* \"#utility.yul\":1039:1049   */\n      dup3\n        /* \"#utility.yul\":1036:1070   */\n      gt\n        /* \"#utility.yul\":1033:1095   */\n      or\n        /* \"#utility.yul\":1030:1118   */\n      iszero\n      tag_182\n      jumpi\n        /* \"#utility.yul\":1098:1116   */\n      tag_183\n      tag_112\n      jump\t// in\n    tag_183:\n        /* \"#utility.yul\":1030:1118   */\n    tag_182:\n        /* \"#utility.yul\":1138:1148   */\n      dup1\n        /* \"#utility.yul\":1134:1136   */\n      0x40\n        /* \"#utility.yul\":1127:1149   */\n      mstore\n        /* \"#utility.yul\":917:1155   */\n      pop\n        /* \"#utility.yul\":874:1155   */\n      pop\n      pop\n      jump\t// out\n        /* \"#utility.yul\":1161:1290   */\n    tag_114:\n        /* \"#utility.yul\":1195:1201   */\n      0x00\n        /* \"#utility.yul\":1222:1242   */\n      tag_185\n      tag_106\n      jump\t// in\n    tag_185:\n        /* \"#utility.yul\":1212:1242   */\n      swap1\n      pop\n        /* \"#utility.yul\":1251:1284   */\n      tag_186\n        /* \"#utility.yul\":1279:1283   */\n      dup3\n        /* \"#utility.yul\":1271:1277   */\n      dup3\n        /* \"#utility.yul\":1251:1284   */\n      tag_113\n      jump\t// in\n    tag_186:\n        /* \"#utility.yul\":1161:1290   */\n      swap2\n      swap1\n      pop\n      jump\t// out\n        /* \"#utility.yul\":1296:1604   */\n    tag_115:\n        /* \"#utility.yul\":1358:1362   */\n      0x00\n        /* \"#utility.yul\":1448:1466   */\n      0xffffffffffffffff\n        /* \"#utility.yul\":1440:1446   */\n      dup3\n        /* \"#utility.yul\":1437:1467   */\n      gt\n        /* \"#utility.yul\":1434:1490   */\n      iszero\n      tag_188\n      jumpi\n        /* \"#utility.yul\":1470:1488   */\n      tag_189\n      tag_112\n      jump\t// in\n    tag_189:\n        /* \"#utility.yul\":1434:1490   */\n    tag_188:\n        /* \"#utility.yul\":1508:1537   */\n      tag_190\n        /* \"#utility.yul\":1530:1536   */\n      dup3\n        /* \"#utility.yul\":1508:1537   */\n      tag_111\n      jump\t// in\n    tag_190:\n        /* \"#utility.yul\":1500:1537   */\n      swap1\n      pop\n        /* \"#utility.yul\":1592:1596   */\n      0x20\n        /* \"#utility.yul\":1586:1590   */\n      dup2\n        /* \"#utility.yul\":1582:1597   */\n      add\n        /* \"#utility.yul\":1574:1597   */\n      swap1\n      pop\n        /* \"#utility.yul\":1296:1604   */\n      swap2\n      swap1\n      pop\n      jump\t// out\n        /* \"#utility.yul\":1610:1758   */\n    tag_116:\n        /* \"#utility.yul\":1708:1714   */\n      dup3\n        /* \"#utility.yul\":1703:1706   */\n      dup2\n        /* \"#utility.yul\":1698:1701   */\n      dup4\n        /* \"#utility.yul\":1685:1715   */\n      calldatacopy\n        /* \"#utility.yul\":1749:1750   */\n      0x00\n        /* \"#utility.yul\":1740:1746   */\n      dup4\n        /* \"#utility.yul\":1735:1738   */\n      dup4\n        /* \"#utility.yul\":1731:1747   */\n      add\n        /* \"#utility.yul\":1724:1751   */\n      mstore\n        /* \"#utility.yul\":1610:1758   */\n      pop\n      pop\n      pop\n      jump\t// out\n        /* \"#utility.yul\":1764:2189   */\n    tag_117:\n        /* \"#utility.yul\":1842:1847   */\n      0x00\n        /* \"#utility.yul\":1867:1933   */\n      tag_193\n        /* \"#utility.yul\":1883:1932   */\n      tag_194\n        /* \"#utility.yul\":1925:1931   */\n      dup5\n        /* \"#utility.yul\":1883:1932   */\n      tag_115\n      jump\t// in\n    tag_194:\n        /* \"#utility.yul\":1867:1933   */\n      tag_114\n      jump\t// in\n    tag_193:\n        /* \"#utility.yul\":1858:1933   */\n      swap1\n      pop\n        /* \"#utility.yul\":1956:1962   */\n      dup3\n        /* \"#utility.yul\":1949:1954   */\n      dup2\n        /* \"#utility.yul\":1942:1963   */\n      mstore\n        /* \"#utility.yul\":1994:1998   */\n      0x20\n        /* \"#utility.yul\":1987:1992   */\n      dup2\n        /* \"#utility.yul\":1983:1999   */\n      add\n        /* \"#utility.yul\":2032:2035   */\n      dup5\n        /* \"#utility.yul\":2023:2029   */\n      dup5\n        /* \"#utility.yul\":2018:2021   */\n      dup5\n        /* \"#utility.yul\":2014:2030   */\n      add\n        /* \"#utility.yul\":2011:2036   */\n      gt\n        /* \"#utility.yul\":2008:2120   */\n      iszero\n      tag_195\n      jumpi\n        /* \"#utility.yul\":2039:2118   */\n      tag_196\n      tag_110\n      jump\t// in\n    tag_196:\n        /* \"#utility.yul\":2008:2120   */\n    tag_195:\n        /* \"#utility.yul\":2129:2183   */\n      tag_197\n        /* \"#utility.yul\":2176:2182   */\n      dup5\n        /* \"#utility.yul\":2171:2174   */\n      dup3\n        /* \"#utility.yul\":2166:2169   */\n      dup6\n        /* \"#utility.yul\":2129:2183   */\n      tag_116\n      jump\t// in\n    tag_197:\n        /* \"#utility.yul\":1848:2189   */\n      pop\n        /* \"#utility.yul\":1764:2189   */\n      swap4\n      swap3\n      pop\n      pop\n      pop\n      jump\t// out\n        /* \"#utility.yul\":2209:2549   */\n    tag_118:\n        /* \"#utility.yul\":2265:2270   */\n      0x00\n        /* \"#utility.yul\":2314:2317   */\n      dup3\n        /* \"#utility.yul\":2307:2311   */\n      0x1f\n        /* \"#utility.yul\":2299:2305   */\n      dup4\n        /* \"#utility.yul\":2295:2312   */\n      add\n        /* \"#utility.yul\":2291:2318   */\n      slt\n        /* \"#utility.yul\":2281:2403   */\n      tag_199\n      jumpi\n        /* \"#utility.yul\":2322:2401   */\n      tag_200\n      tag_109\n      jump\t// in\n    tag_200:\n        /* \"#utility.yul\":2281:2403   */\n    tag_199:\n        /* \"#utility.yul\":2439:2445   */\n      dup2\n        /* \"#utility.yul\":2426:2446   */\n      calldataload\n        /* \"#utility.yul\":2464:2543   */\n      tag_201\n        /* \"#utility.yul\":2539:2542   */\n      dup5\n        /* \"#utility.yul\":2531:2537   */\n      dup3\n        /* \"#utility.yul\":2524:2528   */\n      0x20\n        /* \"#utility.yul\":2516:2522   */\n      dup7\n        /* \"#utility.yul\":2512:2529   */\n      add\n        /* \"#utility.yul\":2464:2543   */\n      tag_117\n      jump\t// in\n    tag_201:\n        /* \"#utility.yul\":2455:2543   */\n      swap2\n      pop\n        /* \"#utility.yul\":2271:2549   */\n      pop\n        /* \"#utility.yul\":2209:2549   */\n      swap3\n      swap2\n      pop\n      pop\n      jump\t// out\n        /* \"#utility.yul\":2555:2681   */\n    tag_119:\n        /* \"#utility.yul\":2592:2599   */\n      0x00\n        /* \"#utility.yul\":2632:2674   */\n      0xffffffffffffffffffffffffffffffffffffffff\n        /* \"#utility.yul\":2625:2630   */\n      dup3\n        /* \"#utility.yul\":2621:2675   */\n      and\n        /* \"#utility.yul\":2610:2675   */\n      swap1\n      pop\n        /* \"#utility.yul\":2555:2681   */\n      swap2\n      swap1\n      pop\n      jump\t// out\n        /* \"#utility.yul\":2687:2783   */\n    tag_120:\n        /* \"#utility.yul\":2724:2731   */\n      0x00\n        /* \"#utility.yul\":2753:2777   */\n      tag_204\n        /* \"#utility.yul\":2771:2776   */\n      dup3\n        /* \"#utility.yul\":2753:2777   */\n      tag_119\n      jump\t// in\n    tag_204:\n        /* \"#utility.yul\":2742:2777   */\n      swap1\n      pop\n        /* \"#utility.yul\":2687:2783   */\n      swap2\n      swap1\n      pop\n      jump\t// out\n        /* \"#utility.yul\":2789:2911   */\n    tag_121:\n        /* \"#utility.yul\":2862:2886   */\n      tag_206\n        /* \"#utility.yul\":2880:2885   */\n      dup2\n        /* \"#utility.yul\":2862:2886   */\n      tag_120\n      jump\t// in\n    tag_206:\n        /* \"#utility.yul\":2855:2860   */\n      dup2\n        /* \"#utility.yul\":2852:2887   */\n      eq\n        /* \"#utility.yul\":2842:2905   */\n      tag_207\n      jumpi\n        /* \"#utility.yul\":2901:2902   */\n      0x00\n        /* \"#utility.yul\":2898:2899   */\n      0x00\n        /* \"#utility.yul\":2891:2903   */\n      revert\n        /* \"#utility.yul\":2842:2905   */\n    tag_207:\n        /* \"#utility.yul\":2789:2911   */\n      pop\n      jump\t// out\n        /* \"#utility.yul\":2917:3056   */\n    tag_122:\n        /* \"#utility.yul\":2963:2968   */\n      0x00\n        /* \"#utility.yul\":3001:3007   */\n      dup2\n        /* \"#utility.yul\":2988:3008   */\n      calldataload\n        /* \"#utility.yul\":2979:3008   */\n      swap1\n      pop\n        /* \"#utility.yul\":3017:3050   */\n      tag_209\n        /* \"#utility.yul\":3044:3049   */\n      dup2\n        /* \"#utility.yul\":3017:3050   */\n      tag_121\n      jump\t// in\n    tag_209:\n        /* \"#utility.yul\":2917:3056   */\n      swap3\n      swap2\n      pop\n      pop\n      jump\t// out\n        /* \"#utility.yul\":3062:3716   */\n    tag_13:\n        /* \"#utility.yul\":3140:3146   */\n      0x00\n        /* \"#utility.yul\":3148:3154   */\n      0x00\n        /* \"#utility.yul\":3197:3199   */\n      0x40\n        /* \"#utility.yul\":3185:3194   */\n      dup4\n        /* \"#utility.yul\":3176:3183   */\n      dup6\n        /* \"#utility.yul\":3172:3195   */\n      sub\n        /* \"#utility.yul\":3168:3200   */\n      slt\n        /* \"#utility.yul\":3165:3284   */\n      iszero\n      tag_211\n      jumpi\n        /* \"#utility.yul\":3203:3282   */\n      tag_212\n      tag_107\n      jump\t// in\n    tag_212:\n        /* \"#utility.yul\":3165:3284   */\n    tag_211:\n        /* \"#utility.yul\":3351:3352   */\n      0x00\n        /* \"#utility.yul\":3340:3349   */\n      dup4\n        /* \"#utility.yul\":3336:3353   */\n      add\n        /* \"#utility.yul\":3323:3354   */\n      calldataload\n        /* \"#utility.yul\":3381:3399   */\n      0xffffffffffffffff\n        /* \"#utility.yul\":3373:3379   */\n      dup2\n        /* \"#utility.yul\":3370:3400   */\n      gt\n        /* \"#utility.yul\":3367:3484   */\n      iszero\n      tag_213\n      jumpi\n        /* \"#utility.yul\":3403:3482   */\n      tag_214\n      tag_108\n      jump\t// in\n    tag_214:\n        /* \"#utility.yul\":3367:3484   */\n    tag_213:\n        /* \"#utility.yul\":3508:3571   */\n      tag_215\n        /* \"#utility.yul\":3563:3570   */\n      dup6\n        /* \"#utility.yul\":3554:3560   */\n      dup3\n        /* \"#utility.yul\":3543:3552   */\n      dup7\n        /* \"#utility.yul\":3539:3561   */\n      add\n        /* \"#utility.yul\":3508:3571   */\n      tag_118\n      jump\t// in\n    tag_215:\n        /* \"#utility.yul\":3498:3571   */\n      swap3\n      pop\n        /* \"#utility.yul\":3294:3581   */\n      pop\n        /* \"#utility.yul\":3620:3622   */\n      0x20\n        /* \"#utility.yul\":3646:3699   */\n      tag_216\n        /* \"#utility.yul\":3691:3698   */\n      dup6\n        /* \"#utility.yul\":3682:3688   */\n      dup3\n        /* \"#utility.yul\":3671:3680   */\n      dup7\n        /* \"#utility.yul\":3667:3689   */\n      add\n        /* \"#utility.yul\":3646:3699   */\n      tag_122\n      jump\t// in\n    tag_216:\n        /* \"#utility.yul\":3636:3699   */\n      swap2\n      pop\n        /* \"#utility.yul\":3591:3709   */\n      pop\n        /* \"#utility.yul\":3062:3716   */\n      swap3\n      pop\n      swap3\n      swap1\n      pop\n      jump\t// out\n        /* \"#utility.yul\":3722:3812   */\n    tag_123:\n        /* \"#utility.yul\":3756:3763   */\n      0x00\n        /* \"#utility.yul\":3799:3804   */\n      dup2\n        /* \"#utility.yul\":3792:3805   */\n      iszero\n        /* \"#utility.yul\":3785:3806   */\n      iszero\n        /* \"#utility.yul\":3774:3806   */\n      swap1\n      pop\n        /* \"#utility.yul\":3722:3812   */\n      swap2\n      swap1\n      pop\n      jump\t// out\n        /* \"#utility.yul\":3818:3927   */\n    tag_124:\n        /* \"#utility.yul\":3899:3920   */\n      tag_219\n        /* \"#utility.yul\":3914:3919   */\n      dup2\n        /* \"#utility.yul\":3899:3920   */\n      tag_123\n      jump\t// in\n    tag_219:\n        /* \"#utility.yul\":3894:3897   */\n      dup3\n        /* \"#utility.yul\":3887:3921   */\n      mstore\n        /* \"#utility.yul\":3818:3927   */\n      pop\n      pop\n      jump\t// out\n        /* \"#utility.yul\":3933:4143   */\n    tag_16:\n        /* \"#utility.yul\":4020:4024   */\n      0x00\n        /* \"#utility.yul\":4058:4060   */\n      0x20\n        /* \"#utility.yul\":4047:4056   */\n      dup3\n        /* \"#utility.yul\":4043:4061   */\n      add\n        /* \"#utility.yul\":4035:4061   */\n      swap1\n      pop\n        /* \"#utility.yul\":4071:4136   */\n      tag_221\n        /* \"#utility.yul\":4133:4134   */\n      0x00\n        /* \"#utility.yul\":4122:4131   */\n      dup4\n        /* \"#utility.yul\":4118:4135   */\n      add\n        /* \"#utility.yul\":4109:4115   */\n      dup5\n        /* \"#utility.yul\":4071:4136   */\n      tag_124\n      jump\t// in\n    tag_221:\n        /* \"#utility.yul\":3933:4143   */\n      swap3\n      swap2\n      pop\n      pop\n      jump\t// out\n        /* \"#utility.yul\":4149:4226   */\n    tag_125:\n        /* \"#utility.yul\":4186:4193   */\n      0x00\n        /* \"#utility.yul\":4215:4220   */\n      dup2\n        /* \"#utility.yul\":4204:4220   */\n      swap1\n      pop\n        /* \"#utility.yul\":4149:4226   */\n      swap2\n      swap1\n      pop\n      jump\t// out\n        /* \"#utility.yul\":4232:4350   */\n    tag_126:\n        /* \"#utility.yul\":4319:4343   */\n      tag_224\n        /* \"#utility.yul\":4337:4342   */\n      dup2\n        /* \"#utility.yul\":4319:4343   */\n      tag_125\n      jump\t// in\n    tag_224:\n        /* \"#utility.yul\":4314:4317   */\n      dup3\n        /* \"#utility.yul\":4307:4344   */\n      mstore\n        /* \"#utility.yul\":4232:4350   */\n      pop\n      pop\n      jump\t// out\n        /* \"#utility.yul\":4356:4578   */\n    tag_21:\n        /* \"#utility.yul\":4449:4453   */\n      0x00\n        /* \"#utility.yul\":4487:4489   */\n      0x20\n        /* \"#utility.yul\":4476:4485   */\n      dup3\n        /* \"#utility.yul\":4472:4490   */\n      add\n        /* \"#utility.yul\":4464:4490   */\n      swap1\n      pop\n        /* \"#utility.yul\":4500:4571   */\n      tag_226\n        /* \"#utility.yul\":4568:4569   */\n      0x00\n        /* \"#utility.yul\":4557:4566   */\n      dup4\n        /* \"#utility.yul\":4553:4570   */\n      add\n        /* \"#utility.yul\":4544:4550   */\n      dup5\n        /* \"#utility.yul\":4500:4571   */\n      tag_126\n      jump\t// in\n    tag_226:\n        /* \"#utility.yul\":4356:4578   */\n      swap3\n      swap2\n      pop\n      pop\n      jump\t// out\n        /* \"#utility.yul\":4584:4701   */\n    tag_127:\n        /* \"#utility.yul\":4693:4694   */\n      0x00\n        /* \"#utility.yul\":4690:4691   */\n      0x00\n        /* \"#utility.yul\":4683:4695   */\n      revert\n        /* \"#utility.yul\":4707:4824   */\n    tag_128:\n        /* \"#utility.yul\":4816:4817   */\n      0x00\n        /* \"#utility.yul\":4813:4814   */\n      0x00\n        /* \"#utility.yul\":4806:4818   */\n      revert\n        /* \"#utility.yul\":4844:5397   */\n    tag_129:\n        /* \"#utility.yul\":4902:4910   */\n      0x00\n        /* \"#utility.yul\":4912:4918   */\n      0x00\n        /* \"#utility.yul\":4962:4965   */\n      dup4\n        /* \"#utility.yul\":4955:4959   */\n      0x1f\n        /* \"#utility.yul\":4947:4953   */\n      dup5\n        /* \"#utility.yul\":4943:4960   */\n      add\n        /* \"#utility.yul\":4939:4966   */\n      slt\n        /* \"#utility.yul\":4929:5051   */\n      tag_230\n      jumpi\n        /* \"#utility.yul\":4970:5049   */\n      tag_231\n      tag_109\n      jump\t// in\n    tag_231:\n        /* \"#utility.yul\":4929:5051   */\n    tag_230:\n        /* \"#utility.yul\":5083:5089   */\n      dup3\n        /* \"#utility.yul\":5070:5090   */\n      calldataload\n        /* \"#utility.yul\":5060:5090   */\n      swap1\n      pop\n        /* \"#utility.yul\":5113:5131   */\n      0xffffffffffffffff\n        /* \"#utility.yul\":5105:5111   */\n      dup2\n        /* \"#utility.yul\":5102:5132   */\n      gt\n        /* \"#utility.yul\":5099:5216   */\n      iszero\n      tag_232\n      jumpi\n        /* \"#utility.yul\":5135:5214   */\n      tag_233\n      tag_127\n      jump\t// in\n    tag_233:\n        /* \"#utility.yul\":5099:5216   */\n    tag_232:\n        /* \"#utility.yul\":5249:5253   */\n      0x20\n        /* \"#utility.yul\":5241:5247   */\n      dup4\n        /* \"#utility.yul\":5237:5254   */\n      add\n        /* \"#utility.yul\":5225:5254   */\n      swap2\n      pop\n        /* \"#utility.yul\":5303:5306   */\n      dup4\n        /* \"#utility.yul\":5295:5299   */\n      0x01\n        /* \"#utility.yul\":5287:5293   */\n      dup3\n        /* \"#utility.yul\":5283:5300   */\n      mul\n        /* \"#utility.yul\":5273:5281   */\n      dup4\n        /* \"#utility.yul\":5269:5301   */\n      add\n        /* \"#utility.yul\":5266:5307   */\n      gt\n        /* \"#utility.yul\":5263:5391   */\n      iszero\n      tag_234\n      jumpi\n        /* \"#utility.yul\":5310:5389   */\n      tag_235\n      tag_128\n      jump\t// in\n    tag_235:\n        /* \"#utility.yul\":5263:5391   */\n    tag_234:\n        /* \"#utility.yul\":4844:5397   */\n      swap3\n      pop\n      swap3\n      swap1\n      pop\n      jump\t// out\n        /* \"#utility.yul\":5403:5932   */\n    tag_27:\n        /* \"#utility.yul\":5474:5480   */\n      0x00\n        /* \"#utility.yul\":5482:5488   */\n      0x00\n        /* \"#utility.yul\":5531:5533   */\n      0x20\n        /* \"#utility.yul\":5519:5528   */\n      dup4\n        /* \"#utility.yul\":5510:5517   */\n      dup6\n        /* \"#utility.yul\":5506:5529   */\n      sub\n        /* \"#utility.yul\":5502:5534   */\n      slt\n        /* \"#utility.yul\":5499:5618   */\n      iszero\n      tag_237\n      jumpi\n        /* \"#utility.yul\":5537:5616   */\n      tag_238\n      tag_107\n      jump\t// in\n    tag_238:\n        /* \"#utility.yul\":5499:5618   */\n    tag_237:\n        /* \"#utility.yul\":5685:5686   */\n      0x00\n        /* \"#utility.yul\":5674:5683   */\n      dup4\n        /* \"#utility.yul\":5670:5687   */\n      add\n        /* \"#utility.yul\":5657:5688   */\n      calldataload\n        /* \"#utility.yul\":5715:5733   */\n      0xffffffffffffffff\n        /* \"#utility.yul\":5707:5713   */\n      dup2\n        /* \"#utility.yul\":5704:5734   */\n      gt\n        /* \"#utility.yul\":5701:5818   */\n      iszero\n      tag_239\n      jumpi\n        /* \"#utility.yul\":5737:5816   */\n      tag_240\n      tag_108\n      jump\t// in\n    tag_240:\n        /* \"#utility.yul\":5701:5818   */\n    tag_239:\n        /* \"#utility.yul\":5850:5915   */\n      tag_241\n        /* \"#utility.yul\":5907:5914   */\n      dup6\n        /* \"#utility.yul\":5898:5904   */\n      dup3\n        /* \"#utility.yul\":5887:5896   */\n      dup7\n        /* \"#utility.yul\":5883:5905   */\n      add\n        /* \"#utility.yul\":5850:5915   */\n      tag_129\n      jump\t// in\n    tag_241:\n        /* \"#utility.yul\":5832:5915   */\n      swap3\n      pop\n      swap3\n      pop\n        /* \"#utility.yul\":5628:5925   */\n      pop\n        /* \"#utility.yul\":5403:5932   */\n      swap3\n      pop\n      swap3\n      swap1\n      pop\n      jump\t// out\n        /* \"#utility.yul\":5938:6037   */\n    tag_130:\n        /* \"#utility.yul\":5990:5996   */\n      0x00\n        /* \"#utility.yul\":6024:6029   */\n      dup2\n        /* \"#utility.yul\":6018:6030   */\n      mload\n        /* \"#utility.yul\":6008:6030   */\n      swap1\n      pop\n        /* \"#utility.yul\":5938:6037   */\n      swap2\n      swap1\n      pop\n      jump\t// out\n        /* \"#utility.yul\":6043:6202   */\n    tag_131:\n        /* \"#utility.yul\":6117:6128   */\n      0x00\n        /* \"#utility.yul\":6151:6157   */\n      dup3\n        /* \"#utility.yul\":6146:6149   */\n      dup3\n        /* \"#utility.yul\":6139:6158   */\n      mstore\n        /* \"#utility.yul\":6191:6195   */\n      0x20\n        /* \"#utility.yul\":6186:6189   */\n      dup3\n        /* \"#utility.yul\":6182:6196   */\n      add\n        /* \"#utility.yul\":6167:6196   */\n      swap1\n      pop\n        /* \"#utility.yul\":6043:6202   */\n      swap3\n      swap2\n      pop\n      pop\n      jump\t// out\n        /* \"#utility.yul\":6208:6347   */\n    tag_132:\n        /* \"#utility.yul\":6297:6303   */\n      dup3\n        /* \"#utility.yul\":6292:6295   */\n      dup2\n        /* \"#utility.yul\":6287:6290   */\n      dup4\n        /* \"#utility.yul\":6281:6304   */\n      mcopy\n        /* \"#utility.yul\":6338:6339   */\n      0x00\n        /* \"#utility.yul\":6329:6335   */\n      dup4\n        /* \"#utility.yul\":6324:6327   */\n      dup4\n        /* \"#utility.yul\":6320:6336   */\n      add\n        /* \"#utility.yul\":6313:6340   */\n      mstore\n        /* \"#utility.yul\":6208:6347   */\n      pop\n      pop\n      pop\n      jump\t// out\n        /* \"#utility.yul\":6353:6710   */\n    tag_133:\n        /* \"#utility.yul\":6431:6434   */\n      0x00\n        /* \"#utility.yul\":6459:6498   */\n      tag_246\n        /* \"#utility.yul\":6492:6497   */\n      dup3\n        /* \"#utility.yul\":6459:6498   */\n      tag_130\n      jump\t// in\n    tag_246:\n        /* \"#utility.yul\":6514:6575   */\n      tag_247\n        /* \"#utility.yul\":6568:6574   */\n      dup2\n        /* \"#utility.yul\":6563:6566   */\n      dup6\n        /* \"#utility.yul\":6514:6575   */\n      tag_131\n      jump\t// in\n    tag_247:\n        /* \"#utility.yul\":6507:6575   */\n      swap4\n      pop\n        /* \"#utility.yul\":6584:6649   */\n      tag_248\n        /* \"#utility.yul\":6642:6648   */\n      dup2\n        /* \"#utility.yul\":6637:6640   */\n      dup6\n        /* \"#utility.yul\":6630:6634   */\n      0x20\n        /* \"#utility.yul\":6623:6628   */\n      dup7\n        /* \"#utility.yul\":6619:6635   */\n      add\n        /* \"#utility.yul\":6584:6649   */\n      tag_132\n      jump\t// in\n    tag_248:\n        /* \"#utility.yul\":6674:6703   */\n      tag_249\n        /* \"#utility.yul\":6696:6702   */\n      dup2\n        /* \"#utility.yul\":6674:6703   */\n      tag_111\n      jump\t// in\n    tag_249:\n        /* \"#utility.yul\":6669:6672   */\n      dup5\n        /* \"#utility.yul\":6665:6704   */\n      add\n        /* \"#utility.yul\":6658:6704   */\n      swap2\n      pop\n        /* \"#utility.yul\":6435:6710   */\n      pop\n        /* \"#utility.yul\":6353:6710   */\n      swap3\n      swap2\n      pop\n      pop\n      jump\t// out\n        /* \"#utility.yul\":6716:6824   */\n    tag_134:\n        /* \"#utility.yul\":6793:6817   */\n      tag_251\n        /* \"#utility.yul\":6811:6816   */\n      dup2\n        /* \"#utility.yul\":6793:6817   */\n      tag_120\n      jump\t// in\n    tag_251:\n        /* \"#utility.yul\":6788:6791   */\n      dup3\n        /* \"#utility.yul\":6781:6818   */\n      mstore\n        /* \"#utility.yul\":6716:6824   */\n      pop\n      pop\n      jump\t// out\n        /* \"#utility.yul\":6830:6938   */\n    tag_135:\n        /* \"#utility.yul\":6907:6931   */\n      tag_253\n        /* \"#utility.yul\":6925:6930   */\n      dup2\n        /* \"#utility.yul\":6907:6931   */\n      tag_125\n      jump\t// in\n    tag_253:\n        /* \"#utility.yul\":6902:6905   */\n      dup3\n        /* \"#utility.yul\":6895:6932   */\n      mstore\n        /* \"#utility.yul\":6830:6938   */\n      pop\n      pop\n      jump\t// out\n        /* \"#utility.yul\":6990:7757   */\n    tag_136:\n        /* \"#utility.yul\":7097:7100   */\n      0x00\n        /* \"#utility.yul\":7133:7137   */\n      0x60\n        /* \"#utility.yul\":7128:7131   */\n      dup4\n        /* \"#utility.yul\":7124:7138   */\n      add\n        /* \"#utility.yul\":7219:7223   */\n      0x00\n        /* \"#utility.yul\":7212:7217   */\n      dup4\n        /* \"#utility.yul\":7208:7224   */\n      add\n        /* \"#utility.yul\":7202:7225   */\n      mload\n        /* \"#utility.yul\":7272:7275   */\n      dup5\n        /* \"#utility.yul\":7266:7270   */\n      dup3\n        /* \"#utility.yul\":7262:7276   */\n      sub\n        /* \"#utility.yul\":7255:7259   */\n      0x00\n        /* \"#utility.yul\":7250:7253   */\n      dup7\n        /* \"#utility.yul\":7246:7260   */\n      add\n        /* \"#utility.yul\":7239:7277   */\n      mstore\n        /* \"#utility.yul\":7298:7371   */\n      tag_255\n        /* \"#utility.yul\":7366:7370   */\n      dup3\n        /* \"#utility.yul\":7352:7364   */\n      dup3\n        /* \"#utility.yul\":7298:7371   */\n      tag_133\n      jump\t// in\n    tag_255:\n        /* \"#utility.yul\":7290:7371   */\n      swap2\n      pop\n        /* \"#utility.yul\":7148:7382   */\n      pop\n        /* \"#utility.yul\":7465:7469   */\n      0x20\n        /* \"#utility.yul\":7458:7463   */\n      dup4\n        /* \"#utility.yul\":7454:7470   */\n      add\n        /* \"#utility.yul\":7448:7471   */\n      mload\n        /* \"#utility.yul\":7484:7547   */\n      tag_256\n        /* \"#utility.yul\":7541:7545   */\n      0x20\n        /* \"#utility.yul\":7536:7539   */\n      dup7\n        /* \"#utility.yul\":7532:7546   */\n      add\n        /* \"#utility.yul\":7518:7530   */\n      dup3\n        /* \"#utility.yul\":7484:7547   */\n      tag_134\n      jump\t// in\n    tag_256:\n        /* \"#utility.yul\":7392:7557   */\n      pop\n        /* \"#utility.yul\":7638:7642   */\n      0x40\n        /* \"#utility.yul\":7631:7636   */\n      dup4\n        /* \"#utility.yul\":7627:7643   */\n      add\n        /* \"#utility.yul\":7621:7644   */\n      mload\n        /* \"#utility.yul\":7657:7720   */\n      tag_257\n        /* \"#utility.yul\":7714:7718   */\n      0x40\n        /* \"#utility.yul\":7709:7712   */\n      dup7\n        /* \"#utility.yul\":7705:7719   */\n      add\n        /* \"#utility.yul\":7691:7703   */\n      dup3\n        /* \"#utility.yul\":7657:7720   */\n      tag_135\n      jump\t// in\n    tag_257:\n        /* \"#utility.yul\":7567:7730   */\n      pop\n        /* \"#utility.yul\":7747:7751   */\n      dup1\n        /* \"#utility.yul\":7740:7751   */\n      swap2\n      pop\n        /* \"#utility.yul\":7102:7757   */\n      pop\n        /* \"#utility.yul\":6990:7757   */\n      swap3\n      swap2\n      pop\n      pop\n      jump\t// out\n        /* \"#utility.yul\":7763:8112   */\n    tag_34:\n        /* \"#utility.yul\":7894:7898   */\n      0x00\n        /* \"#utility.yul\":7932:7934   */\n      0x20\n        /* \"#utility.yul\":7921:7930   */\n      dup3\n        /* \"#utility.yul\":7917:7935   */\n      add\n        /* \"#utility.yul\":7909:7935   */\n      swap1\n      pop\n        /* \"#utility.yul\":7981:7990   */\n      dup2\n        /* \"#utility.yul\":7975:7979   */\n      dup2\n        /* \"#utility.yul\":7971:7991   */\n      sub\n        /* \"#utility.yul\":7967:7968   */\n      0x00\n        /* \"#utility.yul\":7956:7965   */\n      dup4\n        /* \"#utility.yul\":7952:7969   */\n      add\n        /* \"#utility.yul\":7945:7992   */\n      mstore\n        /* \"#utility.yul\":8009:8105   */\n      tag_259\n        /* \"#utility.yul\":8100:8104   */\n      dup2\n        /* \"#utility.yul\":8091:8097   */\n      dup5\n        /* \"#utility.yul\":8009:8105   */\n      tag_136\n      jump\t// in\n    tag_259:\n        /* \"#utility.yul\":8001:8105   */\n      swap1\n      pop\n        /* \"#utility.yul\":7763:8112   */\n      swap3\n      swap2\n      pop\n      pop\n      jump\t// out\n        /* \"#utility.yul\":8118:8236   */\n    tag_137:\n        /* \"#utility.yul\":8205:8229   */\n      tag_261\n        /* \"#utility.yul\":8223:8228   */\n      dup2\n        /* \"#utility.yul\":8205:8229   */\n      tag_120\n      jump\t// in\n    tag_261:\n        /* \"#utility.yul\":8200:8203   */\n      dup3\n        /* \"#utility.yul\":8193:8230   */\n      mstore\n        /* \"#utility.yul\":8118:8236   */\n      pop\n      pop\n      jump\t// out\n        /* \"#utility.yul\":8242:8464   */\n    tag_39:\n        /* \"#utility.yul\":8335:8339   */\n      0x00\n        /* \"#utility.yul\":8373:8375   */\n      0x20\n        /* \"#utility.yul\":8362:8371   */\n      dup3\n        /* \"#utility.yul\":8358:8376   */\n      add\n        /* \"#utility.yul\":8350:8376   */\n      swap1\n      pop\n        /* \"#utility.yul\":8386:8457   */\n      tag_263\n        /* \"#utility.yul\":8454:8455   */\n      0x00\n        /* \"#utility.yul\":8443:8452   */\n      dup4\n        /* \"#utility.yul\":8439:8456   */\n      add\n        /* \"#utility.yul\":8430:8436   */\n      dup5\n        /* \"#utility.yul\":8386:8457   */\n      tag_137\n      jump\t// in\n    tag_263:\n        /* \"#utility.yul\":8242:8464   */\n      swap3\n      swap2\n      pop\n      pop\n      jump\t// out\n        /* \"#utility.yul\":8470:8592   */\n    tag_138:\n        /* \"#utility.yul\":8543:8567   */\n      tag_265\n        /* \"#utility.yul\":8561:8566   */\n      dup2\n        /* \"#utility.yul\":8543:8567   */\n      tag_125\n      jump\t// in\n    tag_265:\n        /* \"#utility.yul\":8536:8541   */\n      dup2\n        /* \"#utility.yul\":8533:8568   */\n      eq\n        /* \"#utility.yul\":8523:8586   */\n      tag_266\n      jumpi\n        /* \"#utility.yul\":8582:8583   */\n      0x00\n        /* \"#utility.yul\":8579:8580   */\n      0x00\n        /* \"#utility.yul\":8572:8584   */\n      revert\n        /* \"#utility.yul\":8523:8586   */\n    tag_266:\n        /* \"#utility.yul\":8470:8592   */\n      pop\n      jump\t// out\n        /* \"#utility.yul\":8598:8737   */\n    tag_139:\n        /* \"#utility.yul\":8644:8649   */\n      0x00\n        /* \"#utility.yul\":8682:8688   */\n      dup2\n        /* \"#utility.yul\":8669:8689   */\n      calldataload\n        /* \"#utility.yul\":8660:8689   */\n      swap1\n      pop\n        /* \"#utility.yul\":8698:8731   */\n      tag_268\n        /* \"#utility.yul\":8725:8730   */\n      dup2\n        /* \"#utility.yul\":8698:8731   */\n      tag_138\n      jump\t// in\n    tag_268:\n        /* \"#utility.yul\":8598:8737   */\n      swap3\n      swap2\n      pop\n      pop\n      jump\t// out\n        /* \"#utility.yul\":8743:9762   */\n    tag_43:\n        /* \"#utility.yul\":8844:8850   */\n      0x00\n        /* \"#utility.yul\":8852:8858   */\n      0x00\n        /* \"#utility.yul\":8860:8866   */\n      0x00\n        /* \"#utility.yul\":8868:8874   */\n      0x00\n        /* \"#utility.yul\":8876:8882   */\n      0x00\n        /* \"#utility.yul\":8925:8927   */\n      0x60\n        /* \"#utility.yul\":8913:8922   */\n      dup7\n        /* \"#utility.yul\":8904:8911   */\n      dup9\n        /* \"#utility.yul\":8900:8923   */\n      sub\n        /* \"#utility.yul\":8896:8928   */\n      slt\n        /* \"#utility.yul\":8893:9012   */\n      iszero\n      tag_270\n      jumpi\n        /* \"#utility.yul\":8931:9010   */\n      tag_271\n      tag_107\n      jump\t// in\n    tag_271:\n        /* \"#utility.yul\":8893:9012   */\n    tag_270:\n        /* \"#utility.yul\":9079:9080   */\n      0x00\n        /* \"#utility.yul\":9068:9077   */\n      dup7\n        /* \"#utility.yul\":9064:9081   */\n      add\n        /* \"#utility.yul\":9051:9082   */\n      calldataload\n        /* \"#utility.yul\":9109:9127   */\n      0xffffffffffffffff\n        /* \"#utility.yul\":9101:9107   */\n      dup2\n        /* \"#utility.yul\":9098:9128   */\n      gt\n        /* \"#utility.yul\":9095:9212   */\n      iszero\n      tag_272\n      jumpi\n        /* \"#utility.yul\":9131:9210   */\n      tag_273\n      tag_108\n      jump\t// in\n    tag_273:\n        /* \"#utility.yul\":9095:9212   */\n    tag_272:\n        /* \"#utility.yul\":9244:9309   */\n      tag_274\n        /* \"#utility.yul\":9301:9308   */\n      dup9\n        /* \"#utility.yul\":9292:9298   */\n      dup3\n        /* \"#utility.yul\":9281:9290   */\n      dup10\n        /* \"#utility.yul\":9277:9299   */\n      add\n        /* \"#utility.yul\":9244:9309   */\n      tag_129\n      jump\t// in\n    tag_274:\n        /* \"#utility.yul\":9226:9309   */\n      swap6\n      pop\n      swap6\n      pop\n        /* \"#utility.yul\":9022:9319   */\n      pop\n        /* \"#utility.yul\":9386:9388   */\n      0x20\n        /* \"#utility.yul\":9375:9384   */\n      dup7\n        /* \"#utility.yul\":9371:9389   */\n      add\n        /* \"#utility.yul\":9358:9390   */\n      calldataload\n        /* \"#utility.yul\":9417:9435   */\n      0xffffffffffffffff\n        /* \"#utility.yul\":9409:9415   */\n      dup2\n        /* \"#utility.yul\":9406:9436   */\n      gt\n        /* \"#utility.yul\":9403:9520   */\n      iszero\n      tag_275\n      jumpi\n        /* \"#utility.yul\":9439:9518   */\n      tag_276\n      tag_108\n      jump\t// in\n    tag_276:\n        /* \"#utility.yul\":9403:9520   */\n    tag_275:\n        /* \"#utility.yul\":9552:9617   */\n      tag_277\n        /* \"#utility.yul\":9609:9616   */\n      dup9\n        /* \"#utility.yul\":9600:9606   */\n      dup3\n        /* \"#utility.yul\":9589:9598   */\n      dup10\n        /* \"#utility.yul\":9585:9607   */\n      add\n        /* \"#utility.yul\":9552:9617   */\n      tag_129\n      jump\t// in\n    tag_277:\n        /* \"#utility.yul\":9534:9617   */\n      swap4\n      pop\n      swap4\n      pop\n        /* \"#utility.yul\":9329:9627   */\n      pop\n        /* \"#utility.yul\":9666:9668   */\n      0x40\n        /* \"#utility.yul\":9692:9745   */\n      tag_278\n        /* \"#utility.yul\":9737:9744   */\n      dup9\n        /* \"#utility.yul\":9728:9734   */\n      dup3\n        /* \"#utility.yul\":9717:9726   */\n      dup10\n        /* \"#utility.yul\":9713:9735   */\n      add\n        /* \"#utility.yul\":9692:9745   */\n      tag_139\n      jump\t// in\n    tag_278:\n        /* \"#utility.yul\":9682:9745   */\n      swap2\n      pop\n        /* \"#utility.yul\":9637:9755   */\n      pop\n        /* \"#utility.yul\":8743:9762   */\n      swap3\n      swap6\n      pop\n      swap3\n      swap6\n      swap1\n      swap4\n      pop\n      jump\t// out\n        /* \"#utility.yul\":9768:9937   */\n    tag_140:\n        /* \"#utility.yul\":9852:9863   */\n      0x00\n        /* \"#utility.yul\":9886:9892   */\n      dup3\n        /* \"#utility.yul\":9881:9884   */\n      dup3\n        /* \"#utility.yul\":9874:9893   */\n      mstore\n        /* \"#utility.yul\":9926:9930   */\n      0x20\n        /* \"#utility.yul\":9921:9924   */\n      dup3\n        /* \"#utility.yul\":9917:9931   */\n      add\n        /* \"#utility.yul\":9902:9931   */\n      swap1\n      pop\n        /* \"#utility.yul\":9768:9937   */\n      swap3\n      swap2\n      pop\n      pop\n      jump\t// out\n        /* \"#utility.yul\":9943:10106   */\n    tag_141:\n        /* \"#utility.yul\":10083:10098   */\n      0x4163636573732064656e69656400000000000000000000000000000000000000\n        /* \"#utility.yul\":10079:10080   */\n      0x00\n        /* \"#utility.yul\":10071:10077   */\n      dup3\n        /* \"#utility.yul\":10067:10081   */\n      add\n        /* \"#utility.yul\":10060:10099   */\n      mstore\n        /* \"#utility.yul\":9943:10106   */\n      pop\n      jump\t// out\n        /* \"#utility.yul\":10112:10478   */\n    tag_142:\n        /* \"#utility.yul\":10254:10257   */\n      0x00\n        /* \"#utility.yul\":10275:10342   */\n      tag_282\n        /* \"#utility.yul\":10339:10341   */\n      0x0d\n        /* \"#utility.yul\":10334:10337   */\n      dup4\n        /* \"#utility.yul\":10275:10342   */\n      tag_140\n      jump\t// in\n    tag_282:\n        /* \"#utility.yul\":10268:10342   */\n      swap2\n      pop\n        /* \"#utility.yul\":10351:10444   */\n      tag_283\n        /* \"#utility.yul\":10440:10443   */\n      dup3\n        /* \"#utility.yul\":10351:10444   */\n      tag_141\n      jump\t// in\n    tag_283:\n        /* \"#utility.yul\":10469:10471   */\n      0x20\n        /* \"#utility.yul\":10464:10467   */\n      dup3\n        /* \"#utility.yul\":10460:10472   */\n      add\n        /* \"#utility.yul\":10453:10472   */\n      swap1\n      pop\n        /* \"#utility.yul\":10112:10478   */\n      swap2\n      swap1\n      pop\n      jump\t// out\n        /* \"#utility.yul\":10484:10903   */\n    tag_48:\n        /* \"#utility.yul\":10650:10654   */\n      0x00\n        /* \"#utility.yul\":10688:10690   */\n      0x20\n        /* \"#utility.yul\":10677:10686   */\n      dup3\n        /* \"#utility.yul\":10673:10691   */\n      add\n        /* \"#utility.yul\":10665:10691   */\n      swap1\n      pop\n        /* \"#utility.yul\":10737:10746   */\n      dup2\n        /* \"#utility.yul\":10731:10735   */\n      dup2\n        /* \"#utility.yul\":10727:10747   */\n      sub\n        /* \"#utility.yul\":10723:10724   */\n      0x00\n        /* \"#utility.yul\":10712:10721   */\n      dup4\n        /* \"#utility.yul\":10708:10725   */\n      add\n        /* \"#utility.yul\":10701:10748   */\n      mstore\n        /* \"#utility.yul\":10765:10896   */\n      tag_285\n        /* \"#utility.yul\":10891:10895   */\n      dup2\n        /* \"#utility.yul\":10765:10896   */\n      tag_142\n      jump\t// in\n    tag_285:\n        /* \"#utility.yul\":10757:10896   */\n      swap1\n      pop\n        /* \"#utility.yul\":10484:10903   */\n      swap2\n      swap1\n      pop\n      jump\t// out\n        /* \"#utility.yul\":10909:11057   */\n    tag_143:\n        /* \"#utility.yul\":11011:11022   */\n      0x00\n        /* \"#utility.yul\":11048:11051   */\n      dup2\n        /* \"#utility.yul\":11033:11051   */\n      swap1\n      pop\n        /* \"#utility.yul\":10909:11057   */\n      swap3\n      swap2\n      pop\n      pop\n      jump\t// out\n        /* \"#utility.yul\":11087:11417   */\n    tag_144:\n        /* \"#utility.yul\":11203:11206   */\n      0x00\n        /* \"#utility.yul\":11224:11313   */\n      tag_288\n        /* \"#utility.yul\":11306:11312   */\n      dup4\n        /* \"#utility.yul\":11301:11304   */\n      dup6\n        /* \"#utility.yul\":11224:11313   */\n      tag_143\n      jump\t// in\n    tag_288:\n        /* \"#utility.yul\":11217:11313   */\n      swap4\n      pop\n        /* \"#utility.yul\":11323:11379   */\n      tag_289\n        /* \"#utility.yul\":11372:11378   */\n      dup4\n        /* \"#utility.yul\":11367:11370   */\n      dup6\n        /* \"#utility.yul\":11360:11365   */\n      dup5\n        /* \"#utility.yul\":11323:11379   */\n      tag_116\n      jump\t// in\n    tag_289:\n        /* \"#utility.yul\":11404:11410   */\n      dup3\n        /* \"#utility.yul\":11399:11402   */\n      dup5\n        /* \"#utility.yul\":11395:11411   */\n      add\n        /* \"#utility.yul\":11388:11411   */\n      swap1\n      pop\n        /* \"#utility.yul\":11087:11417   */\n      swap4\n      swap3\n      pop\n      pop\n      pop\n      jump\t// out\n        /* \"#utility.yul\":11423:11718   */\n    tag_53:\n        /* \"#utility.yul\":11565:11568   */\n      0x00\n        /* \"#utility.yul\":11587:11692   */\n      tag_291\n        /* \"#utility.yul\":11688:11691   */\n      dup3\n        /* \"#utility.yul\":11679:11685   */\n      dup5\n        /* \"#utility.yul\":11671:11677   */\n      dup7\n        /* \"#utility.yul\":11587:11692   */\n      tag_144\n      jump\t// in\n    tag_291:\n        /* \"#utility.yul\":11580:11692   */\n      swap2\n      pop\n        /* \"#utility.yul\":11709:11712   */\n      dup2\n        /* \"#utility.yul\":11702:11712   */\n      swap1\n      pop\n        /* \"#utility.yul\":11423:11718   */\n      swap4\n      swap3\n      pop\n      pop\n      pop\n      jump\t// out\n        /* \"#utility.yul\":11724:11904   */\n    tag_145:\n        /* \"#utility.yul\":11772:11849   */\n      0x4e487b7100000000000000000000000000000000000000000000000000000000\n        /* \"#utility.yul\":11769:11770   */\n      0x00\n        /* \"#utility.yul\":11762:11850   */\n      mstore\n        /* \"#utility.yul\":11869:11873   */\n      0x22\n        /* \"#utility.yul\":11866:11867   */\n      0x04\n        /* \"#utility.yul\":11859:11874   */\n      mstore\n        /* \"#utility.yul\":11893:11897   */\n      0x24\n        /* \"#utility.yul\":11890:11891   */\n      0x00\n        /* \"#utility.yul\":11883:11898   */\n      revert\n        /* \"#utility.yul\":11910:12230   */\n    tag_55:\n        /* \"#utility.yul\":11954:11960   */\n      0x00\n        /* \"#utility.yul\":11991:11992   */\n      0x02\n        /* \"#utility.yul\":11985:11989   */\n      dup3\n        /* \"#utility.yul\":11981:11993   */\n      div\n        /* \"#utility.yul\":11971:11993   */\n      swap1\n      pop\n        /* \"#utility.yul\":12038:12039   */\n      0x01\n        /* \"#utility.yul\":12032:12036   */\n      dup3\n        /* \"#utility.yul\":12028:12040   */\n      and\n        /* \"#utility.yul\":12059:12077   */\n      dup1\n        /* \"#utility.yul\":12049:12130   */\n      tag_294\n      jumpi\n        /* \"#utility.yul\":12115:12119   */\n      0x7f\n        /* \"#utility.yul\":12107:12113   */\n      dup3\n        /* \"#utility.yul\":12103:12120   */\n      and\n        /* \"#utility.yul\":12093:12120   */\n      swap2\n      pop\n        /* \"#utility.yul\":12049:12130   */\n    tag_294:\n        /* \"#utility.yul\":12177:12179   */\n      0x20\n        /* \"#utility.yul\":12169:12175   */\n      dup3\n        /* \"#utility.yul\":12166:12180   */\n      lt\n        /* \"#utility.yul\":12146:12164   */\n      dup2\n        /* \"#utility.yul\":12143:12181   */\n      sub\n        /* \"#utility.yul\":12140:12224   */\n      tag_295\n      jumpi\n        /* \"#utility.yul\":12196:12214   */\n      tag_296\n      tag_145\n      jump\t// in\n    tag_296:\n        /* \"#utility.yul\":12140:12224   */\n    tag_295:\n        /* \"#utility.yul\":11961:12230   */\n      pop\n        /* \"#utility.yul\":11910:12230   */\n      swap2\n      swap1\n      pop\n      jump\t// out\n        /* \"#utility.yul\":12236:12400   */\n    tag_146:\n        /* \"#utility.yul\":12376:12392   */\n      0x4c696e6b206e6f7420666f756e64000000000000000000000000000000000000\n        /* \"#utility.yul\":12372:12373   */\n      0x00\n        /* \"#utility.yul\":12364:12370   */\n      dup3\n        /* \"#utility.yul\":12360:12374   */\n      add\n        /* \"#utility.yul\":12353:12393   */\n      mstore\n        /* \"#utility.yul\":12236:12400   */\n      pop\n      jump\t// out\n        /* \"#utility.yul\":12406:12772   */\n    tag_147:\n        /* \"#utility.yul\":12548:12551   */\n      0x00\n        /* \"#utility.yul\":12569:12636   */\n      tag_299\n        /* \"#utility.yul\":12633:12635   */\n      0x0e\n        /* \"#utility.yul\":12628:12631   */\n      dup4\n        /* \"#utility.yul\":12569:12636   */\n      tag_140\n      jump\t// in\n    tag_299:\n        /* \"#utility.yul\":12562:12636   */\n      swap2\n      pop\n        /* \"#utility.yul\":12645:12738   */\n      tag_300\n        /* \"#utility.yul\":12734:12737   */\n      dup3\n        /* \"#utility.yul\":12645:12738   */\n      tag_146\n      jump\t// in\n    tag_300:\n        /* \"#utility.yul\":12763:12765   */\n      0x20\n        /* \"#utility.yul\":12758:12761   */\n      dup3\n        /* \"#utility.yul\":12754:12766   */\n      add\n        /* \"#utility.yul\":12747:12766   */\n      swap1\n      pop\n        /* \"#utility.yul\":12406:12772   */\n      swap2\n      swap1\n      pop\n      jump\t// out\n        /* \"#utility.yul\":12778:13197   */\n    tag_62:\n        /* \"#utility.yul\":12944:12948   */\n      0x00\n        /* \"#utility.yul\":12982:12984   */\n      0x20\n        /* \"#utility.yul\":12971:12980   */\n      dup3\n        /* \"#utility.yul\":12967:12985   */\n      add\n        /* \"#utility.yul\":12959:12985   */\n      swap1\n      pop\n        /* \"#utility.yul\":13031:13040   */\n      dup2\n        /* \"#utility.yul\":13025:13029   */\n      dup2\n        /* \"#utility.yul\":13021:13041   */\n      sub\n        /* \"#utility.yul\":13017:13018   */\n      0x00\n        /* \"#utility.yul\":13006:13015   */\n      dup4\n        /* \"#utility.yul\":13002:13019   */\n      add\n        /* \"#utility.yul\":12995:13042   */\n      mstore\n        /* \"#utility.yul\":13059:13190   */\n      tag_302\n        /* \"#utility.yul\":13185:13189   */\n      dup2\n        /* \"#utility.yul\":13059:13190   */\n      tag_147\n      jump\t// in\n    tag_302:\n        /* \"#utility.yul\":13051:13190   */\n      swap1\n      pop\n        /* \"#utility.yul\":12778:13197   */\n      swap2\n      swap1\n      pop\n      jump\t// out\n        /* \"#utility.yul\":13203:13376   */\n    tag_148:\n        /* \"#utility.yul\":13343:13368   */\n      0x596f7520616c7265616479206861766520616363657373000000000000000000\n        /* \"#utility.yul\":13339:13340   */\n      0x00\n        /* \"#utility.yul\":13331:13337   */\n      dup3\n        /* \"#utility.yul\":13327:13341   */\n      add\n        /* \"#utility.yul\":13320:13369   */\n      mstore\n        /* \"#utility.yul\":13203:13376   */\n      pop\n      jump\t// out\n        /* \"#utility.yul\":13382:13748   */\n    tag_149:\n        /* \"#utility.yul\":13524:13527   */\n      0x00\n        /* \"#utility.yul\":13545:13612   */\n      tag_305\n        /* \"#utility.yul\":13609:13611   */\n      0x17\n        /* \"#utility.yul\":13604:13607   */\n      dup4\n        /* \"#utility.yul\":13545:13612   */\n      tag_140\n      jump\t// in\n    tag_305:\n        /* \"#utility.yul\":13538:13612   */\n      swap2\n      pop\n        /* \"#utility.yul\":13621:13714   */\n      tag_306\n        /* \"#utility.yul\":13710:13713   */\n      dup3\n        /* \"#utility.yul\":13621:13714   */\n      tag_148\n      jump\t// in\n    tag_306:\n        /* \"#utility.yul\":13739:13741   */\n      0x20\n        /* \"#utility.yul\":13734:13737   */\n      dup3\n        /* \"#utility.yul\":13730:13742   */\n      add\n        /* \"#utility.yul\":13723:13742   */\n      swap1\n      pop\n        /* \"#utility.yul\":13382:13748   */\n      swap2\n      swap1\n      pop\n      jump\t// out\n        /* \"#utility.yul\":13754:14173   */\n    tag_66:\n        /* \"#utility.yul\":13920:13924   */\n      0x00\n        /* \"#utility.yul\":13958:13960   */\n      0x20\n        /* \"#utility.yul\":13947:13956   */\n      dup3\n        /* \"#utility.yul\":13943:13961   */\n      add\n        /* \"#utility.yul\":13935:13961   */\n      swap1\n      pop\n        /* \"#utility.yul\":14007:14016   */\n      dup2\n        /* \"#utility.yul\":14001:14005   */\n      dup2\n        /* \"#utility.yul\":13997:14017   */\n      sub\n        /* \"#utility.yul\":13993:13994   */\n      0x00\n        /* \"#utility.yul\":13982:13991   */\n      dup4\n        /* \"#utility.yul\":13978:13995   */\n      add\n        /* \"#utility.yul\":13971:14018   */\n      mstore\n        /* \"#utility.yul\":14035:14166   */\n      tag_308\n        /* \"#utility.yul\":14161:14165   */\n      dup2\n        /* \"#utility.yul\":14035:14166   */\n      tag_149\n      jump\t// in\n    tag_308:\n        /* \"#utility.yul\":14027:14166   */\n      swap1\n      pop\n        /* \"#utility.yul\":13754:14173   */\n      swap2\n      swap1\n      pop\n      jump\t// out\n        /* \"#utility.yul\":14179:14349   */\n    tag_150:\n        /* \"#utility.yul\":14319:14341   */\n      0x496e73756666696369656e74207061796d656e74000000000000000000000000\n        /* \"#utility.yul\":14315:14316   */\n      0x00\n        /* \"#utility.yul\":14307:14313   */\n      dup3\n        /* \"#utility.yul\":14303:14317   */\n      add\n        /* \"#utility.yul\":14296:14342   */\n      mstore\n        /* \"#utility.yul\":14179:14349   */\n      pop\n      jump\t// out\n        /* \"#utility.yul\":14355:14721   */\n    tag_151:\n        /* \"#utility.yul\":14497:14500   */\n      0x00\n        /* \"#utility.yul\":14518:14585   */\n      tag_311\n        /* \"#utility.yul\":14582:14584   */\n      0x14\n        /* \"#utility.yul\":14577:14580   */\n      dup4\n        /* \"#utility.yul\":14518:14585   */\n      tag_140\n      jump\t// in\n    tag_311:\n        /* \"#utility.yul\":14511:14585   */\n      swap2\n      pop\n        /* \"#utility.yul\":14594:14687   */\n      tag_312\n        /* \"#utility.yul\":14683:14686   */\n      dup3\n        /* \"#utility.yul\":14594:14687   */\n      tag_150\n      jump\t// in\n    tag_312:\n        /* \"#utility.yul\":14712:14714   */\n      0x20\n        /* \"#utility.yul\":14707:14710   */\n      dup3\n        /* \"#utility.yul\":14703:14715   */\n      add\n        /* \"#utility.yul\":14696:14715   */\n      swap1\n      pop\n        /* \"#utility.yul\":14355:14721   */\n      swap2\n      swap1\n      pop\n      jump\t// out\n        /* \"#utility.yul\":14727:15146   */\n    tag_69:\n        /* \"#utility.yul\":14893:14897   */\n      0x00\n        /* \"#utility.yul\":14931:14933   */\n      0x20\n        /* \"#utility.yul\":14920:14929   */\n      dup3\n        /* \"#utility.yul\":14916:14934   */\n      add\n        /* \"#utility.yul\":14908:14934   */\n      swap1\n      pop\n        /* \"#utility.yul\":14980:14989   */\n      dup2\n        /* \"#utility.yul\":14974:14978   */\n      dup2\n        /* \"#utility.yul\":14970:14990   */\n      sub\n        /* \"#utility.yul\":14966:14967   */\n      0x00\n        /* \"#utility.yul\":14955:14964   */\n      dup4\n        /* \"#utility.yul\":14951:14968   */\n      add\n        /* \"#utility.yul\":14944:14991   */\n      mstore\n        /* \"#utility.yul\":15008:15139   */\n      tag_314\n        /* \"#utility.yul\":15134:15138   */\n      dup2\n        /* \"#utility.yul\":15008:15139   */\n      tag_151\n      jump\t// in\n    tag_314:\n        /* \"#utility.yul\":15000:15139   */\n      swap1\n      pop\n        /* \"#utility.yul\":14727:15146   */\n      swap2\n      swap1\n      pop\n      jump\t// out\n        /* \"#utility.yul\":15152:15332   */\n    tag_152:\n        /* \"#utility.yul\":15200:15277   */\n      0x4e487b7100000000000000000000000000000000000000000000000000000000\n        /* \"#utility.yul\":15197:15198   */\n      0x00\n        /* \"#utility.yul\":15190:15278   */\n      mstore\n        /* \"#utility.yul\":15297:15301   */\n      0x11\n        /* \"#utility.yul\":15294:15295   */\n      0x04\n        /* \"#utility.yul\":15287:15302   */\n      mstore\n        /* \"#utility.yul\":15321:15325   */\n      0x24\n        /* \"#utility.yul\":15318:15319   */\n      0x00\n        /* \"#utility.yul\":15311:15326   */\n      revert\n        /* \"#utility.yul\":15338:15532   */\n    tag_72:\n        /* \"#utility.yul\":15378:15382   */\n      0x00\n        /* \"#utility.yul\":15398:15418   */\n      tag_317\n        /* \"#utility.yul\":15416:15417   */\n      dup3\n        /* \"#utility.yul\":15398:15418   */\n      tag_125\n      jump\t// in\n    tag_317:\n        /* \"#utility.yul\":15393:15418   */\n      swap2\n      pop\n        /* \"#utility.yul\":15432:15452   */\n      tag_318\n        /* \"#utility.yul\":15450:15451   */\n      dup4\n        /* \"#utility.yul\":15432:15452   */\n      tag_125\n      jump\t// in\n    tag_318:\n        /* \"#utility.yul\":15427:15452   */\n      swap3\n      pop\n        /* \"#utility.yul\":15476:15477   */\n      dup3\n        /* \"#utility.yul\":15473:15474   */\n      dup3\n        /* \"#utility.yul\":15469:15478   */\n      sub\n        /* \"#utility.yul\":15461:15478   */\n      swap1\n      pop\n        /* \"#utility.yul\":15500:15501   */\n      dup2\n        /* \"#utility.yul\":15494:15498   */\n      dup2\n        /* \"#utility.yul\":15491:15502   */\n      gt\n        /* \"#utility.yul\":15488:15525   */\n      iszero\n      tag_319\n      jumpi\n        /* \"#utility.yul\":15505:15523   */\n      tag_320\n      tag_152\n      jump\t// in\n    tag_320:\n        /* \"#utility.yul\":15488:15525   */\n    tag_319:\n        /* \"#utility.yul\":15338:15532   */\n      swap3\n      swap2\n      pop\n      pop\n      jump\t// out\n        /* \"#utility.yul\":15538:15720   */\n    tag_153:\n        /* \"#utility.yul\":15678:15712   */\n      0x54686973206c696e6b496420616c72656164792068617320616e206f776e6572\n        /* \"#utility.yul\":15674:15675   */\n      0x00\n        /* \"#utility.yul\":15666:15672   */\n      dup3\n        /* \"#utility.yul\":15662:15676   */\n      add\n        /* \"#utility.yul\":15655:15713   */\n      mstore\n        /* \"#utility.yul\":15538:15720   */\n      pop\n      jump\t// out\n        /* \"#utility.yul\":15726:16092   */\n    tag_154:\n        /* \"#utility.yul\":15868:15871   */\n      0x00\n        /* \"#utility.yul\":15889:15956   */\n      tag_323\n        /* \"#utility.yul\":15953:15955   */\n      0x20\n        /* \"#utility.yul\":15948:15951   */\n      dup4\n        /* \"#utility.yul\":15889:15956   */\n      tag_140\n      jump\t// in\n    tag_323:\n        /* \"#utility.yul\":15882:15956   */\n      swap2\n      pop\n        /* \"#utility.yul\":15965:16058   */\n      tag_324\n        /* \"#utility.yul\":16054:16057   */\n      dup3\n        /* \"#utility.yul\":15965:16058   */\n      tag_153\n      jump\t// in\n    tag_324:\n        /* \"#utility.yul\":16083:16085   */\n      0x20\n        /* \"#utility.yul\":16078:16081   */\n      dup3\n        /* \"#utility.yul\":16074:16086   */\n      add\n        /* \"#utility.yul\":16067:16086   */\n      swap1\n      pop\n        /* \"#utility.yul\":15726:16092   */\n      swap2\n      swap1\n      pop\n      jump\t// out\n        /* \"#utility.yul\":16098:16517   */\n    tag_97:\n        /* \"#utility.yul\":16264:16268   */\n      0x00\n        /* \"#utility.yul\":16302:16304   */\n      0x20\n        /* \"#utility.yul\":16291:16300   */\n      dup3\n        /* \"#utility.yul\":16287:16305   */\n      add\n        /* \"#utility.yul\":16279:16305   */\n      swap1\n      pop\n        /* \"#utility.yul\":16351:16360   */\n      dup2\n        /* \"#utility.yul\":16345:16349   */\n      dup2\n        /* \"#utility.yul\":16341:16361   */\n      sub\n        /* \"#utility.yul\":16337:16338   */\n      0x00\n        /* \"#utility.yul\":16326:16335   */\n      dup4\n        /* \"#utility.yul\":16322:16339   */\n      add\n        /* \"#utility.yul\":16315:16362   */\n      mstore\n        /* \"#utility.yul\":16379:16510   */\n      tag_326\n        /* \"#utility.yul\":16505:16509   */\n      dup2\n        /* \"#utility.yul\":16379:16510   */\n      tag_154\n      jump\t// in\n    tag_326:\n        /* \"#utility.yul\":16371:16510   */\n      swap1\n      pop\n        /* \"#utility.yul\":16098:16517   */\n      swap2\n      swap1\n      pop\n      jump\t// out\n        /* \"#utility.yul\":16523:16704   */\n    tag_155:\n        /* \"#utility.yul\":16663:16696   */\n      0x466565206d757374206265206d6f7265207468616e20636f6d697373696f6e00\n        /* \"#utility.yul\":16659:16660   */\n      0x00\n        /* \"#utility.yul\":16651:16657   */\n      dup3\n        /* \"#utility.yul\":16647:16661   */\n      add\n        /* \"#utility.yul\":16640:16697   */\n      mstore\n        /* \"#utility.yul\":16523:16704   */\n      pop\n      jump\t// out\n        /* \"#utility.yul\":16710:17076   */\n    tag_156:\n        /* \"#utility.yul\":16852:16855   */\n      0x00\n        /* \"#utility.yul\":16873:16940   */\n      tag_329\n        /* \"#utility.yul\":16937:16939   */\n      0x1f\n        /* \"#utility.yul\":16932:16935   */\n      dup4\n        /* \"#utility.yul\":16873:16940   */\n      tag_140\n      jump\t// in\n    tag_329:\n        /* \"#utility.yul\":16866:16940   */\n      swap2\n      pop\n        /* \"#utility.yul\":16949:17042   */\n      tag_330\n        /* \"#utility.yul\":17038:17041   */\n      dup3\n        /* \"#utility.yul\":16949:17042   */\n      tag_155\n      jump\t// in\n    tag_330:\n        /* \"#utility.yul\":17067:17069   */\n      0x20\n        /* \"#utility.yul\":17062:17065   */\n      dup3\n        /* \"#utility.yul\":17058:17070   */\n      add\n        /* \"#utility.yul\":17051:17070   */\n      swap1\n      pop\n        /* \"#utility.yul\":16710:17076   */\n      swap2\n      swap1\n      pop\n      jump\t// out\n        /* \"#utility.yul\":17082:17501   */\n    tag_101:\n        /* \"#utility.yul\":17248:17252   */\n      0x00\n        /* \"#utility.yul\":17286:17288   */\n      0x20\n        /* \"#utility.yul\":17275:17284   */\n      dup3\n        /* \"#utility.yul\":17271:17289   */\n      add\n        /* \"#utility.yul\":17263:17289   */\n      swap1\n      pop\n        /* \"#utility.yul\":17335:17344   */\n      dup2\n        /* \"#utility.yul\":17329:17333   */\n      dup2\n        /* \"#utility.yul\":17325:17345   */\n      sub\n        /* \"#utility.yul\":17321:17322   */\n      0x00\n        /* \"#utility.yul\":17310:17319   */\n      dup4\n        /* \"#utility.yul\":17306:17323   */\n      add\n        /* \"#utility.yul\":17299:17346   */\n      mstore\n        /* \"#utility.yul\":17363:17494   */\n      tag_332\n        /* \"#utility.yul\":17489:17493   */\n      dup2\n        /* \"#utility.yul\":17363:17494   */\n      tag_156\n      jump\t// in\n    tag_332:\n        /* \"#utility.yul\":17355:17494   */\n      swap1\n      pop\n        /* \"#utility.yul\":17082:17501   */\n      swap2\n      swap1\n      pop\n      jump\t// out\n        /* \"#utility.yul\":17507:17648   */\n    tag_157:\n        /* \"#utility.yul\":17556:17560   */\n      0x00\n        /* \"#utility.yul\":17579:17582   */\n      dup2\n        /* \"#utility.yul\":17571:17582   */\n      swap1\n      pop\n        /* \"#utility.yul\":17602:17605   */\n      dup2\n        /* \"#utility.yul\":17599:17600   */\n      0x00\n        /* \"#utility.yul\":17592:17606   */\n      mstore\n        /* \"#utility.yul\":17636:17640   */\n      0x20\n        /* \"#utility.yul\":17633:17634   */\n      0x00\n        /* \"#utility.yul\":17623:17641   */\n      keccak256\n        /* \"#utility.yul\":17615:17641   */\n      swap1\n      pop\n        /* \"#utility.yul\":17507:17648   */\n      swap2\n      swap1\n      pop\n      jump\t// out\n        /* \"#utility.yul\":17654:17747   */\n    tag_158:\n        /* \"#utility.yul\":17691:17697   */\n      0x00\n        /* \"#utility.yul\":17738:17740   */\n      0x20\n        /* \"#utility.yul\":17733:17735   */\n      0x1f\n        /* \"#utility.yul\":17726:17731   */\n      dup4\n        /* \"#utility.yul\":17722:17736   */\n      add\n        /* \"#utility.yul\":17718:17741   */\n      div\n        /* \"#utility.yul\":17708:17741   */\n      swap1\n      pop\n        /* \"#utility.yul\":17654:17747   */\n      swap2\n      swap1\n      pop\n      jump\t// out\n        /* \"#utility.yul\":17753:17860   */\n    tag_159:\n        /* \"#utility.yul\":17797:17805   */\n      0x00\n        /* \"#utility.yul\":17847:17852   */\n      dup3\n        /* \"#utility.yul\":17841:17845   */\n      dup3\n        /* \"#utility.yul\":17837:17853   */\n      shl\n        /* \"#utility.yul\":17816:17853   */\n      swap1\n      pop\n        /* \"#utility.yul\":17753:17860   */\n      swap3\n      swap2\n      pop\n      pop\n      jump\t// out\n        /* \"#utility.yul\":17866:18259   */\n    tag_160:\n        /* \"#utility.yul\":17935:17941   */\n      0x00\n        /* \"#utility.yul\":17985:17986   */\n      0x08\n        /* \"#utility.yul\":17973:17983   */\n      dup4\n        /* \"#utility.yul\":17969:17987   */\n      mul\n        /* \"#utility.yul\":18008:18105   */\n      tag_337\n        /* \"#utility.yul\":18038:18104   */\n      0xffffffffffffffffffffffffffffffffffffffffffffffffffffffffffffffff\n        /* \"#utility.yul\":18027:18036   */\n      dup3\n        /* \"#utility.yul\":18008:18105   */\n      tag_159\n      jump\t// in\n    tag_337:\n        /* \"#utility.yul\":18126:18165   */\n      tag_338\n        /* \"#utility.yul\":18156:18164   */\n      dup7\n        /* \"#utility.yul\":18145:18154   */\n      dup4\n        /* \"#utility.yul\":18126:18165   */\n      tag_159\n      jump\t// in\n    tag_338:\n        /* \"#utility.yul\":18114:18165   */\n      swap6\n      pop\n        /* \"#utility.yul\":18198:18202   */\n      dup1\n        /* \"#utility.yul\":18194:18203   */\n      not\n        /* \"#utility.yul\":18187:18192   */\n      dup5\n        /* \"#utility.yul\":18183:18204   */\n      and\n        /* \"#utility.yul\":18174:18204   */\n      swap4\n      pop\n        /* \"#utility.yul\":18247:18251   */\n      dup1\n        /* \"#utility.yul\":18237:18245   */\n      dup7\n        /* \"#utility.yul\":18233:18252   */\n      and\n        /* \"#utility.yul\":18226:18231   */\n      dup5\n        /* \"#utility.yul\":18223:18253   */\n      or\n        /* \"#utility.yul\":18213:18253   */\n      swap3\n      pop\n        /* \"#utility.yul\":17942:18259   */\n      pop\n      pop\n        /* \"#utility.yul\":17866:18259   */\n      swap4\n      swap3\n      pop\n      pop\n      pop\n      jump\t// out\n        /* \"#utility.yul\":18265:18325   */\n    tag_161:\n        /* \"#utility.yul\":18293:18296   */\n      0x00\n        /* \"#utility.yul\":18314:18319   */\n      dup2\n        /* \"#utility.yul\":18307:18319   */\n      swap1\n      pop\n        /* \"#utility.yul\":18265:18325   */\n      swap2\n      swap1\n      pop\n      jump\t// out\n        /* \"#utility.yul\":18331:18473   */\n    tag_162:\n        /* \"#utility.yul\":18381:18390   */\n      0x00\n        /* \"#utility.yul\":18414:18467   */\n      tag_341\n        /* \"#utility.yul\":18432:18466   */\n      tag_342\n        /* \"#utility.yul\":18441:18465   */\n      tag_343\n        /* \"#utility.yul\":18459:18464   */\n      dup5\n        /* \"#utility.yul\":18441:18465   */\n      tag_125\n      jump\t// in\n    tag_343:\n        /* \"#utility.yul\":18432:18466   */\n      tag_161\n      jump\t// in\n    tag_342:\n        /* \"#utility.yul\":18414:18467   */\n      tag_125\n      jump\t// in\n    tag_341:\n        /* \"#utility.yul\":18401:18467   */\n      swap1\n      pop\n        /* \"#utility.yul\":18331:18473   */\n      swap2\n      swap1\n      pop\n      jump\t// out\n        /* \"#utility.yul\":18479:18554   */\n    tag_163:\n        /* \"#utility.yul\":18522:18525   */\n      0x00\n        /* \"#utility.yul\":18543:18548   */\n      dup2\n        /* \"#utility.yul\":18536:18548   */\n      swap1\n      pop\n        /* \"#utility.yul\":18479:18554   */\n      swap2\n      swap1\n      pop\n      jump\t// out\n        /* \"#utility.yul\":18560:18829   */\n    tag_164:\n        /* \"#utility.yul\":18670:18709   */\n      tag_346\n        /* \"#utility.yul\":18701:18708   */\n      dup4\n        /* \"#utility.yul\":18670:18709   */\n      tag_162\n      jump\t// in\n    tag_346:\n        /* \"#utility.yul\":18731:18822   */\n      tag_347\n        /* \"#utility.yul\":18780:18821   */\n      tag_348\n        /* \"#utility.yul\":18804:18820   */\n      dup3\n        /* \"#utility.yul\":18780:18821   */\n      tag_163\n      jump\t// in\n    tag_348:\n        /* \"#utility.yul\":18772:18778   */\n      dup5\n        /* \"#utility.yul\":18765:18769   */\n      dup5\n        /* \"#utility.yul\":18759:18770   */\n      sload\n        /* \"#utility.yul\":18731:18822   */\n      tag_160\n      jump\t// in\n    tag_347:\n        /* \"#utility.yul\":18725:18729   */\n      dup3\n        /* \"#utility.yul\":18718:18823   */\n      sstore\n        /* \"#utility.yul\":18636:18829   */\n      pop\n        /* \"#utility.yul\":18560:18829   */\n      pop\n      pop\n      pop\n      jump\t// out\n        /* \"#utility.yul\":18835:18908   */\n    tag_165:\n        /* \"#utility.yul\":18880:18883   */\n      0x00\n        /* \"#utility.yul\":18901:18902   */\n      0x00\n        /* \"#utility.yul\":18894:18902   */\n      swap1\n      pop\n        /* \"#utility.yul\":18835:18908   */\n      swap1\n      jump\t// out\n        /* \"#utility.yul\":18914:19103   */\n    tag_166:\n        /* \"#utility.yul\":18991:19023   */\n      tag_351\n      tag_165\n      jump\t// in\n    tag_351:\n        /* \"#utility.yul\":19032:19097   */\n      tag_352\n        /* \"#utility.yul\":19090:19096   */\n      dup2\n        /* \"#utility.yul\":19082:19088   */\n      dup5\n        /* \"#utility.yul\":19076:19080   */\n      dup5\n        /* \"#utility.yul\":19032:19097   */\n      tag_164\n      jump\t// in\n    tag_352:\n        /* \"#utility.yul\":18967:19103   */\n      pop\n        /* \"#utility.yul\":18914:19103   */\n      pop\n      pop\n      jump\t// out\n        /* \"#utility.yul\":19109:19295   */\n    tag_167:\n        /* \"#utility.yul\":19169:19289   */\n    tag_354:\n        /* \"#utility.yul\":19186:19189   */\n      dup2\n        /* \"#utility.yul\":19179:19184   */\n      dup2\n        /* \"#utility.yul\":19176:19190   */\n      lt\n        /* \"#utility.yul\":19169:19289   */\n      iszero\n      tag_356\n      jumpi\n        /* \"#utility.yul\":19240:19279   */\n      tag_357\n        /* \"#utility.yul\":19277:19278   */\n      0x00\n        /* \"#utility.yul\":19270:19275   */\n      dup3\n        /* \"#utility.yul\":19240:19279   */\n      tag_166\n      jump\t// in\n    tag_357:\n        /* \"#utility.yul\":19213:19214   */\n      0x01\n        /* \"#utility.yul\":19206:19211   */\n      dup2\n        /* \"#utility.yul\":19202:19215   */\n      add\n        /* \"#utility.yul\":19193:19215   */\n      swap1\n      pop\n        /* \"#utility.yul\":19169:19289   */\n      jump(tag_354)\n    tag_356:\n        /* \"#utility.yul\":19109:19295   */\n      pop\n      pop\n      jump\t// out\n        /* \"#utility.yul\":19301:19844   */\n    tag_168:\n        /* \"#utility.yul\":19402:19404   */\n      0x1f\n        /* \"#utility.yul\":19397:19400   */\n      dup3\n        /* \"#utility.yul\":19394:19405   */\n      gt\n        /* \"#utility.yul\":19391:19837   */\n      iszero\n      tag_359\n      jumpi\n        /* \"#utility.yul\":19436:19474   */\n      tag_360\n        /* \"#utility.yul\":19468:19473   */\n      dup2\n        /* \"#utility.yul\":19436:19474   */\n      tag_157\n      jump\t// in\n    tag_360:\n        /* \"#utility.yul\":19520:19549   */\n      tag_361\n        /* \"#utility.yul\":19538:19548   */\n      dup5\n        /* \"#utility.yul\":19520:19549   */\n      tag_158\n      jump\t// in\n    tag_361:\n        /* \"#utility.yul\":19510:19518   */\n      dup2\n        /* \"#utility.yul\":19506:19550   */\n      add\n        /* \"#utility.yul\":19703:19705   */\n      0x20\n        /* \"#utility.yul\":19691:19701   */\n      dup6\n        /* \"#utility.yul\":19688:19706   */\n      lt\n        /* \"#utility.yul\":19685:19734   */\n      iszero\n      tag_362\n      jumpi\n        /* \"#utility.yul\":19724:19732   */\n      dup2\n        /* \"#utility.yul\":19709:19732   */\n      swap1\n      pop\n        /* \"#utility.yul\":19685:19734   */\n    tag_362:\n        /* \"#utility.yul\":19747:19827   */\n      tag_363\n        /* \"#utility.yul\":19803:19825   */\n      tag_364\n        /* \"#utility.yul\":19821:19824   */\n      dup6\n        /* \"#utility.yul\":19803:19825   */\n      tag_158\n      jump\t// in\n    tag_364:\n        /* \"#utility.yul\":19793:19801   */\n      dup4\n        /* \"#utility.yul\":19789:19826   */\n      add\n        /* \"#utility.yul\":19776:19787   */\n      dup3\n        /* \"#utility.yul\":19747:19827   */\n      tag_167\n      jump\t// in\n    tag_363:\n        /* \"#utility.yul\":19406:19837   */\n      pop\n      pop\n        /* \"#utility.yul\":19391:19837   */\n    tag_359:\n        /* \"#utility.yul\":19301:19844   */\n      pop\n      pop\n      pop\n      jump\t// out\n        /* \"#utility.yul\":19850:19967   */\n    tag_169:\n        /* \"#utility.yul\":19904:19912   */\n      0x00\n        /* \"#utility.yul\":19954:19959   */\n      dup3\n        /* \"#utility.yul\":19948:19952   */\n      dup3\n        /* \"#utility.yul\":19944:19960   */\n      shr\n        /* \"#utility.yul\":19923:19960   */\n      swap1\n      pop\n        /* \"#utility.yul\":19850:19967   */\n      swap3\n      swap2\n      pop\n      pop\n      jump\t// out\n        /* \"#utility.yul\":19973:20142   */\n    tag_170:\n        /* \"#utility.yul\":20017:20023   */\n      0x00\n        /* \"#utility.yul\":20050:20101   */\n      tag_367\n        /* \"#utility.yul\":20098:20099   */\n      0x00\n        /* \"#utility.yul\":20094:20100   */\n      not\n        /* \"#utility.yul\":20086:20091   */\n      dup5\n        /* \"#utility.yul\":20083:20084   */\n      0x08\n        /* \"#utility.yul\":20079:20092   */\n      mul\n        /* \"#utility.yul\":20050:20101   */\n      tag_169\n      jump\t// in\n    tag_367:\n        /* \"#utility.yul\":20046:20102   */\n      not\n        /* \"#utility.yul\":20131:20135   */\n      dup1\n        /* \"#utility.yul\":20125:20129   */\n      dup4\n        /* \"#utility.yul\":20121:20136   */\n      and\n        /* \"#utility.yul\":20111:20136   */\n      swap2\n      pop\n        /* \"#utility.yul\":20024:20142   */\n      pop\n        /* \"#utility.yul\":19973:20142   */\n      swap3\n      swap2\n      pop\n      pop\n      jump\t// out\n        /* \"#utility.yul\":20147:20442   */\n    tag_171:\n        /* \"#utility.yul\":20223:20227   */\n      0x00\n        /* \"#utility.yul\":20369:20398   */\n      tag_369\n        /* \"#utility.yul\":20394:20397   */\n      dup4\n        /* \"#utility.yul\":20388:20392   */\n      dup4\n        /* \"#utility.yul\":20369:20398   */\n      tag_170\n      jump\t// in\n    tag_369:\n        /* \"#utility.yul\":20361:20398   */\n      swap2\n      pop\n        /* \"#utility.yul\":20431:20434   */\n      dup3\n        /* \"#utility.yul\":20428:20429   */\n      0x02\n        /* \"#utility.yul\":20424:20435   */\n      mul\n        /* \"#utility.yul\":20418:20422   */\n      dup3\n        /* \"#utility.yul\":20415:20436   */\n      or\n        /* \"#utility.yul\":20407:20436   */\n      swap1\n      pop\n        /* \"#utility.yul\":20147:20442   */\n      swap3\n      swap2\n      pop\n      pop\n      jump\t// out\n        /* \"#utility.yul\":20447:21842   */\n    tag_104:\n        /* \"#utility.yul\":20564:20601   */\n      tag_371\n        /* \"#utility.yul\":20597:20600   */\n      dup3\n        /* \"#utility.yul\":20564:20601   */\n      tag_130\n      jump\t// in\n    tag_371:\n        /* \"#utility.yul\":20666:20684   */\n      0xffffffffffffffff\n        /* \"#utility.yul\":20658:20664   */\n      dup2\n        /* \"#utility.yul\":20655:20685   */\n      gt\n        /* \"#utility.yul\":20652:20708   */\n      iszero\n      tag_372\n      jumpi\n        /* \"#utility.yul\":20688:20706   */\n      tag_373\n      tag_112\n      jump\t// in\n    tag_373:\n        /* \"#utility.yul\":20652:20708   */\n    tag_372:\n        /* \"#utility.yul\":20732:20770   */\n      tag_374\n        /* \"#utility.yul\":20764:20768   */\n      dup3\n        /* \"#utility.yul\":20758:20769   */\n      sload\n        /* \"#utility.yul\":20732:20770   */\n      tag_55\n      jump\t// in\n    tag_374:\n        /* \"#utility.yul\":20817:20884   */\n      tag_375\n        /* \"#utility.yul\":20877:20883   */\n      dup3\n        /* \"#utility.yul\":20869:20875   */\n      dup3\n        /* \"#utility.yul\":20863:20867   */\n      dup6\n        /* \"#utility.yul\":20817:20884   */\n      tag_168\n      jump\t// in\n    tag_375:\n        /* \"#utility.yul\":20911:20912   */\n      0x00\n        /* \"#utility.yul\":20935:20939   */\n      0x20\n        /* \"#utility.yul\":20922:20939   */\n      swap1\n      pop\n        /* \"#utility.yul\":20967:20969   */\n      0x1f\n        /* \"#utility.yul\":20959:20965   */\n      dup4\n        /* \"#utility.yul\":20956:20970   */\n      gt\n        /* \"#utility.yul\":20984:20985   */\n      0x01\n        /* \"#utility.yul\":20979:21597   */\n      dup2\n      eq\n      tag_377\n      jumpi\n        /* \"#utility.yul\":21641:21642   */\n      0x00\n        /* \"#utility.yul\":21658:21664   */\n      dup5\n        /* \"#utility.yul\":21655:21732   */\n      iszero\n      tag_378\n      jumpi\n        /* \"#utility.yul\":21707:21716   */\n      dup3\n        /* \"#utility.yul\":21702:21705   */\n      dup8\n        /* \"#utility.yul\":21698:21717   */\n      add\n        /* \"#utility.yul\":21692:21718   */\n      mload\n        /* \"#utility.yul\":21683:21718   */\n      swap1\n      pop\n        /* \"#utility.yul\":21655:21732   */\n    tag_378:\n        /* \"#utility.yul\":21758:21825   */\n      tag_379\n        /* \"#utility.yul\":21818:21824   */\n      dup6\n        /* \"#utility.yul\":21811:21816   */\n      dup3\n        /* \"#utility.yul\":21758:21825   */\n      tag_171\n      jump\t// in\n    tag_379:\n        /* \"#utility.yul\":21752:21756   */\n      dup7\n        /* \"#utility.yul\":21745:21826   */\n      sstore\n        /* \"#utility.yul\":21614:21836   */\n      pop\n        /* \"#utility.yul\":20949:21836   */\n      jump(tag_376)\n        /* \"#utility.yul\":20979:21597   */\n    tag_377:\n        /* \"#utility.yul\":21031:21035   */\n      0x1f\n        /* \"#utility.yul\":21027:21036   */\n      not\n        /* \"#utility.yul\":21019:21025   */\n      dup5\n        /* \"#utility.yul\":21015:21037   */\n      and\n        /* \"#utility.yul\":21065:21102   */\n      tag_380\n        /* \"#utility.yul\":21097:21101   */\n      dup7\n        /* \"#utility.yul\":21065:21102   */\n      tag_157\n      jump\t// in\n    tag_380:\n        /* \"#utility.yul\":21124:21125   */\n      0x00\n        /* \"#utility.yul\":21138:21346   */\n    tag_381:\n        /* \"#utility.yul\":21152:21159   */\n      dup3\n        /* \"#utility.yul\":21149:21150   */\n      dup2\n        /* \"#utility.yul\":21146:21160   */\n      lt\n        /* \"#utility.yul\":21138:21346   */\n      iszero\n      tag_383\n      jumpi\n        /* \"#utility.yul\":21231:21240   */\n      dup5\n        /* \"#utility.yul\":21226:21229   */\n      dup10\n        /* \"#utility.yul\":21222:21241   */\n      add\n        /* \"#utility.yul\":21216:21242   */\n      mload\n        /* \"#utility.yul\":21208:21214   */\n      dup3\n        /* \"#utility.yul\":21201:21243   */\n      sstore\n        /* \"#utility.yul\":21282:21283   */\n      0x01\n        /* \"#utility.yul\":21274:21280   */\n      dup3\n        /* \"#utility.yul\":21270:21284   */\n      add\n        /* \"#utility.yul\":21260:21284   */\n      swap2\n      pop\n        /* \"#utility.yul\":21329:21331   */\n      0x20\n        /* \"#utility.yul\":21318:21327   */\n      dup6\n        /* \"#utility.yul\":21314:21332   */\n      add\n        /* \"#utility.yul\":21301:21332   */\n      swap5\n      pop\n        /* \"#utility.yul\":21175:21179   */\n      0x20\n        /* \"#utility.yul\":21172:21173   */\n      dup2\n        /* \"#utility.yul\":21168:21180   */\n      add\n        /* \"#utility.yul\":21163:21180   */\n      swap1\n      pop\n        /* \"#utility.yul\":21138:21346   */\n      jump(tag_381)\n    tag_383:\n        /* \"#utility.yul\":21374:21380   */\n      dup7\n        /* \"#utility.yul\":21365:21372   */\n      dup4\n        /* \"#utility.yul\":21362:21381   */\n      lt\n        /* \"#utility.yul\":21359:21538   */\n      iszero\n      tag_384\n      jumpi\n        /* \"#utility.yul\":21432:21441   */\n      dup5\n        /* \"#utility.yul\":21427:21430   */\n      dup10\n        /* \"#utility.yul\":21423:21442   */\n      add\n        /* \"#utility.yul\":21417:21443   */\n      mload\n        /* \"#utility.yul\":21475:21523   */\n      tag_385\n        /* \"#utility.yul\":21517:21521   */\n      0x1f\n        /* \"#utility.yul\":21509:21515   */\n      dup10\n        /* \"#utility.yul\":21505:21522   */\n      and\n        /* \"#utility.yul\":21494:21503   */\n      dup3\n        /* \"#utility.yul\":21475:21523   */\n      tag_170\n      jump\t// in\n    tag_385:\n        /* \"#utility.yul\":21467:21473   */\n      dup4\n        /* \"#utility.yul\":21460:21524   */\n      sstore\n        /* \"#utility.yul\":21382:21538   */\n      pop\n        /* \"#utility.yul\":21359:21538   */\n    tag_384:\n        /* \"#utility.yul\":21584:21585   */\n      0x01\n        /* \"#utility.yul\":21580:21581   */\n      0x02\n        /* \"#utility.yul\":21572:21578   */\n      dup9\n        /* \"#utility.yul\":21568:21582   */\n      mul\n        /* \"#utility.yul\":21564:21586   */\n      add\n        /* \"#utility.yul\":21558:21562   */\n      dup9\n        /* \"#utility.yul\":21551:21587   */\n      sstore\n        /* \"#utility.yul\":20986:21597   */\n      pop\n      pop\n      pop\n        /* \"#utility.yul\":20949:21836   */\n    tag_376:\n      pop\n        /* \"#utility.yul\":20539:21842   */\n      pop\n      pop\n      pop\n        /* \"#utility.yul\":20447:21842   */\n      pop\n      pop\n      jump\t// out\n\n    auxdata: 0xa2646970667358221220ccebe478e308d190fdaf8b191c51f65088ec8041626e2669ae5358c719a9627664736f6c634300081e0033\n}\n",
				"bytecode": {
					"linkReferences": {},
					"object": "60a060405260015f553480156012575f5ffd5b503373ffffffffffffffffffffffffffffffffffffffff1660808173ffffffffffffffffffffffffffffffffffffffff16815250506080516116f461006d5f395f81816101e20152818161027401526107f501526116f45ff3fe60806040526004361061006f575f3560e01c8063429cad861161004d578063429cad86146100ef5780637476452a1461010b578063f851a44014610147578063fc5f2b78146101715761006f565b806313bd20e2146100735780633a4b4532146100af5780633ccfd60b146100d9575b5f5ffd5b34801561007e575f5ffd5b5061009960048036038101906100949190610d98565b610199565b6040516100a69190610e0c565b60405180910390f35b3480156100ba575f5ffd5b506100c36101db565b6040516100d09190610e3d565b60405180910390f35b3480156100e4575f5ffd5b506100ed6101e0565b005b61010960048036038101906101049190610eb3565b6102d9565b005b348015610116575f5ffd5b50610131600480360381019061012c9190610eb3565b610627565b60405161013e9190610fc9565b60405180910390f35b348015610152575f5ffd5b5061015b6107f3565b6040516101689190610ff8565b60405180910390f35b34801561017c575f5ffd5b506101976004803603810190610192919061103b565b610817565b005b600282805160208101820180518482526020830160208501208183528095505050505050602052805f5260405f205f915091509054906101000a900460ff1681565b5f5481565b7f000000000000000000000000000000000000000000000000000000000000000073ffffffffffffffffffffffffffffffffffffffff163373ffffffffffffffffffffffffffffffffffffffff161461026e576040517f08c379a000000000000000000000000000000000000000000000000000000000815260040161026590611126565b60405180910390fd5b5f4790507f000000000000000000000000000000000000000000000000000000000000000073ffffffffffffffffffffffffffffffffffffffff166108fc8290811502906040515f60405180830381858888f193505050501580156102d5573d5f5f3e3d5ffd5b5050565b5f600183836040516102ec929190611172565b90815260200160405180910390206040518060600160405290815f82018054610314906111b7565b80601f0160208091040260200160405190810160405280929190818152602001828054610340906111b7565b801561038b5780601f106103625761010080835404028352916020019161038b565b820191905f5260205f20905b81548152906001019060200180831161036e57829003601f168201915b50505050508152602001600182015f9054906101000a900473ffffffffffffffffffffffffffffffffffffffff1673ffffffffffffffffffffffffffffffffffffffff1673ffffffffffffffffffffffffffffffffffffffff16815260200160028201548152505090505f73ffffffffffffffffffffffffffffffffffffffff16816020015173ffffffffffffffffffffffffffffffffffffffff1603610467576040517f08c379a000000000000000000000000000000000000000000000000000000000815260040161045e90611231565b60405180910390fd5b5f15156002848460405161047c929190611172565b90815260200160405180910390205f3373ffffffffffffffffffffffffffffffffffffffff1673ffffffffffffffffffffffffffffffffffffffff1681526020019081526020015f205f9054906101000a900460ff16151514610514576040517f08c379a000000000000000000000000000000000000000000000000000000000815260040161050b90611299565b60405180910390fd5b806040015134101561055b576040517f08c379a000000000000000000000000000000000000000000000000000000000815260040161055290611301565b60405180910390fd5b60016002848460405161056f929190611172565b90815260200160405180910390205f3373ffffffffffffffffffffffffffffffffffffffff1673ffffffffffffffffffffffffffffffffffffffff1681526020019081526020015f205f6101000a81548160ff021916908315150217905550806020015173ffffffffffffffffffffffffffffffffffffffff166108fc5f54346105f9919061134c565b90811502906040515f60405180830381858888f19350505050158015610621573d5f5f3e3d5ffd5b50505050565b61062f610bbc565b5f60018484604051610642929190611172565b90815260200160405180910390206040518060600160405290815f8201805461066a906111b7565b80601f0160208091040260200160405190810160405280929190818152602001828054610696906111b7565b80156106e15780601f106106b8576101008083540402835291602001916106e1565b820191905f5260205f20905b8154815290600101906020018083116106c457829003601f168201915b50505050508152602001600182015f9054906101000a900473ffffffffffffffffffffffffffffffffffffffff1673ffffffffffffffffffffffffffffffffffffffff1673ffffffffffffffffffffffffffffffffffffffff16815260200160028201548152505090505f81604001510361075f57809150506107ed565b5f151560028585604051610774929190611172565b90815260200160405180910390205f3373ffffffffffffffffffffffffffffffffffffffff1673ffffffffffffffffffffffffffffffffffffffff1681526020019081526020015f205f9054906101000a900460ff161515036107e85760405180602001604052805f815250815f01819052505b809150505b92915050565b7f000000000000000000000000000000000000000000000000000000000000000081565b5f6001848460405161082a929190611172565b90815260200160405180910390206040518060600160405290815f82018054610852906111b7565b80601f016020809104026020016040519081016040528092919081815260200182805461087e906111b7565b80156108c95780601f106108a0576101008083540402835291602001916108c9565b820191905f5260205f20905b8154815290600101906020018083116108ac57829003601f168201915b50505050508152602001600182015f9054906101000a900473ffffffffffffffffffffffffffffffffffffffff1673ffffffffffffffffffffffffffffffffffffffff1673ffffffffffffffffffffffffffffffffffffffff16815260200160028201548152505090505f73ffffffffffffffffffffffffffffffffffffffff16816020015173ffffffffffffffffffffffffffffffffffffffff1614806109a057503373ffffffffffffffffffffffffffffffffffffffff16816020015173ffffffffffffffffffffffffffffffffffffffff16145b6109df576040517f08c379a00000000000000000000000000000000000000000000000000000000081526004016109d6906113c9565b60405180910390fd5b5f8214806109ed57505f5482115b610a2c576040517f08c379a0000000000000000000000000000000000000000000000000000000008152600401610a2390611431565b60405180910390fd5b85858080601f0160208091040260200160405190810160405280939291908181526020018383808284375f81840152601f19601f82011690508083019250505050505050815f01819052508181604001818152505033816020019073ffffffffffffffffffffffffffffffffffffffff16908173ffffffffffffffffffffffffffffffffffffffff16815250508060018585604051610acc929190611172565b90815260200160405180910390205f820151815f019081610aed91906115ef565b506020820151816001015f6101000a81548173ffffffffffffffffffffffffffffffffffffffff021916908373ffffffffffffffffffffffffffffffffffffffff16021790555060408201518160020155905050600160028585604051610b55929190611172565b90815260200160405180910390205f3373ffffffffffffffffffffffffffffffffffffffff1673ffffffffffffffffffffffffffffffffffffffff1681526020019081526020015f205f6101000a81548160ff021916908315150217905550505050505050565b6040518060600160405280606081526020015f73ffffffffffffffffffffffffffffffffffffffff1681526020015f81525090565b5f604051905090565b5f5ffd5b5f5ffd5b5f5ffd5b5f5ffd5b5f601f19601f8301169050919050565b7f4e487b71000000000000000000000000000000000000000000000000000000005f52604160045260245ffd5b610c5082610c0a565b810181811067ffffffffffffffff82111715610c6f57610c6e610c1a565b5b80604052505050565b5f610c81610bf1565b9050610c8d8282610c47565b919050565b5f67ffffffffffffffff821115610cac57610cab610c1a565b5b610cb582610c0a565b9050602081019050919050565b828183375f83830152505050565b5f610ce2610cdd84610c92565b610c78565b905082815260208101848484011115610cfe57610cfd610c06565b5b610d09848285610cc2565b509392505050565b5f82601f830112610d2557610d24610c02565b5b8135610d35848260208601610cd0565b91505092915050565b5f73ffffffffffffffffffffffffffffffffffffffff82169050919050565b5f610d6782610d3e565b9050919050565b610d7781610d5d565b8114610d81575f5ffd5b50565b5f81359050610d9281610d6e565b92915050565b5f5f60408385031215610dae57610dad610bfa565b5b5f83013567ffffffffffffffff811115610dcb57610dca610bfe565b5b610dd785828601610d11565b9250506020610de885828601610d84565b9150509250929050565b5f8115159050919050565b610e0681610df2565b82525050565b5f602082019050610e1f5f830184610dfd565b92915050565b5f819050919050565b610e3781610e25565b82525050565b5f602082019050610e505f830184610e2e565b92915050565b5f5ffd5b5f5ffd5b5f5f83601f840112610e7357610e72610c02565b5b8235905067ffffffffffffffff811115610e9057610e8f610e56565b5b602083019150836001820283011115610eac57610eab610e5a565b5b9250929050565b5f5f60208385031215610ec957610ec8610bfa565b5b5f83013567ffffffffffffffff811115610ee657610ee5610bfe565b5b610ef285828601610e5e565b92509250509250929050565b5f81519050919050565b5f82825260208201905092915050565b8281835e5f83830152505050565b5f610f3082610efe565b610f3a8185610f08565b9350610f4a818560208601610f18565b610f5381610c0a565b840191505092915050565b610f6781610d5d565b82525050565b610f7681610e25565b82525050565b5f606083015f8301518482035f860152610f968282610f26565b9150506020830151610fab6020860182610f5e565b506040830151610fbe6040860182610f6d565b508091505092915050565b5f6020820190508181035f830152610fe18184610f7c565b905092915050565b610ff281610d5d565b82525050565b5f60208201905061100b5f830184610fe9565b92915050565b61101a81610e25565b8114611024575f5ffd5b50565b5f8135905061103581611011565b92915050565b5f5f5f5f5f6060868803121561105457611053610bfa565b5b5f86013567ffffffffffffffff81111561107157611070610bfe565b5b61107d88828901610e5e565b9550955050602086013567ffffffffffffffff8111156110a05761109f610bfe565b5b6110ac88828901610e5e565b935093505060406110bf88828901611027565b9150509295509295909350565b5f82825260208201905092915050565b7f4163636573732064656e696564000000000000000000000000000000000000005f82015250565b5f611110600d836110cc565b915061111b826110dc565b602082019050919050565b5f6020820190508181035f83015261113d81611104565b9050919050565b5f81905092915050565b5f6111598385611144565b9350611166838584610cc2565b82840190509392505050565b5f61117e82848661114e565b91508190509392505050565b7f4e487b71000000000000000000000000000000000000000000000000000000005f52602260045260245ffd5b5f60028204905060018216806111ce57607f821691505b6020821081036111e1576111e061118a565b5b50919050565b7f4c696e6b206e6f7420666f756e640000000000000000000000000000000000005f82015250565b5f61121b600e836110cc565b9150611226826111e7565b602082019050919050565b5f6020820190508181035f8301526112488161120f565b9050919050565b7f596f7520616c72656164792068617665206163636573730000000000000000005f82015250565b5f6112836017836110cc565b915061128e8261124f565b602082019050919050565b5f6020820190508181035f8301526112b081611277565b9050919050565b7f496e73756666696369656e74207061796d656e740000000000000000000000005f82015250565b5f6112eb6014836110cc565b91506112f6826112b7565b602082019050919050565b5f6020820190508181035f830152611318816112df565b9050919050565b7f4e487b71000000000000000000000000000000000000000000000000000000005f52601160045260245ffd5b5f61135682610e25565b915061136183610e25565b92508282039050818111156113795761137861131f565b5b92915050565b7f54686973206c696e6b496420616c72656164792068617320616e206f776e65725f82015250565b5f6113b36020836110cc565b91506113be8261137f565b602082019050919050565b5f6020820190508181035f8301526113e0816113a7565b9050919050565b7f466565206d757374206265206d6f7265207468616e20636f6d697373696f6e005f82015250565b5f61141b601f836110cc565b9150611426826113e7565b602082019050919050565b5f6020820190508181035f8301526114488161140f565b9050919050565b5f819050815f5260205f209050919050565b5f6020601f8301049050919050565b5f82821b905092915050565b5f600883026114ab7fffffffffffffffffffffffffffffffffffffffffffffffffffffffffffffffff82611470565b6114b58683611470565b95508019841693508086168417925050509392505050565b5f819050919050565b5f6114f06114eb6114e684610e25565b6114cd565b610e25565b9050919050565b5f819050919050565b611509836114d6565b61151d611515826114f7565b84845461147c565b825550505050565b5f5f905090565b611534611525565b61153f818484611500565b505050565b5b81811015611562576115575f8261152c565b600181019050611545565b5050565b601f8211156115a7576115788161144f565b61158184611461565b81016020851015611590578190505b6115a461159c85611461565b830182611544565b50505b505050565b5f82821c905092915050565b5f6115c75f19846008026115ac565b1980831691505092915050565b5f6115df83836115b8565b9150826002028217905092915050565b6115f882610efe565b67ffffffffffffffff81111561161157611610610c1a565b5b61161b82546111b7565b611626828285611566565b5f60209050601f831160018114611657575f8415611645578287015190505b61164f85826115d4565b8655506116b6565b601f1984166116658661144f565b5f5b8281101561168c57848901518255600182019150602085019450602081019050611667565b868310156116a957848901516116a5601f8916826115b8565b8355505b6001600288020188555050505b50505050505056fea2646970667358221220ccebe478e308d190fdaf8b191c51f65088ec8041626e2669ae5358c719a9627664736f6c634300081e0033",
					"opcodes": "PUSH1 0xA0 PUSH1 0x40 MSTORE PUSH1 0x1 PUSH0 SSTORE CALLVALUE DUP1 ISZERO PUSH1 0x12 JUMPI PUSH0 PUSH0 REVERT JUMPDEST POP CALLER PUSH20 0xFFFFFFFFFFFFFFFFFFFFFFFFFFFFFFFFFFFFFFFF AND PUSH1 0x80 DUP2 PUSH20 0xFFFFFFFFFFFFFFFFFFFFFFFFFFFFFFFFFFFFFFFF AND DUP2 MSTORE POP POP PUSH1 0x80 MLOAD PUSH2 0x16F4 PUSH2 0x6D PUSH0 CODECOPY PUSH0 DUP2 DUP2 PUSH2 0x1E2 ADD MSTORE DUP2 DUP2 PUSH2 0x274 ADD MSTORE PUSH2 0x7F5 ADD MSTORE PUSH2 0x16F4 PUSH0 RETURN INVALID PUSH1 0x80 PUSH1 0x40 MSTORE PUSH1 0x4 CALLDATASIZE LT PUSH2 0x6F JUMPI PUSH0 CALLDATALOAD PUSH1 0xE0 SHR DUP1 PUSH4 0x429CAD86 GT PUSH2 0x4D JUMPI DUP1 PUSH4 0x429CAD86 EQ PUSH2 0xEF JUMPI DUP1 PUSH4 0x7476452A EQ PUSH2 0x10B JUMPI DUP1 PUSH4 0xF851A440 EQ PUSH2 0x147 JUMPI DUP1 PUSH4 0xFC5F2B78 EQ PUSH2 0x171 JUMPI PUSH2 0x6F JUMP JUMPDEST DUP1 PUSH4 0x13BD20E2 EQ PUSH2 0x73 JUMPI DUP1 PUSH4 0x3A4B4532 EQ PUSH2 0xAF JUMPI DUP1 PUSH4 0x3CCFD60B EQ PUSH2 0xD9 JUMPI JUMPDEST PUSH0 PUSH0 REVERT JUMPDEST CALLVALUE DUP1 ISZERO PUSH2 0x7E JUMPI PUSH0 PUSH0 REVERT JUMPDEST POP PUSH2 0x99 PUSH1 0x4 DUP1 CALLDATASIZE SUB DUP2 ADD SWAP1 PUSH2 0x94 SWAP2 SWAP1 PUSH2 0xD98 JUMP JUMPDEST PUSH2 0x199 JUMP JUMPDEST PUSH1 0x40 MLOAD PUSH2 0xA6 SWAP2 SWAP1 PUSH2 0xE0C JUMP JUMPDEST PUSH1 0x40 MLOAD DUP1 SWAP2 SUB SWAP1 RETURN JUMPDEST CALLVALUE DUP1 ISZERO PUSH2 0xBA JUMPI PUSH0 PUSH0 REVERT JUMPDEST POP PUSH2 0xC3 PUSH2 0x1DB JUMP JUMPDEST PUSH1 0x40 MLOAD PUSH2 0xD0 SWAP2 SWAP1 PUSH2 0xE3D JUMP JUMPDEST PUSH1 0x40 MLOAD DUP1 SWAP2 SUB SWAP1 RETURN JUMPDEST CALLVALUE DUP1 ISZERO PUSH2 0xE4 JUMPI PUSH0 PUSH0 REVERT JUMPDEST POP PUSH2 0xED PUSH2 0x1E0 JUMP JUMPDEST STOP JUMPDEST PUSH2 0x109 PUSH1 0x4 DUP1 CALLDATASIZE SUB DUP2 ADD SWAP1 PUSH2 0x104 SWAP2 SWAP1 PUSH2 0xEB3 JUMP JUMPDEST PUSH2 0x2D9 JUMP JUMPDEST STOP JUMPDEST CALLVALUE DUP1 ISZERO PUSH2 0x116 JUMPI PUSH0 PUSH0 REVERT JUMPDEST POP PUSH2 0x131 PUSH1 0x4 DUP1 CALLDATASIZE SUB DUP2 ADD SWAP1 PUSH2 0x12C SWAP2 SWAP1 PUSH2 0xEB3 JUMP JUMPDEST PUSH2 0x627 JUMP JUMPDEST PUSH1 0x40 MLOAD PUSH2 0x13E SWAP2 SWAP1 PUSH2 0xFC9 JUMP JUMPDEST PUSH1 0x40 MLOAD DUP1 SWAP2 SUB SWAP1 RETURN JUMPDEST CALLVALUE DUP1 ISZERO PUSH2 0x152 JUMPI PUSH0 PUSH0 REVERT JUMPDEST POP PUSH2 0x15B PUSH2 0x7F3 JUMP JUMPDEST PUSH1 0x40 MLOAD PUSH2 0x168 SWAP2 SWAP1 PUSH2 0xFF8 JUMP JUMPDEST PUSH1 0x40 MLOAD DUP1 SWAP2 SUB SWAP1 RETURN JUMPDEST CALLVALUE DUP1 ISZERO PUSH2 0x17C JUMPI PUSH0 PUSH0 REVERT JUMPDEST POP PUSH2 0x197 PUSH1 0x4 DUP1 CALLDATASIZE SUB DUP2 ADD SWAP1 PUSH2 0x192 SWAP2 SWAP1 PUSH2 0x103B JUMP JUMPDEST PUSH2 0x817 JUMP JUMPDEST STOP JUMPDEST PUSH1 0x2 DUP3 DUP1 MLOAD PUSH1 0x20 DUP2 ADD DUP3 ADD DUP1 MLOAD DUP5 DUP3 MSTORE PUSH1 0x20 DUP4 ADD PUSH1 0x20 DUP6 ADD KECCAK256 DUP2 DUP4 MSTORE DUP1 SWAP6 POP POP POP POP POP POP PUSH1 0x20 MSTORE DUP1 PUSH0 MSTORE PUSH1 0x40 PUSH0 KECCAK256 PUSH0 SWAP2 POP SWAP2 POP SWAP1 SLOAD SWAP1 PUSH2 0x100 EXP SWAP1 DIV PUSH1 0xFF AND DUP2 JUMP JUMPDEST PUSH0 SLOAD DUP2 JUMP JUMPDEST PUSH32 0x0 PUSH20 0xFFFFFFFFFFFFFFFFFFFFFFFFFFFFFFFFFFFFFFFF AND CALLER PUSH20 0xFFFFFFFFFFFFFFFFFFFFFFFFFFFFFFFFFFFFFFFF AND EQ PUSH2 0x26E JUMPI PUSH1 0x40 MLOAD PUSH32 0x8C379A000000000000000000000000000000000000000000000000000000000 DUP2 MSTORE PUSH1 0x4 ADD PUSH2 0x265 SWAP1 PUSH2 0x1126 JUMP JUMPDEST PUSH1 0x40 MLOAD DUP1 SWAP2 SUB SWAP1 REVERT JUMPDEST PUSH0 SELFBALANCE SWAP1 POP PUSH32 0x0 PUSH20 0xFFFFFFFFFFFFFFFFFFFFFFFFFFFFFFFFFFFFFFFF AND PUSH2 0x8FC DUP3 SWAP1 DUP2 ISZERO MUL SWAP1 PUSH1 0x40 MLOAD PUSH0 PUSH1 0x40 MLOAD DUP1 DUP4 SUB DUP2 DUP6 DUP9 DUP9 CALL SWAP4 POP POP POP POP ISZERO DUP1 ISZERO PUSH2 0x2D5 JUMPI RETURNDATASIZE PUSH0 PUSH0 RETURNDATACOPY RETURNDATASIZE PUSH0 REVERT JUMPDEST POP POP JUMP JUMPDEST PUSH0 PUSH1 0x1 DUP4 DUP4 PUSH1 0x40 MLOAD PUSH2 0x2EC SWAP3 SWAP2 SWAP1 PUSH2 0x1172 JUMP JUMPDEST SWAP1 DUP2 MSTORE PUSH1 0x20 ADD PUSH1 0x40 MLOAD DUP1 SWAP2 SUB SWAP1 KECCAK256 PUSH1 0x40 MLOAD DUP1 PUSH1 0x60 ADD PUSH1 0x40 MSTORE SWAP1 DUP2 PUSH0 DUP3 ADD DUP1 SLOAD PUSH2 0x314 SWAP1 PUSH2 0x11B7 JUMP JUMPDEST DUP1 PUSH1 0x1F ADD PUSH1 0x20 DUP1 SWAP2 DIV MUL PUSH1 0x20 ADD PUSH1 0x40 MLOAD SWAP1 DUP2 ADD PUSH1 0x40 MSTORE DUP1 SWAP3 SWAP2 SWAP1 DUP2 DUP2 MSTORE PUSH1 0x20 ADD DUP3 DUP1 SLOAD PUSH2 0x340 SWAP1 PUSH2 0x11B7 JUMP JUMPDEST DUP1 ISZERO PUSH2 0x38B JUMPI DUP1 PUSH1 0x1F LT PUSH2 0x362 JUMPI PUSH2 0x100 DUP1 DUP4 SLOAD DIV MUL DUP4 MSTORE SWAP2 PUSH1 0x20 ADD SWAP2 PUSH2 0x38B JUMP JUMPDEST DUP3 ADD SWAP2 SWAP1 PUSH0 MSTORE PUSH1 0x20 PUSH0 KECCAK256 SWAP1 JUMPDEST DUP2 SLOAD DUP2 MSTORE SWAP1 PUSH1 0x1 ADD SWAP1 PUSH1 0x20 ADD DUP1 DUP4 GT PUSH2 0x36E JUMPI DUP3 SWAP1 SUB PUSH1 0x1F AND DUP3 ADD SWAP2 JUMPDEST POP POP POP POP POP DUP2 MSTORE PUSH1 0x20 ADD PUSH1 0x1 DUP3 ADD PUSH0 SWAP1 SLOAD SWAP1 PUSH2 0x100 EXP SWAP1 DIV PUSH20 0xFFFFFFFFFFFFFFFFFFFFFFFFFFFFFFFFFFFFFFFF AND PUSH20 0xFFFFFFFFFFFFFFFFFFFFFFFFFFFFFFFFFFFFFFFF AND PUSH20 0xFFFFFFFFFFFFFFFFFFFFFFFFFFFFFFFFFFFFFFFF AND DUP2 MSTORE PUSH1 0x20 ADD PUSH1 0x2 DUP3 ADD SLOAD DUP2 MSTORE POP POP SWAP1 POP PUSH0 PUSH20 0xFFFFFFFFFFFFFFFFFFFFFFFFFFFFFFFFFFFFFFFF AND DUP2 PUSH1 0x20 ADD MLOAD PUSH20 0xFFFFFFFFFFFFFFFFFFFFFFFFFFFFFFFFFFFFFFFF AND SUB PUSH2 0x467 JUMPI PUSH1 0x40 MLOAD PUSH32 0x8C379A000000000000000000000000000000000000000000000000000000000 DUP2 MSTORE PUSH1 0x4 ADD PUSH2 0x45E SWAP1 PUSH2 0x1231 JUMP JUMPDEST PUSH1 0x40 MLOAD DUP1 SWAP2 SUB SWAP1 REVERT JUMPDEST PUSH0 ISZERO ISZERO PUSH1 0x2 DUP5 DUP5 PUSH1 0x40 MLOAD PUSH2 0x47C SWAP3 SWAP2 SWAP1 PUSH2 0x1172 JUMP JUMPDEST SWAP1 DUP2 MSTORE PUSH1 0x20 ADD PUSH1 0x40 MLOAD DUP1 SWAP2 SUB SWAP1 KECCAK256 PUSH0 CALLER PUSH20 0xFFFFFFFFFFFFFFFFFFFFFFFFFFFFFFFFFFFFFFFF AND PUSH20 0xFFFFFFFFFFFFFFFFFFFFFFFFFFFFFFFFFFFFFFFF AND DUP2 MSTORE PUSH1 0x20 ADD SWAP1 DUP2 MSTORE PUSH1 0x20 ADD PUSH0 KECCAK256 PUSH0 SWAP1 SLOAD SWAP1 PUSH2 0x100 EXP SWAP1 DIV PUSH1 0xFF AND ISZERO ISZERO EQ PUSH2 0x514 JUMPI PUSH1 0x40 MLOAD PUSH32 0x8C379A000000000000000000000000000000000000000000000000000000000 DUP2 MSTORE PUSH1 0x4 ADD PUSH2 0x50B SWAP1 PUSH2 0x1299 JUMP JUMPDEST PUSH1 0x40 MLOAD DUP1 SWAP2 SUB SWAP1 REVERT JUMPDEST DUP1 PUSH1 0x40 ADD MLOAD CALLVALUE LT ISZERO PUSH2 0x55B JUMPI PUSH1 0x40 MLOAD PUSH32 0x8C379A000000000000000000000000000000000000000000000000000000000 DUP2 MSTORE PUSH1 0x4 ADD PUSH2 0x552 SWAP1 PUSH2 0x1301 JUMP JUMPDEST PUSH1 0x40 MLOAD DUP1 SWAP2 SUB SWAP1 REVERT JUMPDEST PUSH1 0x1 PUSH1 0x2 DUP5 DUP5 PUSH1 0x40 MLOAD PUSH2 0x56F SWAP3 SWAP2 SWAP1 PUSH2 0x1172 JUMP JUMPDEST SWAP1 DUP2 MSTORE PUSH1 0x20 ADD PUSH1 0x40 MLOAD DUP1 SWAP2 SUB SWAP1 KECCAK256 PUSH0 CALLER PUSH20 0xFFFFFFFFFFFFFFFFFFFFFFFFFFFFFFFFFFFFFFFF AND PUSH20 0xFFFFFFFFFFFFFFFFFFFFFFFFFFFFFFFFFFFFFFFF AND DUP2 MSTORE PUSH1 0x20 ADD SWAP1 DUP2 MSTORE PUSH1 0x20 ADD PUSH0 KECCAK256 PUSH0 PUSH2 0x100 EXP DUP2 SLOAD DUP2 PUSH1 0xFF MUL NOT AND SWAP1 DUP4 ISZERO ISZERO MUL OR SWAP1 SSTORE POP DUP1 PUSH1 0x20 ADD MLOAD PUSH20 0xFFFFFFFFFFFFFFFFFFFFFFFFFFFFFFFFFFFFFFFF AND PUSH2 0x8FC PUSH0 SLOAD CALLVALUE PUSH2 0x5F9 SWAP2 SWAP1 PUSH2 0x134C JUMP JUMPDEST SWAP1 DUP2 ISZERO MUL SWAP1 PUSH1 0x40 MLOAD PUSH0 PUSH1 0x40 MLOAD DUP1 DUP4 SUB DUP2 DUP6 DUP9 DUP9 CALL SWAP4 POP POP POP POP ISZERO DUP1 ISZERO PUSH2 0x621 JUMPI RETURNDATASIZE PUSH0 PUSH0 RETURNDATACOPY RETURNDATASIZE PUSH0 REVERT JUMPDEST POP POP POP POP JUMP JUMPDEST PUSH2 0x62F PUSH2 0xBBC JUMP JUMPDEST PUSH0 PUSH1 0x1 DUP5 DUP5 PUSH1 0x40 MLOAD PUSH2 0x642 SWAP3 SWAP2 SWAP1 PUSH2 0x1172 JUMP JUMPDEST SWAP1 DUP2 MSTORE PUSH1 0x20 ADD PUSH1 0x40 MLOAD DUP1 SWAP2 SUB SWAP1 KECCAK256 PUSH1 0x40 MLOAD DUP1 PUSH1 0x60 ADD PUSH1 0x40 MSTORE SWAP1 DUP2 PUSH0 DUP3 ADD DUP1 SLOAD PUSH2 0x66A SWAP1 PUSH2 0x11B7 JUMP JUMPDEST DUP1 PUSH1 0x1F ADD PUSH1 0x20 DUP1 SWAP2 DIV MUL PUSH1 0x20 ADD PUSH1 0x40 MLOAD SWAP1 DUP2 ADD PUSH1 0x40 MSTORE DUP1 SWAP3 SWAP2 SWAP1 DUP2 DUP2 MSTORE PUSH1 0x20 ADD DUP3 DUP1 SLOAD PUSH2 0x696 SWAP1 PUSH2 0x11B7 JUMP JUMPDEST DUP1 ISZERO PUSH2 0x6E1 JUMPI DUP1 PUSH1 0x1F LT PUSH2 0x6B8 JUMPI PUSH2 0x100 DUP1 DUP4 SLOAD DIV MUL DUP4 MSTORE SWAP2 PUSH1 0x20 ADD SWAP2 PUSH2 0x6E1 JUMP JUMPDEST DUP3 ADD SWAP2 SWAP1 PUSH0 MSTORE PUSH1 0x20 PUSH0 KECCAK256 SWAP1 JUMPDEST DUP2 SLOAD DUP2 MSTORE SWAP1 PUSH1 0x1 ADD SWAP1 PUSH1 0x20 ADD DUP1 DUP4 GT PUSH2 0x6C4 JUMPI DUP3 SWAP1 SUB PUSH1 0x1F AND DUP3 ADD SWAP2 JUMPDEST POP POP POP POP POP DUP2 MSTORE PUSH1 0x20 ADD PUSH1 0x1 DUP3 ADD PUSH0 SWAP1 SLOAD SWAP1 PUSH2 0x100 EXP SWAP1 DIV PUSH20 0xFFFFFFFFFFFFFFFFFFFFFFFFFFFFFFFFFFFFFFFF AND PUSH20 0xFFFFFFFFFFFFFFFFFFFFFFFFFFFFFFFFFFFFFFFF AND PUSH20 0xFFFFFFFFFFFFFFFFFFFFFFFFFFFFFFFFFFFFFFFF AND DUP2 MSTORE PUSH1 0x20 ADD PUSH1 0x2 DUP3 ADD SLOAD DUP2 MSTORE POP POP SWAP1 POP PUSH0 DUP2 PUSH1 0x40 ADD MLOAD SUB PUSH2 0x75F JUMPI DUP1 SWAP2 POP POP PUSH2 0x7ED JUMP JUMPDEST PUSH0 ISZERO ISZERO PUSH1 0x2 DUP6 DUP6 PUSH1 0x40 MLOAD PUSH2 0x774 SWAP3 SWAP2 SWAP1 PUSH2 0x1172 JUMP JUMPDEST SWAP1 DUP2 MSTORE PUSH1 0x20 ADD PUSH1 0x40 MLOAD DUP1 SWAP2 SUB SWAP1 KECCAK256 PUSH0 CALLER PUSH20 0xFFFFFFFFFFFFFFFFFFFFFFFFFFFFFFFFFFFFFFFF AND PUSH20 0xFFFFFFFFFFFFFFFFFFFFFFFFFFFFFFFFFFFFFFFF AND DUP2 MSTORE PUSH1 0x20 ADD SWAP1 DUP2 MSTORE PUSH1 0x20 ADD PUSH0 KECCAK256 PUSH0 SWAP1 SLOAD SWAP1 PUSH2 0x100 EXP SWAP1 DIV PUSH1 0xFF AND ISZERO ISZERO SUB PUSH2 0x7E8 JUMPI PUSH1 0x40 MLOAD DUP1 PUSH1 0x20 ADD PUSH1 0x40 MSTORE DUP1 PUSH0 DUP2 MSTORE POP DUP2 PUSH0 ADD DUP2 SWAP1 MSTORE POP JUMPDEST DUP1 SWAP2 POP POP JUMPDEST SWAP3 SWAP2 POP POP JUMP JUMPDEST PUSH32 0x0 DUP2 JUMP JUMPDEST PUSH0 PUSH1 0x1 DUP5 DUP5 PUSH1 0x40 MLOAD PUSH2 0x82A SWAP3 SWAP2 SWAP1 PUSH2 0x1172 JUMP JUMPDEST SWAP1 DUP2 MSTORE PUSH1 0x20 ADD PUSH1 0x40 MLOAD DUP1 SWAP2 SUB SWAP1 KECCAK256 PUSH1 0x40 MLOAD DUP1 PUSH1 0x60 ADD PUSH1 0x40 MSTORE SWAP1 DUP2 PUSH0 DUP3 ADD DUP1 SLOAD PUSH2 0x852 SWAP1 PUSH2 0x11B7 JUMP JUMPDEST DUP1 PUSH1 0x1F ADD PUSH1 0x20 DUP1 SWAP2 DIV MUL PUSH1 0x20 ADD PUSH1 0x40 MLOAD SWAP1 DUP2 ADD PUSH1 0x40 MSTORE DUP1 SWAP3 SWAP2 SWAP1 DUP2 DUP2 MSTORE PUSH1 0x20 ADD DUP3 DUP1 SLOAD PUSH2 0x87E SWAP1 PUSH2 0x11B7 JUMP JUMPDEST DUP1 ISZERO PUSH2 0x8C9 JUMPI DUP1 PUSH1 0x1F LT PUSH2 0x8A0 JUMPI PUSH2 0x100 DUP1 DUP4 SLOAD DIV MUL DUP4 MSTORE SWAP2 PUSH1 0x20 ADD SWAP2 PUSH2 0x8C9 JUMP JUMPDEST DUP3 ADD SWAP2 SWAP1 PUSH0 MSTORE PUSH1 0x20 PUSH0 KECCAK256 SWAP1 JUMPDEST DUP2 SLOAD DUP2 MSTORE SWAP1 PUSH1 0x1 ADD SWAP1 PUSH1 0x20 ADD DUP1 DUP4 GT PUSH2 0x8AC JUMPI DUP3 SWAP1 SUB PUSH1 0x1F AND DUP3 ADD SWAP2 JUMPDEST POP POP POP POP POP DUP2 MSTORE PUSH1 0x20 ADD PUSH1 0x1 DUP3 ADD PUSH0 SWAP1 SLOAD SWAP1 PUSH2 0x100 EXP SWAP1 DIV PUSH20 0xFFFFFFFFFFFFFFFFFFFFFFFFFFFFFFFFFFFFFFFF AND PUSH20 0xFFFFFFFFFFFFFFFFFFFFFFFFFFFFFFFFFFFFFFFF AND PUSH20 0xFFFFFFFFFFFFFFFFFFFFFFFFFFFFFFFFFFFFFFFF AND DUP2 MSTORE PUSH1 0x20 ADD PUSH1 0x2 DUP3 ADD SLOAD DUP2 MSTORE POP POP SWAP1 POP PUSH0 PUSH20 0xFFFFFFFFFFFFFFFFFFFFFFFFFFFFFFFFFFFFFFFF AND DUP2 PUSH1 0x20 ADD MLOAD PUSH20 0xFFFFFFFFFFFFFFFFFFFFFFFFFFFFFFFFFFFFFFFF AND EQ DUP1 PUSH2 0x9A0 JUMPI POP CALLER PUSH20 0xFFFFFFFFFFFFFFFFFFFFFFFFFFFFFFFFFFFFFFFF AND DUP2 PUSH1 0x20 ADD MLOAD PUSH20 0xFFFFFFFFFFFFFFFFFFFFFFFFFFFFFFFFFFFFFFFF AND EQ JUMPDEST PUSH2 0x9DF JUMPI PUSH1 0x40 MLOAD PUSH32 0x8C379A000000000000000000000000000000000000000000000000000000000 DUP2 MSTORE PUSH1 0x4 ADD PUSH2 0x9D6 SWAP1 PUSH2 0x13C9 JUMP JUMPDEST PUSH1 0x40 MLOAD DUP1 SWAP2 SUB SWAP1 REVERT JUMPDEST PUSH0 DUP3 EQ DUP1 PUSH2 0x9ED JUMPI POP PUSH0 SLOAD DUP3 GT JUMPDEST PUSH2 0xA2C JUMPI PUSH1 0x40 MLOAD PUSH32 0x8C379A000000000000000000000000000000000000000000000000000000000 DUP2 MSTORE PUSH1 0x4 ADD PUSH2 0xA23 SWAP1 PUSH2 0x1431 JUMP JUMPDEST PUSH1 0x40 MLOAD DUP1 SWAP2 SUB SWAP1 REVERT JUMPDEST DUP6 DUP6 DUP1 DUP1 PUSH1 0x1F ADD PUSH1 0x20 DUP1 SWAP2 DIV MUL PUSH1 0x20 ADD PUSH1 0x40 MLOAD SWAP1 DUP2 ADD PUSH1 0x40 MSTORE DUP1 SWAP4 SWAP3 SWAP2 SWAP1 DUP2 DUP2 MSTORE PUSH1 0x20 ADD DUP4 DUP4 DUP1 DUP3 DUP5 CALLDATACOPY PUSH0 DUP2 DUP5 ADD MSTORE PUSH1 0x1F NOT PUSH1 0x1F DUP3 ADD AND SWAP1 POP DUP1 DUP4 ADD SWAP3 POP POP POP POP POP POP POP DUP2 PUSH0 ADD DUP2 SWAP1 MSTORE POP DUP2 DUP2 PUSH1 0x40 ADD DUP2 DUP2 MSTORE POP POP CALLER DUP2 PUSH1 0x20 ADD SWAP1 PUSH20 0xFFFFFFFFFFFFFFFFFFFFFFFFFFFFFFFFFFFFFFFF AND SWAP1 DUP2 PUSH20 0xFFFFFFFFFFFFFFFFFFFFFFFFFFFFFFFFFFFFFFFF AND DUP2 MSTORE POP POP DUP1 PUSH1 0x1 DUP6 DUP6 PUSH1 0x40 MLOAD PUSH2 0xACC SWAP3 SWAP2 SWAP1 PUSH2 0x1172 JUMP JUMPDEST SWAP1 DUP2 MSTORE PUSH1 0x20 ADD PUSH1 0x40 MLOAD DUP1 SWAP2 SUB SWAP1 KECCAK256 PUSH0 DUP3 ADD MLOAD DUP2 PUSH0 ADD SWAP1 DUP2 PUSH2 0xAED SWAP2 SWAP1 PUSH2 0x15EF JUMP JUMPDEST POP PUSH1 0x20 DUP3 ADD MLOAD DUP2 PUSH1 0x1 ADD PUSH0 PUSH2 0x100 EXP DUP2 SLOAD DUP2 PUSH20 0xFFFFFFFFFFFFFFFFFFFFFFFFFFFFFFFFFFFFFFFF MUL NOT AND SWAP1 DUP4 PUSH20 0xFFFFFFFFFFFFFFFFFFFFFFFFFFFFFFFFFFFFFFFF AND MUL OR SWAP1 SSTORE POP PUSH1 0x40 DUP3 ADD MLOAD DUP2 PUSH1 0x2 ADD SSTORE SWAP1 POP POP PUSH1 0x1 PUSH1 0x2 DUP6 DUP6 PUSH1 0x40 MLOAD PUSH2 0xB55 SWAP3 SWAP2 SWAP1 PUSH2 0x1172 JUMP JUMPDEST SWAP1 DUP2 MSTORE PUSH1 0x20 ADD PUSH1 0x40 MLOAD DUP1 SWAP2 SUB SWAP1 KECCAK256 PUSH0 CALLER PUSH20 0xFFFFFFFFFFFFFFFFFFFFFFFFFFFFFFFFFFFFFFFF AND PUSH20 0xFFFFFFFFFFFFFFFFFFFFFFFFFFFFFFFFFFFFFFFF AND DUP2 MSTORE PUSH1 0x20 ADD SWAP1 DUP2 MSTORE PUSH1 0x20 ADD PUSH0 KECCAK256 PUSH0 PUSH2 0x100 EXP DUP2 SLOAD DUP2 PUSH1 0xFF MUL NOT AND SWAP1 DUP4 ISZERO ISZERO MUL OR SWAP1 SSTORE POP POP POP POP POP POP POP JUMP JUMPDEST PUSH1 0x40 MLOAD DUP1 PUSH1 0x60 ADD PUSH1 0x40 MSTORE DUP1 PUSH1 0x60 DUP2 MSTORE PUSH1 0x20 ADD PUSH0 PUSH20 0xFFFFFFFFFFFFFFFFFFFFFFFFFFFFFFFFFFFFFFFF AND DUP2 MSTORE PUSH1 0x20 ADD PUSH0 DUP2 MSTORE POP SWAP1 JUMP JUMPDEST PUSH0 PUSH1 0x40 MLOAD SWAP1 POP SWAP1 JUMP JUMPDEST PUSH0 PUSH0 REVERT JUMPDEST PUSH0 PUSH0 REVERT JUMPDEST PUSH0 PUSH0 REVERT JUMPDEST PUSH0 PUSH0 REVERT JUMPDEST PUSH0 PUSH1 0x1F NOT PUSH1 0x1F DUP4 ADD AND SWAP1 POP SWAP2 SWAP1 POP JUMP JUMPDEST PUSH32 0x4E487B7100000000000000000000000000000000000000000000000000000000 PUSH0 MSTORE PUSH1 0x41 PUSH1 0x4 MSTORE PUSH1 0x24 PUSH0 REVERT JUMPDEST PUSH2 0xC50 DUP3 PUSH2 0xC0A JUMP JUMPDEST DUP2 ADD DUP2 DUP2 LT PUSH8 0xFFFFFFFFFFFFFFFF DUP3 GT OR ISZERO PUSH2 0xC6F JUMPI PUSH2 0xC6E PUSH2 0xC1A JUMP JUMPDEST JUMPDEST DUP1 PUSH1 0x40 MSTORE POP POP POP JUMP JUMPDEST PUSH0 PUSH2 0xC81 PUSH2 0xBF1 JUMP JUMPDEST SWAP1 POP PUSH2 0xC8D DUP3 DUP3 PUSH2 0xC47 JUMP JUMPDEST SWAP2 SWAP1 POP JUMP JUMPDEST PUSH0 PUSH8 0xFFFFFFFFFFFFFFFF DUP3 GT ISZERO PUSH2 0xCAC JUMPI PUSH2 0xCAB PUSH2 0xC1A JUMP JUMPDEST JUMPDEST PUSH2 0xCB5 DUP3 PUSH2 0xC0A JUMP JUMPDEST SWAP1 POP PUSH1 0x20 DUP2 ADD SWAP1 POP SWAP2 SWAP1 POP JUMP JUMPDEST DUP3 DUP2 DUP4 CALLDATACOPY PUSH0 DUP4 DUP4 ADD MSTORE POP POP POP JUMP JUMPDEST PUSH0 PUSH2 0xCE2 PUSH2 0xCDD DUP5 PUSH2 0xC92 JUMP JUMPDEST PUSH2 0xC78 JUMP JUMPDEST SWAP1 POP DUP3 DUP2 MSTORE PUSH1 0x20 DUP2 ADD DUP5 DUP5 DUP5 ADD GT ISZERO PUSH2 0xCFE JUMPI PUSH2 0xCFD PUSH2 0xC06 JUMP JUMPDEST JUMPDEST PUSH2 0xD09 DUP5 DUP3 DUP6 PUSH2 0xCC2 JUMP JUMPDEST POP SWAP4 SWAP3 POP POP POP JUMP JUMPDEST PUSH0 DUP3 PUSH1 0x1F DUP4 ADD SLT PUSH2 0xD25 JUMPI PUSH2 0xD24 PUSH2 0xC02 JUMP JUMPDEST JUMPDEST DUP2 CALLDATALOAD PUSH2 0xD35 DUP5 DUP3 PUSH1 0x20 DUP7 ADD PUSH2 0xCD0 JUMP JUMPDEST SWAP2 POP POP SWAP3 SWAP2 POP POP JUMP JUMPDEST PUSH0 PUSH20 0xFFFFFFFFFFFFFFFFFFFFFFFFFFFFFFFFFFFFFFFF DUP3 AND SWAP1 POP SWAP2 SWAP1 POP JUMP JUMPDEST PUSH0 PUSH2 0xD67 DUP3 PUSH2 0xD3E JUMP JUMPDEST SWAP1 POP SWAP2 SWAP1 POP JUMP JUMPDEST PUSH2 0xD77 DUP2 PUSH2 0xD5D JUMP JUMPDEST DUP2 EQ PUSH2 0xD81 JUMPI PUSH0 PUSH0 REVERT JUMPDEST POP JUMP JUMPDEST PUSH0 DUP2 CALLDATALOAD SWAP1 POP PUSH2 0xD92 DUP2 PUSH2 0xD6E JUMP JUMPDEST SWAP3 SWAP2 POP POP JUMP JUMPDEST PUSH0 PUSH0 PUSH1 0x40 DUP4 DUP6 SUB SLT ISZERO PUSH2 0xDAE JUMPI PUSH2 0xDAD PUSH2 0xBFA JUMP JUMPDEST JUMPDEST PUSH0 DUP4 ADD CALLDATALOAD PUSH8 0xFFFFFFFFFFFFFFFF DUP2 GT ISZERO PUSH2 0xDCB JUMPI PUSH2 0xDCA PUSH2 0xBFE JUMP JUMPDEST JUMPDEST PUSH2 0xDD7 DUP6 DUP3 DUP7 ADD PUSH2 0xD11 JUMP JUMPDEST SWAP3 POP POP PUSH1 0x20 PUSH2 0xDE8 DUP6 DUP3 DUP7 ADD PUSH2 0xD84 JUMP JUMPDEST SWAP2 POP POP SWAP3 POP SWAP3 SWAP1 POP JUMP JUMPDEST PUSH0 DUP2 ISZERO ISZERO SWAP1 POP SWAP2 SWAP1 POP JUMP JUMPDEST PUSH2 0xE06 DUP2 PUSH2 0xDF2 JUMP JUMPDEST DUP3 MSTORE POP POP JUMP JUMPDEST PUSH0 PUSH1 0x20 DUP3 ADD SWAP1 POP PUSH2 0xE1F PUSH0 DUP4 ADD DUP5 PUSH2 0xDFD JUMP JUMPDEST SWAP3 SWAP2 POP POP JUMP JUMPDEST PUSH0 DUP2 SWAP1 POP SWAP2 SWAP1 POP JUMP JUMPDEST PUSH2 0xE37 DUP2 PUSH2 0xE25 JUMP JUMPDEST DUP3 MSTORE POP POP JUMP JUMPDEST PUSH0 PUSH1 0x20 DUP3 ADD SWAP1 POP PUSH2 0xE50 PUSH0 DUP4 ADD DUP5 PUSH2 0xE2E JUMP JUMPDEST SWAP3 SWAP2 POP POP JUMP JUMPDEST PUSH0 PUSH0 REVERT JUMPDEST PUSH0 PUSH0 REVERT JUMPDEST PUSH0 PUSH0 DUP4 PUSH1 0x1F DUP5 ADD SLT PUSH2 0xE73 JUMPI PUSH2 0xE72 PUSH2 0xC02 JUMP JUMPDEST JUMPDEST DUP3 CALLDATALOAD SWAP1 POP PUSH8 0xFFFFFFFFFFFFFFFF DUP2 GT ISZERO PUSH2 0xE90 JUMPI PUSH2 0xE8F PUSH2 0xE56 JUMP JUMPDEST JUMPDEST PUSH1 0x20 DUP4 ADD SWAP2 POP DUP4 PUSH1 0x1 DUP3 MUL DUP4 ADD GT ISZERO PUSH2 0xEAC JUMPI PUSH2 0xEAB PUSH2 0xE5A JUMP JUMPDEST JUMPDEST SWAP3 POP SWAP3 SWAP1 POP JUMP JUMPDEST PUSH0 PUSH0 PUSH1 0x20 DUP4 DUP6 SUB SLT ISZERO PUSH2 0xEC9 JUMPI PUSH2 0xEC8 PUSH2 0xBFA JUMP JUMPDEST JUMPDEST PUSH0 DUP4 ADD CALLDATALOAD PUSH8 0xFFFFFFFFFFFFFFFF DUP2 GT ISZERO PUSH2 0xEE6 JUMPI PUSH2 0xEE5 PUSH2 0xBFE JUMP JUMPDEST JUMPDEST PUSH2 0xEF2 DUP6 DUP3 DUP7 ADD PUSH2 0xE5E JUMP JUMPDEST SWAP3 POP SWAP3 POP POP SWAP3 POP SWAP3 SWAP1 POP JUMP JUMPDEST PUSH0 DUP2 MLOAD SWAP1 POP SWAP2 SWAP1 POP JUMP JUMPDEST PUSH0 DUP3 DUP3 MSTORE PUSH1 0x20 DUP3 ADD SWAP1 POP SWAP3 SWAP2 POP POP JUMP JUMPDEST DUP3 DUP2 DUP4 MCOPY PUSH0 DUP4 DUP4 ADD MSTORE POP POP POP JUMP JUMPDEST PUSH0 PUSH2 0xF30 DUP3 PUSH2 0xEFE JUMP JUMPDEST PUSH2 0xF3A DUP2 DUP6 PUSH2 0xF08 JUMP JUMPDEST SWAP4 POP PUSH2 0xF4A DUP2 DUP6 PUSH1 0x20 DUP7 ADD PUSH2 0xF18 JUMP JUMPDEST PUSH2 0xF53 DUP2 PUSH2 0xC0A JUMP JUMPDEST DUP5 ADD SWAP2 POP POP SWAP3 SWAP2 POP POP JUMP JUMPDEST PUSH2 0xF67 DUP2 PUSH2 0xD5D JUMP JUMPDEST DUP3 MSTORE POP POP JUMP JUMPDEST PUSH2 0xF76 DUP2 PUSH2 0xE25 JUMP JUMPDEST DUP3 MSTORE POP POP JUMP JUMPDEST PUSH0 PUSH1 0x60 DUP4 ADD PUSH0 DUP4 ADD MLOAD DUP5 DUP3 SUB PUSH0 DUP7 ADD MSTORE PUSH2 0xF96 DUP3 DUP3 PUSH2 0xF26 JUMP JUMPDEST SWAP2 POP POP PUSH1 0x20 DUP4 ADD MLOAD PUSH2 0xFAB PUSH1 0x20 DUP7 ADD DUP3 PUSH2 0xF5E JUMP JUMPDEST POP PUSH1 0x40 DUP4 ADD MLOAD PUSH2 0xFBE PUSH1 0x40 DUP7 ADD DUP3 PUSH2 0xF6D JUMP JUMPDEST POP DUP1 SWAP2 POP POP SWAP3 SWAP2 POP POP JUMP JUMPDEST PUSH0 PUSH1 0x20 DUP3 ADD SWAP1 POP DUP2 DUP2 SUB PUSH0 DUP4 ADD MSTORE PUSH2 0xFE1 DUP2 DUP5 PUSH2 0xF7C JUMP JUMPDEST SWAP1 POP SWAP3 SWAP2 POP POP JUMP JUMPDEST PUSH2 0xFF2 DUP2 PUSH2 0xD5D JUMP JUMPDEST DUP3 MSTORE POP POP JUMP JUMPDEST PUSH0 PUSH1 0x20 DUP3 ADD SWAP1 POP PUSH2 0x100B PUSH0 DUP4 ADD DUP5 PUSH2 0xFE9 JUMP JUMPDEST SWAP3 SWAP2 POP POP JUMP JUMPDEST PUSH2 0x101A DUP2 PUSH2 0xE25 JUMP JUMPDEST DUP2 EQ PUSH2 0x1024 JUMPI PUSH0 PUSH0 REVERT JUMPDEST POP JUMP JUMPDEST PUSH0 DUP2 CALLDATALOAD SWAP1 POP PUSH2 0x1035 DUP2 PUSH2 0x1011 JUMP JUMPDEST SWAP3 SWAP2 POP POP JUMP JUMPDEST PUSH0 PUSH0 PUSH0 PUSH0 PUSH0 PUSH1 0x60 DUP7 DUP9 SUB SLT ISZERO PUSH2 0x1054 JUMPI PUSH2 0x1053 PUSH2 0xBFA JUMP JUMPDEST JUMPDEST PUSH0 DUP7 ADD CALLDATALOAD PUSH8 0xFFFFFFFFFFFFFFFF DUP2 GT ISZERO PUSH2 0x1071 JUMPI PUSH2 0x1070 PUSH2 0xBFE JUMP JUMPDEST JUMPDEST PUSH2 0x107D DUP9 DUP3 DUP10 ADD PUSH2 0xE5E JUMP JUMPDEST SWAP6 POP SWAP6 POP POP PUSH1 0x20 DUP7 ADD CALLDATALOAD PUSH8 0xFFFFFFFFFFFFFFFF DUP2 GT ISZERO PUSH2 0x10A0 JUMPI PUSH2 0x109F PUSH2 0xBFE JUMP JUMPDEST JUMPDEST PUSH2 0x10AC DUP9 DUP3 DUP10 ADD PUSH2 0xE5E JUMP JUMPDEST SWAP4 POP SWAP4 POP POP PUSH1 0x40 PUSH2 0x10BF DUP9 DUP3 DUP10 ADD PUSH2 0x1027 JUMP JUMPDEST SWAP2 POP POP SWAP3 SWAP6 POP SWAP3 SWAP6 SWAP1 SWAP4 POP JUMP JUMPDEST PUSH0 DUP3 DUP3 MSTORE PUSH1 0x20 DUP3 ADD SWAP1 POP SWAP3 SWAP2 POP POP JUMP JUMPDEST PUSH32 0x4163636573732064656E69656400000000000000000000000000000000000000 PUSH0 DUP3 ADD MSTORE POP JUMP JUMPDEST PUSH0 PUSH2 0x1110 PUSH1 0xD DUP4 PUSH2 0x10CC JUMP JUMPDEST SWAP2 POP PUSH2 0x111B DUP3 PUSH2 0x10DC JUMP JUMPDEST PUSH1 0x20 DUP3 ADD SWAP1 POP SWAP2 SWAP1 POP JUMP JUMPDEST PUSH0 PUSH1 0x20 DUP3 ADD SWAP1 POP DUP2 DUP2 SUB PUSH0 DUP4 ADD MSTORE PUSH2 0x113D DUP2 PUSH2 0x1104 JUMP JUMPDEST SWAP1 POP SWAP2 SWAP1 POP JUMP JUMPDEST PUSH0 DUP2 SWAP1 POP SWAP3 SWAP2 POP POP JUMP JUMPDEST PUSH0 PUSH2 0x1159 DUP4 DUP6 PUSH2 0x1144 JUMP JUMPDEST SWAP4 POP PUSH2 0x1166 DUP4 DUP6 DUP5 PUSH2 0xCC2 JUMP JUMPDEST DUP3 DUP5 ADD SWAP1 POP SWAP4 SWAP3 POP POP POP JUMP JUMPDEST PUSH0 PUSH2 0x117E DUP3 DUP5 DUP7 PUSH2 0x114E JUMP JUMPDEST SWAP2 POP DUP2 SWAP1 POP SWAP4 SWAP3 POP POP POP JUMP JUMPDEST PUSH32 0x4E487B7100000000000000000000000000000000000000000000000000000000 PUSH0 MSTORE PUSH1 0x22 PUSH1 0x4 MSTORE PUSH1 0x24 PUSH0 REVERT JUMPDEST PUSH0 PUSH1 0x2 DUP3 DIV SWAP1 POP PUSH1 0x1 DUP3 AND DUP1 PUSH2 0x11CE JUMPI PUSH1 0x7F DUP3 AND SWAP2 POP JUMPDEST PUSH1 0x20 DUP3 LT DUP2 SUB PUSH2 0x11E1 JUMPI PUSH2 0x11E0 PUSH2 0x118A JUMP JUMPDEST JUMPDEST POP SWAP2 SWAP1 POP JUMP JUMPDEST PUSH32 0x4C696E6B206E6F7420666F756E64000000000000000000000000000000000000 PUSH0 DUP3 ADD MSTORE POP JUMP JUMPDEST PUSH0 PUSH2 0x121B PUSH1 0xE DUP4 PUSH2 0x10CC JUMP JUMPDEST SWAP2 POP PUSH2 0x1226 DUP3 PUSH2 0x11E7 JUMP JUMPDEST PUSH1 0x20 DUP3 ADD SWAP1 POP SWAP2 SWAP1 POP JUMP JUMPDEST PUSH0 PUSH1 0x20 DUP3 ADD SWAP1 POP DUP2 DUP2 SUB PUSH0 DUP4 ADD MSTORE PUSH2 0x1248 DUP2 PUSH2 0x120F JUMP JUMPDEST SWAP1 POP SWAP2 SWAP1 POP JUMP JUMPDEST PUSH32 0x596F7520616C7265616479206861766520616363657373000000000000000000 PUSH0 DUP3 ADD MSTORE POP JUMP JUMPDEST PUSH0 PUSH2 0x1283 PUSH1 0x17 DUP4 PUSH2 0x10CC JUMP JUMPDEST SWAP2 POP PUSH2 0x128E DUP3 PUSH2 0x124F JUMP JUMPDEST PUSH1 0x20 DUP3 ADD SWAP1 POP SWAP2 SWAP1 POP JUMP JUMPDEST PUSH0 PUSH1 0x20 DUP3 ADD SWAP1 POP DUP2 DUP2 SUB PUSH0 DUP4 ADD MSTORE PUSH2 0x12B0 DUP2 PUSH2 0x1277 JUMP JUMPDEST SWAP1 POP SWAP2 SWAP1 POP JUMP JUMPDEST PUSH32 0x496E73756666696369656E74207061796D656E74000000000000000000000000 PUSH0 DUP3 ADD MSTORE POP JUMP JUMPDEST PUSH0 PUSH2 0x12EB PUSH1 0x14 DUP4 PUSH2 0x10CC JUMP JUMPDEST SWAP2 POP PUSH2 0x12F6 DUP3 PUSH2 0x12B7 JUMP JUMPDEST PUSH1 0x20 DUP3 ADD SWAP1 POP SWAP2 SWAP1 POP JUMP JUMPDEST PUSH0 PUSH1 0x20 DUP3 ADD SWAP1 POP DUP2 DUP2 SUB PUSH0 DUP4 ADD MSTORE PUSH2 0x1318 DUP2 PUSH2 0x12DF JUMP JUMPDEST SWAP1 POP SWAP2 SWAP1 POP JUMP JUMPDEST PUSH32 0x4E487B7100000000000000000000000000000000000000000000000000000000 PUSH0 MSTORE PUSH1 0x11 PUSH1 0x4 MSTORE PUSH1 0x24 PUSH0 REVERT JUMPDEST PUSH0 PUSH2 0x1356 DUP3 PUSH2 0xE25 JUMP JUMPDEST SWAP2 POP PUSH2 0x1361 DUP4 PUSH2 0xE25 JUMP JUMPDEST SWAP3 POP DUP3 DUP3 SUB SWAP1 POP DUP2 DUP2 GT ISZERO PUSH2 0x1379 JUMPI PUSH2 0x1378 PUSH2 0x131F JUMP JUMPDEST JUMPDEST SWAP3 SWAP2 POP POP JUMP JUMPDEST PUSH32 0x54686973206C696E6B496420616C72656164792068617320616E206F776E6572 PUSH0 DUP3 ADD MSTORE POP JUMP JUMPDEST PUSH0 PUSH2 0x13B3 PUSH1 0x20 DUP4 PUSH2 0x10CC JUMP JUMPDEST SWAP2 POP PUSH2 0x13BE DUP3 PUSH2 0x137F JUMP JUMPDEST PUSH1 0x20 DUP3 ADD SWAP1 POP SWAP2 SWAP1 POP JUMP JUMPDEST PUSH0 PUSH1 0x20 DUP3 ADD SWAP1 POP DUP2 DUP2 SUB PUSH0 DUP4 ADD MSTORE PUSH2 0x13E0 DUP2 PUSH2 0x13A7 JUMP JUMPDEST SWAP1 POP SWAP2 SWAP1 POP JUMP JUMPDEST PUSH32 0x466565206D757374206265206D6F7265207468616E20636F6D697373696F6E00 PUSH0 DUP3 ADD MSTORE POP JUMP JUMPDEST PUSH0 PUSH2 0x141B PUSH1 0x1F DUP4 PUSH2 0x10CC JUMP JUMPDEST SWAP2 POP PUSH2 0x1426 DUP3 PUSH2 0x13E7 JUMP JUMPDEST PUSH1 0x20 DUP3 ADD SWAP1 POP SWAP2 SWAP1 POP JUMP JUMPDEST PUSH0 PUSH1 0x20 DUP3 ADD SWAP1 POP DUP2 DUP2 SUB PUSH0 DUP4 ADD MSTORE PUSH2 0x1448 DUP2 PUSH2 0x140F JUMP JUMPDEST SWAP1 POP SWAP2 SWAP1 POP JUMP JUMPDEST PUSH0 DUP2 SWAP1 POP DUP2 PUSH0 MSTORE PUSH1 0x20 PUSH0 KECCAK256 SWAP1 POP SWAP2 SWAP1 POP JUMP JUMPDEST PUSH0 PUSH1 0x20 PUSH1 0x1F DUP4 ADD DIV SWAP1 POP SWAP2 SWAP1 POP JUMP JUMPDEST PUSH0 DUP3 DUP3 SHL SWAP1 POP SWAP3 SWAP2 POP POP JUMP JUMPDEST PUSH0 PUSH1 0x8 DUP4 MUL PUSH2 0x14AB PUSH32 0xFFFFFFFFFFFFFFFFFFFFFFFFFFFFFFFFFFFFFFFFFFFFFFFFFFFFFFFFFFFFFFFF DUP3 PUSH2 0x1470 JUMP JUMPDEST PUSH2 0x14B5 DUP7 DUP4 PUSH2 0x1470 JUMP JUMPDEST SWAP6 POP DUP1 NOT DUP5 AND SWAP4 POP DUP1 DUP7 AND DUP5 OR SWAP3 POP POP POP SWAP4 SWAP3 POP POP POP JUMP JUMPDEST PUSH0 DUP2 SWAP1 POP SWAP2 SWAP1 POP JUMP JUMPDEST PUSH0 PUSH2 0x14F0 PUSH2 0x14EB PUSH2 0x14E6 DUP5 PUSH2 0xE25 JUMP JUMPDEST PUSH2 0x14CD JUMP JUMPDEST PUSH2 0xE25 JUMP JUMPDEST SWAP1 POP SWAP2 SWAP1 POP JUMP JUMPDEST PUSH0 DUP2 SWAP1 POP SWAP2 SWAP1 POP JUMP JUMPDEST PUSH2 0x1509 DUP4 PUSH2 0x14D6 JUMP JUMPDEST PUSH2 0x151D PUSH2 0x1515 DUP3 PUSH2 0x14F7 JUMP JUMPDEST DUP5 DUP5 SLOAD PUSH2 0x147C JUMP JUMPDEST DUP3 SSTORE POP POP POP POP JUMP JUMPDEST PUSH0 PUSH0 SWAP1 POP SWAP1 JUMP JUMPDEST PUSH2 0x1534 PUSH2 0x1525 JUMP JUMPDEST PUSH2 0x153F DUP2 DUP5 DUP5 PUSH2 0x1500 JUMP JUMPDEST POP POP POP JUMP JUMPDEST JUMPDEST DUP2 DUP2 LT ISZERO PUSH2 0x1562 JUMPI PUSH2 0x1557 PUSH0 DUP3 PUSH2 0x152C JUMP JUMPDEST PUSH1 0x1 DUP2 ADD SWAP1 POP PUSH2 0x1545 JUMP JUMPDEST POP POP JUMP JUMPDEST PUSH1 0x1F DUP3 GT ISZERO PUSH2 0x15A7 JUMPI PUSH2 0x1578 DUP2 PUSH2 0x144F JUMP JUMPDEST PUSH2 0x1581 DUP5 PUSH2 0x1461 JUMP JUMPDEST DUP2 ADD PUSH1 0x20 DUP6 LT ISZERO PUSH2 0x1590 JUMPI DUP2 SWAP1 POP JUMPDEST PUSH2 0x15A4 PUSH2 0x159C DUP6 PUSH2 0x1461 JUMP JUMPDEST DUP4 ADD DUP3 PUSH2 0x1544 JUMP JUMPDEST POP POP JUMPDEST POP POP POP JUMP JUMPDEST PUSH0 DUP3 DUP3 SHR SWAP1 POP SWAP3 SWAP2 POP POP JUMP JUMPDEST PUSH0 PUSH2 0x15C7 PUSH0 NOT DUP5 PUSH1 0x8 MUL PUSH2 0x15AC JUMP JUMPDEST NOT DUP1 DUP4 AND SWAP2 POP POP SWAP3 SWAP2 POP POP JUMP JUMPDEST PUSH0 PUSH2 0x15DF DUP4 DUP4 PUSH2 0x15B8 JUMP JUMPDEST SWAP2 POP DUP3 PUSH1 0x2 MUL DUP3 OR SWAP1 POP SWAP3 SWAP2 POP POP JUMP JUMPDEST PUSH2 0x15F8 DUP3 PUSH2 0xEFE JUMP JUMPDEST PUSH8 0xFFFFFFFFFFFFFFFF DUP2 GT ISZERO PUSH2 0x1611 JUMPI PUSH2 0x1610 PUSH2 0xC1A JUMP JUMPDEST JUMPDEST PUSH2 0x161B DUP3 SLOAD PUSH2 0x11B7 JUMP JUMPDEST PUSH2 0x1626 DUP3 DUP3 DUP6 PUSH2 0x1566 JUMP JUMPDEST PUSH0 PUSH1 0x20 SWAP1 POP PUSH1 0x1F DUP4 GT PUSH1 0x1 DUP2 EQ PUSH2 0x1657 JUMPI PUSH0 DUP5 ISZERO PUSH2 0x1645 JUMPI DUP3 DUP8 ADD MLOAD SWAP1 POP JUMPDEST PUSH2 0x164F DUP6 DUP3 PUSH2 0x15D4 JUMP JUMPDEST DUP7 SSTORE POP PUSH2 0x16B6 JUMP JUMPDEST PUSH1 0x1F NOT DUP5 AND PUSH2 0x1665 DUP7 PUSH2 0x144F JUMP JUMPDEST PUSH0 JUMPDEST DUP3 DUP2 LT ISZERO PUSH2 0x168C JUMPI DUP5 DUP10 ADD MLOAD DUP3 SSTORE PUSH1 0x1 DUP3 ADD SWAP2 POP PUSH1 0x20 DUP6 ADD SWAP5 POP PUSH1 0x20 DUP2 ADD SWAP1 POP PUSH2 0x1667 JUMP JUMPDEST DUP7 DUP4 LT ISZERO PUSH2 0x16A9 JUMPI DUP5 DUP10 ADD MLOAD PUSH2 0x16A5 PUSH1 0x1F DUP10 AND DUP3 PUSH2 0x15B8 JUMP JUMPDEST DUP4 SSTORE POP JUMPDEST PUSH1 0x1 PUSH1 0x2 DUP9 MUL ADD DUP9 SSTORE POP POP POP JUMPDEST POP POP POP POP POP POP JUMP INVALID LOG2 PUSH5 0x6970667358 0x22 SLT KECCAK256 0xCC 0xEB RETF PUSH25 0xE308D190FDAF8B191C51F65088EC8041626E2669AE5358C719 0xA9 PUSH3 0x766473 PUSH16 0x6C634300081E00330000000000000000 "
				},
				"gasEstimates": {
					"creation": {
						"codeDepositCost": "1175200",
						"executionCost": "infinite",
						"totalCost": "infinite"
					},
					"external": {
						"addLink(string,string,uint256)": "infinite",
						"admin()": "infinite",
						"comission()": "2447",
						"getLink(string)": "infinite",
						"hasAccess(string,address)": "infinite",
						"payLink(string)": "infinite",
						"withdraw()": "infinite"
					}
				},
				"methodIdentifiers": {
					"addLink(string,string,uint256)": "fc5f2b78",
					"admin()": "f851a440",
					"comission()": "3a4b4532",
					"getLink(string)": "7476452a",
					"hasAccess(string,address)": "13bd20e2",
					"payLink(string)": "429cad86",
					"withdraw()": "3ccfd60b"
				}
			},
			"storageLayout": {
				"storage": [
					{
						"astId": 11,
						"contract": "contracts/Link3.sol:Link3",
						"label": "comission",
						"offset": 0,
						"slot": "0",
						"type": "t_uint256"
					},
					{
						"astId": 18,
						"contract": "contracts/Link3.sol:Link3",
						"label": "links",
						"offset": 0,
						"slot": "1",
						"type": "t_mapping(t_string_memory_ptr,t_struct(Link)8_storage)"
					},
					{
						"astId": 24,
						"contract": "contracts/Link3.sol:Link3",
						"label": "hasAccess",
						"offset": 0,
						"slot": "2",
						"type": "t_mapping(t_string_memory_ptr,t_mapping(t_address,t_bool))"
					}
				],
				"types": {
					"t_address": {
						"encoding": "inplace",
						"label": "address",
						"numberOfBytes": "20"
					},
					"t_bool": {
						"encoding": "inplace",
						"label": "bool",
						"numberOfBytes": "1"
					},
					"t_mapping(t_address,t_bool)": {
						"encoding": "mapping",
						"key": "t_address",
						"label": "mapping(address => bool)",
						"numberOfBytes": "32",
						"value": "t_bool"
					},
					"t_mapping(t_string_memory_ptr,t_mapping(t_address,t_bool))": {
						"encoding": "mapping",
						"key": "t_string_memory_ptr",
						"label": "mapping(string => mapping(address => bool))",
						"numberOfBytes": "32",
						"value": "t_mapping(t_address,t_bool)"
					},
					"t_mapping(t_string_memory_ptr,t_struct(Link)8_storage)": {
						"encoding": "mapping",
						"key": "t_string_memory_ptr",
						"label": "mapping(string => struct Link3.Link)",
						"numberOfBytes": "32",
						"value": "t_struct(Link)8_storage"
					},
					"t_string_memory_ptr": {
						"encoding": "bytes",
						"label": "string",
						"numberOfBytes": "32"
					},
					"t_string_storage": {
						"encoding": "bytes",
						"label": "string",
						"numberOfBytes": "32"
					},
					"t_struct(Link)8_storage": {
						"encoding": "inplace",
						"label": "struct Link3.Link",
						"members": [
							{
								"astId": 3,
								"contract": "contracts/Link3.sol:Link3",
								"label": "url",
								"offset": 0,
								"slot": "0",
								"type": "t_string_storage"
							},
							{
								"astId": 5,
								"contract": "contracts/Link3.sol:Link3",
								"label": "owner",
								"offset": 0,
								"slot": "1",
								"type": "t_address"
							},
							{
								"astId": 7,
								"contract": "contracts/Link3.sol:Link3",
								"label": "fee",
								"offset": 0,
								"slot": "2",
								"type": "t_uint256"
							}
						],
						"numberOfBytes": "96"
					},
					"t_uint256": {
						"encoding": "inplace",
						"label": "uint256",
						"numberOfBytes": "32"
					}
				}
			},
			"userdoc": {
				"kind": "user",
				"methods": {},
				"version": 1
			}
		}
	}
}