{
	"contracts/Link3.sol": {
		"Link3": {
			"abi": [
				{
					"inputs": [
						{
							"internalType": "string",
							"name": "url",
							"type": "string"
						},
						{
							"internalType": "string",
							"name": "linkId",
							"type": "string"
						},
						{
							"internalType": "uint256",
							"name": "fee",
							"type": "uint256"
						}
					],
					"name": "addLink",
					"outputs": [],
					"stateMutability": "nonpayable",
					"type": "function"
				},
				{
					"inputs": [
						{
							"internalType": "string",
							"name": "linkId",
							"type": "string"
						}
					],
					"name": "getLink",
					"outputs": [
						{
							"components": [
								{
									"internalType": "string",
									"name": "url",
									"type": "string"
								},
								{
									"internalType": "address",
									"name": "owner",
									"type": "address"
								},
								{
									"internalType": "uint256",
									"name": "fee",
									"type": "uint256"
								}
							],
							"internalType": "struct Link3.Link",
							"name": "",
							"type": "tuple"
						}
					],
					"stateMutability": "view",
					"type": "function"
				},
				{
					"inputs": [
						{
							"internalType": "string",
							"name": "",
							"type": "string"
						},
						{
							"internalType": "address",
							"name": "",
							"type": "address"
						}
					],
					"name": "hasAccess",
					"outputs": [
						{
							"internalType": "bool",
							"name": "",
							"type": "bool"
						}
					],
					"stateMutability": "view",
					"type": "function"
				}
			],
			"devdoc": {
				"kind": "dev",
				"methods": {},
				"version": 1
			},
			"evm": {
				"assembly": "    /* \"contracts/Link3.sol\":58:1430  contract Link3 {... */\n  mstore(0x40, 0x80)\n  callvalue\n  dup1\n  iszero\n  tag_1\n  jumpi\n  revert(0x00, 0x00)\ntag_1:\n  pop\n  dataSize(sub_0)\n  dup1\n  dataOffset(sub_0)\n  0x00\n  codecopy\n  0x00\n  return\nstop\n\nsub_0: assembly {\n        /* \"contracts/Link3.sol\":58:1430  contract Link3 {... */\n      mstore(0x40, 0x80)\n      callvalue\n      dup1\n      iszero\n      tag_1\n      jumpi\n      revert(0x00, 0x00)\n    tag_1:\n      pop\n      jumpi(tag_2, lt(calldatasize, 0x04))\n      shr(0xe0, calldataload(0x00))\n      dup1\n      0x13bd20e2\n      eq\n      tag_3\n      jumpi\n      dup1\n      0x7476452a\n      eq\n      tag_4\n      jumpi\n      dup1\n      0xfc5f2b78\n      eq\n      tag_5\n      jumpi\n    tag_2:\n      revert(0x00, 0x00)\n        /* \"contracts/Link3.sol\":485:545  mapping(string => mapping(address => bool)) public hasAccess */\n    tag_3:\n      tag_6\n      0x04\n      dup1\n      calldatasize\n      sub\n      dup2\n      add\n      swap1\n      tag_7\n      swap2\n      swap1\n      tag_8\n      jump\t// in\n    tag_7:\n      tag_9\n      jump\t// in\n    tag_6:\n      mload(0x40)\n      tag_10\n      swap2\n      swap1\n      tag_11\n      jump\t// in\n    tag_10:\n      mload(0x40)\n      dup1\n      swap2\n      sub\n      swap1\n      return\n        /* \"contracts/Link3.sol\":1166:1428  function getLink(string calldata linkId) public view returns (Link memory) {... */\n    tag_4:\n      tag_12\n      0x04\n      dup1\n      calldatasize\n      sub\n      dup2\n      add\n      swap1\n      tag_13\n      swap2\n      swap1\n      tag_14\n      jump\t// in\n    tag_13:\n      tag_15\n      jump\t// in\n    tag_12:\n      mload(0x40)\n      tag_16\n      swap2\n      swap1\n      tag_17\n      jump\t// in\n    tag_16:\n      mload(0x40)\n      dup1\n      swap2\n      sub\n      swap1\n      return\n        /* \"contracts/Link3.sol\":739:1161  function addLink(string calldata url, string calldata linkId, uint256 fee) public {... */\n    tag_5:\n      tag_18\n      0x04\n      dup1\n      calldatasize\n      sub\n      dup2\n      add\n      swap1\n      tag_19\n      swap2\n      swap1\n      tag_20\n      jump\t// in\n    tag_19:\n      tag_21\n      jump\t// in\n    tag_18:\n      stop\n        /* \"contracts/Link3.sol\":485:545  mapping(string => mapping(address => bool)) public hasAccess */\n    tag_9:\n      0x01\n      dup3\n      dup1\n      mload\n      0x20\n      dup2\n      add\n      dup3\n      add\n      dup1\n      mload\n      dup5\n      dup3\n      mstore\n      0x20\n      dup4\n      add\n      0x20\n      dup6\n      add\n      keccak256\n      dup2\n      dup4\n      mstore\n      dup1\n      swap6\n      pop\n      pop\n      pop\n      pop\n      pop\n      pop\n      0x20\n      mstore\n      dup1\n      0x00\n      mstore\n      keccak256(0x00, 0x40)\n      0x00\n      swap2\n      pop\n      swap2\n      pop\n      swap1\n      sload\n      swap1\n      0x0100\n      exp\n      swap1\n      div\n      0xff\n      and\n      dup2\n      jump\t// out\n        /* \"contracts/Link3.sol\":1166:1428  function getLink(string calldata linkId) public view returns (Link memory) {... */\n    tag_15:\n        /* \"contracts/Link3.sol\":1228:1239  Link memory */\n      tag_22\n      tag_23\n      jump\t// in\n    tag_22:\n        /* \"contracts/Link3.sol\":1251:1267  Link memory link */\n      0x00\n        /* \"contracts/Link3.sol\":1270:1275  links */\n      0x00\n        /* \"contracts/Link3.sol\":1276:1282  linkId */\n      dup5\n      dup5\n        /* \"contracts/Link3.sol\":1270:1283  links[linkId] */\n      mload(0x40)\n      tag_25\n      swap3\n      swap2\n      swap1\n      tag_26\n      jump\t// in\n    tag_25:\n      swap1\n      dup2\n      mstore\n      0x20\n      add\n      mload(0x40)\n      dup1\n      swap2\n      sub\n      swap1\n      keccak256\n        /* \"contracts/Link3.sol\":1251:1283  Link memory link = links[linkId] */\n      mload(0x40)\n      dup1\n      0x60\n      add\n      0x40\n      mstore\n      swap1\n      dup2\n      0x00\n      dup3\n      add\n      dup1\n      sload\n      tag_27\n      swap1\n      tag_28\n      jump\t// in\n    tag_27:\n      dup1\n      0x1f\n      add\n      0x20\n      dup1\n      swap2\n      div\n      mul\n      0x20\n      add\n      mload(0x40)\n      swap1\n      dup2\n      add\n      0x40\n      mstore\n      dup1\n      swap3\n      swap2\n      swap1\n      dup2\n      dup2\n      mstore\n      0x20\n      add\n      dup3\n      dup1\n      sload\n      tag_29\n      swap1\n      tag_28\n      jump\t// in\n    tag_29:\n      dup1\n      iszero\n      tag_30\n      jumpi\n      dup1\n      0x1f\n      lt\n      tag_31\n      jumpi\n      0x0100\n      dup1\n      dup4\n      sload\n      div\n      mul\n      dup4\n      mstore\n      swap2\n      0x20\n      add\n      swap2\n      jump(tag_30)\n    tag_31:\n      dup3\n      add\n      swap2\n      swap1\n      0x00\n      mstore\n      keccak256(0x00, 0x20)\n      swap1\n    tag_32:\n      dup2\n      sload\n      dup2\n      mstore\n      swap1\n      0x01\n      add\n      swap1\n      0x20\n      add\n      dup1\n      dup4\n      gt\n      tag_32\n      jumpi\n      dup3\n      swap1\n      sub\n      0x1f\n      and\n      dup3\n      add\n      swap2\n    tag_30:\n      pop\n      pop\n      pop\n      pop\n      pop\n      dup2\n      mstore\n      0x20\n      add\n      0x01\n      dup3\n      add\n      0x00\n      swap1\n      sload\n      swap1\n      0x0100\n      exp\n      swap1\n      div\n      0xffffffffffffffffffffffffffffffffffffffff\n      and\n      0xffffffffffffffffffffffffffffffffffffffff\n      and\n      0xffffffffffffffffffffffffffffffffffffffff\n      and\n      dup2\n      mstore\n      0x20\n      add\n      0x02\n      dup3\n      add\n      sload\n      dup2\n      mstore\n      pop\n      pop\n      swap1\n      pop\n        /* \"contracts/Link3.sol\":1308:1309  0 */\n      0x00\n        /* \"contracts/Link3.sol\":1296:1300  link */\n      dup2\n        /* \"contracts/Link3.sol\":1296:1304  link.fee */\n      0x40\n      add\n      mload\n        /* \"contracts/Link3.sol\":1296:1309  link.fee == 0 */\n      sub\n        /* \"contracts/Link3.sol\":1293:1322  if(link.fee == 0) return link */\n      tag_33\n      jumpi\n        /* \"contracts/Link3.sol\":1318:1322  link */\n      dup1\n        /* \"contracts/Link3.sol\":1311:1322  return link */\n      swap2\n      pop\n      pop\n      jump(tag_24)\n        /* \"contracts/Link3.sol\":1293:1322  if(link.fee == 0) return link */\n    tag_33:\n        /* \"contracts/Link3.sol\":1368:1373  false */\n      0x00\n        /* \"contracts/Link3.sol\":1335:1373  hasAccess[linkId][msg.sender] == false */\n      iszero\n      iszero\n        /* \"contracts/Link3.sol\":1335:1344  hasAccess */\n      0x01\n        /* \"contracts/Link3.sol\":1345:1351  linkId */\n      dup6\n      dup6\n        /* \"contracts/Link3.sol\":1335:1352  hasAccess[linkId] */\n      mload(0x40)\n      tag_34\n      swap3\n      swap2\n      swap1\n      tag_26\n      jump\t// in\n    tag_34:\n      swap1\n      dup2\n      mstore\n      0x20\n      add\n      mload(0x40)\n      dup1\n      swap2\n      sub\n      swap1\n      keccak256\n        /* \"contracts/Link3.sol\":1335:1364  hasAccess[linkId][msg.sender] */\n      0x00\n        /* \"contracts/Link3.sol\":1353:1363  msg.sender */\n      caller\n        /* \"contracts/Link3.sol\":1335:1364  hasAccess[linkId][msg.sender] */\n      0xffffffffffffffffffffffffffffffffffffffff\n      and\n      0xffffffffffffffffffffffffffffffffffffffff\n      and\n      dup2\n      mstore\n      0x20\n      add\n      swap1\n      dup2\n      mstore\n      0x20\n      add\n      0x00\n      keccak256\n      0x00\n      swap1\n      sload\n      swap1\n      0x0100\n      exp\n      swap1\n      div\n      0xff\n      and\n        /* \"contracts/Link3.sol\":1335:1373  hasAccess[linkId][msg.sender] == false */\n      iszero\n      iszero\n      sub\n        /* \"contracts/Link3.sol\":1332:1400  if(hasAccess[linkId][msg.sender] == false)... */\n      tag_35\n      jumpi\n        /* \"contracts/Link3.sol\":1387:1400  link.url = \"\" */\n      mload(0x40)\n      dup1\n      0x20\n      add\n      0x40\n      mstore\n      dup1\n      0x00\n      dup2\n      mstore\n      pop\n        /* \"contracts/Link3.sol\":1387:1391  link */\n      dup2\n        /* \"contracts/Link3.sol\":1387:1395  link.url */\n      0x00\n      add\n        /* \"contracts/Link3.sol\":1387:1400  link.url = \"\" */\n      dup2\n      swap1\n      mstore\n      pop\n        /* \"contracts/Link3.sol\":1332:1400  if(hasAccess[linkId][msg.sender] == false)... */\n    tag_35:\n        /* \"contracts/Link3.sol\":1417:1421  link */\n      dup1\n        /* \"contracts/Link3.sol\":1410:1421  return link */\n      swap2\n      pop\n      pop\n        /* \"contracts/Link3.sol\":1166:1428  function getLink(string calldata linkId) public view returns (Link memory) {... */\n    tag_24:\n      swap3\n      swap2\n      pop\n      pop\n      jump\t// out\n        /* \"contracts/Link3.sol\":739:1161  function addLink(string calldata url, string calldata linkId, uint256 fee) public {... */\n    tag_21:\n        /* \"contracts/Link3.sol\":830:846  Link memory link */\n      0x00\n        /* \"contracts/Link3.sol\":849:854  links */\n      0x00\n        /* \"contracts/Link3.sol\":855:861  linkId */\n      dup5\n      dup5\n        /* \"contracts/Link3.sol\":849:862  links[linkId] */\n      mload(0x40)\n      tag_37\n      swap3\n      swap2\n      swap1\n      tag_26\n      jump\t// in\n    tag_37:\n      swap1\n      dup2\n      mstore\n      0x20\n      add\n      mload(0x40)\n      dup1\n      swap2\n      sub\n      swap1\n      keccak256\n        /* \"contracts/Link3.sol\":830:862  Link memory link = links[linkId] */\n      mload(0x40)\n      dup1\n      0x60\n      add\n      0x40\n      mstore\n      swap1\n      dup2\n      0x00\n      dup3\n      add\n      dup1\n      sload\n      tag_38\n      swap1\n      tag_28\n      jump\t// in\n    tag_38:\n      dup1\n      0x1f\n      add\n      0x20\n      dup1\n      swap2\n      div\n      mul\n      0x20\n      add\n      mload(0x40)\n      swap1\n      dup2\n      add\n      0x40\n      mstore\n      dup1\n      swap3\n      swap2\n      swap1\n      dup2\n      dup2\n      mstore\n      0x20\n      add\n      dup3\n      dup1\n      sload\n      tag_39\n      swap1\n      tag_28\n      jump\t// in\n    tag_39:\n      dup1\n      iszero\n      tag_40\n      jumpi\n      dup1\n      0x1f\n      lt\n      tag_41\n      jumpi\n      0x0100\n      dup1\n      dup4\n      sload\n      div\n      mul\n      dup4\n      mstore\n      swap2\n      0x20\n      add\n      swap2\n      jump(tag_40)\n    tag_41:\n      dup3\n      add\n      swap2\n      swap1\n      0x00\n      mstore\n      keccak256(0x00, 0x20)\n      swap1\n    tag_42:\n      dup2\n      sload\n      dup2\n      mstore\n      swap1\n      0x01\n      add\n      swap1\n      0x20\n      add\n      dup1\n      dup4\n      gt\n      tag_42\n      jumpi\n      dup3\n      swap1\n      sub\n      0x1f\n      and\n      dup3\n      add\n      swap2\n    tag_40:\n      pop\n      pop\n      pop\n      pop\n      pop\n      dup2\n      mstore\n      0x20\n      add\n      0x01\n      dup3\n      add\n      0x00\n      swap1\n      sload\n      swap1\n      0x0100\n      exp\n      swap1\n      div\n      0xffffffffffffffffffffffffffffffffffffffff\n      and\n      0xffffffffffffffffffffffffffffffffffffffff\n      and\n      0xffffffffffffffffffffffffffffffffffffffff\n      and\n      dup2\n      mstore\n      0x20\n      add\n      0x02\n      dup3\n      add\n      sload\n      dup2\n      mstore\n      pop\n      pop\n      swap1\n      pop\n        /* \"contracts/Link3.sol\":914:915  0 */\n      0x00\n        /* \"contracts/Link3.sol\":892:916  link.owner == address(0) */\n      0xffffffffffffffffffffffffffffffffffffffff\n      and\n        /* \"contracts/Link3.sol\":892:896  link */\n      dup2\n        /* \"contracts/Link3.sol\":892:902  link.owner */\n      0x20\n      add\n      mload\n        /* \"contracts/Link3.sol\":892:916  link.owner == address(0) */\n      0xffffffffffffffffffffffffffffffffffffffff\n      and\n      eq\n        /* \"contracts/Link3.sol\":892:956  link.owner == address(0) ||... */\n      dup1\n      tag_43\n      jumpi\n      pop\n        /* \"contracts/Link3.sol\":946:956  msg.sender */\n      caller\n        /* \"contracts/Link3.sol\":932:956  link.owner == msg.sender */\n      0xffffffffffffffffffffffffffffffffffffffff\n      and\n        /* \"contracts/Link3.sol\":932:936  link */\n      dup2\n        /* \"contracts/Link3.sol\":932:942  link.owner */\n      0x20\n      add\n      mload\n        /* \"contracts/Link3.sol\":932:956  link.owner == msg.sender */\n      0xffffffffffffffffffffffffffffffffffffffff\n      and\n      eq\n        /* \"contracts/Link3.sol\":892:956  link.owner == address(0) ||... */\n    tag_43:\n        /* \"contracts/Link3.sol\":871:1002  require(... */\n      tag_44\n      jumpi\n      mload(0x40)\n      0x08c379a000000000000000000000000000000000000000000000000000000000\n      dup2\n      mstore\n      0x04\n      add\n      tag_45\n      swap1\n      tag_46\n      jump\t// in\n    tag_45:\n      mload(0x40)\n      dup1\n      swap2\n      sub\n      swap1\n      revert\n    tag_44:\n        /* \"contracts/Link3.sol\":1022:1025  url */\n      dup6\n      dup6\n        /* \"contracts/Link3.sol\":1011:1025  link.url = url */\n      dup1\n      dup1\n      0x1f\n      add\n      0x20\n      dup1\n      swap2\n      div\n      mul\n      0x20\n      add\n      mload(0x40)\n      swap1\n      dup2\n      add\n      0x40\n      mstore\n      dup1\n      swap4\n      swap3\n      swap2\n      swap1\n      dup2\n      dup2\n      mstore\n      0x20\n      add\n      dup4\n      dup4\n      dup1\n      dup3\n      dup5\n      calldatacopy\n      0x00\n      dup2\n      dup5\n      add\n      mstore\n      not(0x1f)\n      0x1f\n      dup3\n      add\n      and\n      swap1\n      pop\n      dup1\n      dup4\n      add\n      swap3\n      pop\n      pop\n      pop\n      pop\n      pop\n      pop\n      pop\n        /* \"contracts/Link3.sol\":1011:1015  link */\n      dup2\n        /* \"contracts/Link3.sol\":1011:1019  link.url */\n      0x00\n      add\n        /* \"contracts/Link3.sol\":1011:1025  link.url = url */\n      dup2\n      swap1\n      mstore\n      pop\n        /* \"contracts/Link3.sol\":1045:1048  fee */\n      dup2\n        /* \"contracts/Link3.sol\":1034:1038  link */\n      dup2\n        /* \"contracts/Link3.sol\":1034:1042  link.fee */\n      0x40\n      add\n        /* \"contracts/Link3.sol\":1034:1048  link.fee = fee */\n      dup2\n      dup2\n      mstore\n      pop\n      pop\n        /* \"contracts/Link3.sol\":1070:1080  msg.sender */\n      caller\n        /* \"contracts/Link3.sol\":1057:1061  link */\n      dup2\n        /* \"contracts/Link3.sol\":1057:1067  link.owner */\n      0x20\n      add\n        /* \"contracts/Link3.sol\":1057:1080  link.owner = msg.sender */\n      swap1\n      0xffffffffffffffffffffffffffffffffffffffff\n      and\n      swap1\n      dup2\n      0xffffffffffffffffffffffffffffffffffffffff\n      and\n      dup2\n      mstore\n      pop\n      pop\n        /* \"contracts/Link3.sol\":1105:1109  link */\n      dup1\n        /* \"contracts/Link3.sol\":1089:1094  links */\n      0x00\n        /* \"contracts/Link3.sol\":1095:1101  linkId */\n      dup6\n      dup6\n        /* \"contracts/Link3.sol\":1089:1102  links[linkId] */\n      mload(0x40)\n      tag_47\n      swap3\n      swap2\n      swap1\n      tag_26\n      jump\t// in\n    tag_47:\n      swap1\n      dup2\n      mstore\n      0x20\n      add\n      mload(0x40)\n      dup1\n      swap2\n      sub\n      swap1\n      keccak256\n        /* \"contracts/Link3.sol\":1089:1109  links[linkId] = link */\n      0x00\n      dup3\n      add\n      mload\n      dup2\n      0x00\n      add\n      swap1\n      dup2\n      tag_48\n      swap2\n      swap1\n      tag_49\n      jump\t// in\n    tag_48:\n      pop\n      0x20\n      dup3\n      add\n      mload\n      dup2\n      0x01\n      add\n      exp(0x0100, 0x00)\n      dup2\n      sload\n      dup2\n      0xffffffffffffffffffffffffffffffffffffffff\n      mul\n      not\n      and\n      swap1\n      dup4\n      0xffffffffffffffffffffffffffffffffffffffff\n      and\n      mul\n      or\n      swap1\n      sstore\n      pop\n      0x40\n      dup3\n      add\n      mload\n      dup2\n      0x02\n      add\n      sstore\n      swap1\n      pop\n      pop\n        /* \"contracts/Link3.sol\":1150:1154  true */\n      0x01\n        /* \"contracts/Link3.sol\":1118:1127  hasAccess */\n      dup1\n        /* \"contracts/Link3.sol\":1128:1134  linkId */\n      dup6\n      dup6\n        /* \"contracts/Link3.sol\":1118:1135  hasAccess[linkId] */\n      mload(0x40)\n      tag_50\n      swap3\n      swap2\n      swap1\n      tag_26\n      jump\t// in\n    tag_50:\n      swap1\n      dup2\n      mstore\n      0x20\n      add\n      mload(0x40)\n      dup1\n      swap2\n      sub\n      swap1\n      keccak256\n        /* \"contracts/Link3.sol\":1118:1147  hasAccess[linkId][msg.sender] */\n      0x00\n        /* \"contracts/Link3.sol\":1136:1146  msg.sender */\n      caller\n        /* \"contracts/Link3.sol\":1118:1147  hasAccess[linkId][msg.sender] */\n      0xffffffffffffffffffffffffffffffffffffffff\n      and\n      0xffffffffffffffffffffffffffffffffffffffff\n      and\n      dup2\n      mstore\n      0x20\n      add\n      swap1\n      dup2\n      mstore\n      0x20\n      add\n      0x00\n      keccak256\n      0x00\n        /* \"contracts/Link3.sol\":1118:1154  hasAccess[linkId][msg.sender] = true */\n      0x0100\n      exp\n      dup2\n      sload\n      dup2\n      0xff\n      mul\n      not\n      and\n      swap1\n      dup4\n      iszero\n      iszero\n      mul\n      or\n      swap1\n      sstore\n      pop\n        /* \"contracts/Link3.sol\":821:1161  {... */\n      pop\n        /* \"contracts/Link3.sol\":739:1161  function addLink(string calldata url, string calldata linkId, uint256 fee) public {... */\n      pop\n      pop\n      pop\n      pop\n      pop\n      jump\t// out\n    tag_23:\n      mload(0x40)\n      dup1\n      0x60\n      add\n      0x40\n      mstore\n      dup1\n      0x60\n      dup2\n      mstore\n      0x20\n      add\n      and(0xffffffffffffffffffffffffffffffffffffffff, 0x00)\n      dup2\n      mstore\n      0x20\n      add\n      0x00\n      dup2\n      mstore\n      pop\n      swap1\n      jump\t// out\n        /* \"#utility.yul\":7:82   */\n    tag_51:\n        /* \"#utility.yul\":40:46   */\n      0x00\n        /* \"#utility.yul\":73:75   */\n      0x40\n        /* \"#utility.yul\":67:76   */\n      mload\n        /* \"#utility.yul\":57:76   */\n      swap1\n      pop\n        /* \"#utility.yul\":7:82   */\n      swap1\n      jump\t// out\n        /* \"#utility.yul\":88:205   */\n    tag_52:\n        /* \"#utility.yul\":197:198   */\n      0x00\n        /* \"#utility.yul\":194:195   */\n      0x00\n        /* \"#utility.yul\":187:199   */\n      revert\n        /* \"#utility.yul\":211:328   */\n    tag_53:\n        /* \"#utility.yul\":320:321   */\n      0x00\n        /* \"#utility.yul\":317:318   */\n      0x00\n        /* \"#utility.yul\":310:322   */\n      revert\n        /* \"#utility.yul\":334:451   */\n    tag_54:\n        /* \"#utility.yul\":443:444   */\n      0x00\n        /* \"#utility.yul\":440:441   */\n      0x00\n        /* \"#utility.yul\":433:445   */\n      revert\n        /* \"#utility.yul\":457:574   */\n    tag_55:\n        /* \"#utility.yul\":566:567   */\n      0x00\n        /* \"#utility.yul\":563:564   */\n      0x00\n        /* \"#utility.yul\":556:568   */\n      revert\n        /* \"#utility.yul\":580:682   */\n    tag_56:\n        /* \"#utility.yul\":621:627   */\n      0x00\n        /* \"#utility.yul\":672:674   */\n      0x1f\n        /* \"#utility.yul\":668:675   */\n      not\n        /* \"#utility.yul\":663:665   */\n      0x1f\n        /* \"#utility.yul\":656:661   */\n      dup4\n        /* \"#utility.yul\":652:666   */\n      add\n        /* \"#utility.yul\":648:676   */\n      and\n        /* \"#utility.yul\":638:676   */\n      swap1\n      pop\n        /* \"#utility.yul\":580:682   */\n      swap2\n      swap1\n      pop\n      jump\t// out\n        /* \"#utility.yul\":688:868   */\n    tag_57:\n        /* \"#utility.yul\":736:813   */\n      0x4e487b7100000000000000000000000000000000000000000000000000000000\n        /* \"#utility.yul\":733:734   */\n      0x00\n        /* \"#utility.yul\":726:814   */\n      mstore\n        /* \"#utility.yul\":833:837   */\n      0x41\n        /* \"#utility.yul\":830:831   */\n      0x04\n        /* \"#utility.yul\":823:838   */\n      mstore\n        /* \"#utility.yul\":857:861   */\n      0x24\n        /* \"#utility.yul\":854:855   */\n      0x00\n        /* \"#utility.yul\":847:862   */\n      revert\n        /* \"#utility.yul\":874:1155   */\n    tag_58:\n        /* \"#utility.yul\":957:984   */\n      tag_113\n        /* \"#utility.yul\":979:983   */\n      dup3\n        /* \"#utility.yul\":957:984   */\n      tag_56\n      jump\t// in\n    tag_113:\n        /* \"#utility.yul\":949:955   */\n      dup2\n        /* \"#utility.yul\":945:985   */\n      add\n        /* \"#utility.yul\":1087:1093   */\n      dup2\n        /* \"#utility.yul\":1075:1085   */\n      dup2\n        /* \"#utility.yul\":1072:1094   */\n      lt\n        /* \"#utility.yul\":1051:1069   */\n      0xffffffffffffffff\n        /* \"#utility.yul\":1039:1049   */\n      dup3\n        /* \"#utility.yul\":1036:1070   */\n      gt\n        /* \"#utility.yul\":1033:1095   */\n      or\n        /* \"#utility.yul\":1030:1118   */\n      iszero\n      tag_114\n      jumpi\n        /* \"#utility.yul\":1098:1116   */\n      tag_115\n      tag_57\n      jump\t// in\n    tag_115:\n        /* \"#utility.yul\":1030:1118   */\n    tag_114:\n        /* \"#utility.yul\":1138:1148   */\n      dup1\n        /* \"#utility.yul\":1134:1136   */\n      0x40\n        /* \"#utility.yul\":1127:1149   */\n      mstore\n        /* \"#utility.yul\":917:1155   */\n      pop\n        /* \"#utility.yul\":874:1155   */\n      pop\n      pop\n      jump\t// out\n        /* \"#utility.yul\":1161:1290   */\n    tag_59:\n        /* \"#utility.yul\":1195:1201   */\n      0x00\n        /* \"#utility.yul\":1222:1242   */\n      tag_117\n      tag_51\n      jump\t// in\n    tag_117:\n        /* \"#utility.yul\":1212:1242   */\n      swap1\n      pop\n        /* \"#utility.yul\":1251:1284   */\n      tag_118\n        /* \"#utility.yul\":1279:1283   */\n      dup3\n        /* \"#utility.yul\":1271:1277   */\n      dup3\n        /* \"#utility.yul\":1251:1284   */\n      tag_58\n      jump\t// in\n    tag_118:\n        /* \"#utility.yul\":1161:1290   */\n      swap2\n      swap1\n      pop\n      jump\t// out\n        /* \"#utility.yul\":1296:1604   */\n    tag_60:\n        /* \"#utility.yul\":1358:1362   */\n      0x00\n        /* \"#utility.yul\":1448:1466   */\n      0xffffffffffffffff\n        /* \"#utility.yul\":1440:1446   */\n      dup3\n        /* \"#utility.yul\":1437:1467   */\n      gt\n        /* \"#utility.yul\":1434:1490   */\n      iszero\n      tag_120\n      jumpi\n        /* \"#utility.yul\":1470:1488   */\n      tag_121\n      tag_57\n      jump\t// in\n    tag_121:\n        /* \"#utility.yul\":1434:1490   */\n    tag_120:\n        /* \"#utility.yul\":1508:1537   */\n      tag_122\n        /* \"#utility.yul\":1530:1536   */\n      dup3\n        /* \"#utility.yul\":1508:1537   */\n      tag_56\n      jump\t// in\n    tag_122:\n        /* \"#utility.yul\":1500:1537   */\n      swap1\n      pop\n        /* \"#utility.yul\":1592:1596   */\n      0x20\n        /* \"#utility.yul\":1586:1590   */\n      dup2\n        /* \"#utility.yul\":1582:1597   */\n      add\n        /* \"#utility.yul\":1574:1597   */\n      swap1\n      pop\n        /* \"#utility.yul\":1296:1604   */\n      swap2\n      swap1\n      pop\n      jump\t// out\n        /* \"#utility.yul\":1610:1758   */\n    tag_61:\n        /* \"#utility.yul\":1708:1714   */\n      dup3\n        /* \"#utility.yul\":1703:1706   */\n      dup2\n        /* \"#utility.yul\":1698:1701   */\n      dup4\n        /* \"#utility.yul\":1685:1715   */\n      calldatacopy\n        /* \"#utility.yul\":1749:1750   */\n      0x00\n        /* \"#utility.yul\":1740:1746   */\n      dup4\n        /* \"#utility.yul\":1735:1738   */\n      dup4\n        /* \"#utility.yul\":1731:1747   */\n      add\n        /* \"#utility.yul\":1724:1751   */\n      mstore\n        /* \"#utility.yul\":1610:1758   */\n      pop\n      pop\n      pop\n      jump\t// out\n        /* \"#utility.yul\":1764:2189   */\n    tag_62:\n        /* \"#utility.yul\":1842:1847   */\n      0x00\n        /* \"#utility.yul\":1867:1933   */\n      tag_125\n        /* \"#utility.yul\":1883:1932   */\n      tag_126\n        /* \"#utility.yul\":1925:1931   */\n      dup5\n        /* \"#utility.yul\":1883:1932   */\n      tag_60\n      jump\t// in\n    tag_126:\n        /* \"#utility.yul\":1867:1933   */\n      tag_59\n      jump\t// in\n    tag_125:\n        /* \"#utility.yul\":1858:1933   */\n      swap1\n      pop\n        /* \"#utility.yul\":1956:1962   */\n      dup3\n        /* \"#utility.yul\":1949:1954   */\n      dup2\n        /* \"#utility.yul\":1942:1963   */\n      mstore\n        /* \"#utility.yul\":1994:1998   */\n      0x20\n        /* \"#utility.yul\":1987:1992   */\n      dup2\n        /* \"#utility.yul\":1983:1999   */\n      add\n        /* \"#utility.yul\":2032:2035   */\n      dup5\n        /* \"#utility.yul\":2023:2029   */\n      dup5\n        /* \"#utility.yul\":2018:2021   */\n      dup5\n        /* \"#utility.yul\":2014:2030   */\n      add\n        /* \"#utility.yul\":2011:2036   */\n      gt\n        /* \"#utility.yul\":2008:2120   */\n      iszero\n      tag_127\n      jumpi\n        /* \"#utility.yul\":2039:2118   */\n      tag_128\n      tag_55\n      jump\t// in\n    tag_128:\n        /* \"#utility.yul\":2008:2120   */\n    tag_127:\n        /* \"#utility.yul\":2129:2183   */\n      tag_129\n        /* \"#utility.yul\":2176:2182   */\n      dup5\n        /* \"#utility.yul\":2171:2174   */\n      dup3\n        /* \"#utility.yul\":2166:2169   */\n      dup6\n        /* \"#utility.yul\":2129:2183   */\n      tag_61\n      jump\t// in\n    tag_129:\n        /* \"#utility.yul\":1848:2189   */\n      pop\n        /* \"#utility.yul\":1764:2189   */\n      swap4\n      swap3\n      pop\n      pop\n      pop\n      jump\t// out\n        /* \"#utility.yul\":2209:2549   */\n    tag_63:\n        /* \"#utility.yul\":2265:2270   */\n      0x00\n        /* \"#utility.yul\":2314:2317   */\n      dup3\n        /* \"#utility.yul\":2307:2311   */\n      0x1f\n        /* \"#utility.yul\":2299:2305   */\n      dup4\n        /* \"#utility.yul\":2295:2312   */\n      add\n        /* \"#utility.yul\":2291:2318   */\n      slt\n        /* \"#utility.yul\":2281:2403   */\n      tag_131\n      jumpi\n        /* \"#utility.yul\":2322:2401   */\n      tag_132\n      tag_54\n      jump\t// in\n    tag_132:\n        /* \"#utility.yul\":2281:2403   */\n    tag_131:\n        /* \"#utility.yul\":2439:2445   */\n      dup2\n        /* \"#utility.yul\":2426:2446   */\n      calldataload\n        /* \"#utility.yul\":2464:2543   */\n      tag_133\n        /* \"#utility.yul\":2539:2542   */\n      dup5\n        /* \"#utility.yul\":2531:2537   */\n      dup3\n        /* \"#utility.yul\":2524:2528   */\n      0x20\n        /* \"#utility.yul\":2516:2522   */\n      dup7\n        /* \"#utility.yul\":2512:2529   */\n      add\n        /* \"#utility.yul\":2464:2543   */\n      tag_62\n      jump\t// in\n    tag_133:\n        /* \"#utility.yul\":2455:2543   */\n      swap2\n      pop\n        /* \"#utility.yul\":2271:2549   */\n      pop\n        /* \"#utility.yul\":2209:2549   */\n      swap3\n      swap2\n      pop\n      pop\n      jump\t// out\n        /* \"#utility.yul\":2555:2681   */\n    tag_64:\n        /* \"#utility.yul\":2592:2599   */\n      0x00\n        /* \"#utility.yul\":2632:2674   */\n      0xffffffffffffffffffffffffffffffffffffffff\n        /* \"#utility.yul\":2625:2630   */\n      dup3\n        /* \"#utility.yul\":2621:2675   */\n      and\n        /* \"#utility.yul\":2610:2675   */\n      swap1\n      pop\n        /* \"#utility.yul\":2555:2681   */\n      swap2\n      swap1\n      pop\n      jump\t// out\n        /* \"#utility.yul\":2687:2783   */\n    tag_65:\n        /* \"#utility.yul\":2724:2731   */\n      0x00\n        /* \"#utility.yul\":2753:2777   */\n      tag_136\n        /* \"#utility.yul\":2771:2776   */\n      dup3\n        /* \"#utility.yul\":2753:2777   */\n      tag_64\n      jump\t// in\n    tag_136:\n        /* \"#utility.yul\":2742:2777   */\n      swap1\n      pop\n        /* \"#utility.yul\":2687:2783   */\n      swap2\n      swap1\n      pop\n      jump\t// out\n        /* \"#utility.yul\":2789:2911   */\n    tag_66:\n        /* \"#utility.yul\":2862:2886   */\n      tag_138\n        /* \"#utility.yul\":2880:2885   */\n      dup2\n        /* \"#utility.yul\":2862:2886   */\n      tag_65\n      jump\t// in\n    tag_138:\n        /* \"#utility.yul\":2855:2860   */\n      dup2\n        /* \"#utility.yul\":2852:2887   */\n      eq\n        /* \"#utility.yul\":2842:2905   */\n      tag_139\n      jumpi\n        /* \"#utility.yul\":2901:2902   */\n      0x00\n        /* \"#utility.yul\":2898:2899   */\n      0x00\n        /* \"#utility.yul\":2891:2903   */\n      revert\n        /* \"#utility.yul\":2842:2905   */\n    tag_139:\n        /* \"#utility.yul\":2789:2911   */\n      pop\n      jump\t// out\n        /* \"#utility.yul\":2917:3056   */\n    tag_67:\n        /* \"#utility.yul\":2963:2968   */\n      0x00\n        /* \"#utility.yul\":3001:3007   */\n      dup2\n        /* \"#utility.yul\":2988:3008   */\n      calldataload\n        /* \"#utility.yul\":2979:3008   */\n      swap1\n      pop\n        /* \"#utility.yul\":3017:3050   */\n      tag_141\n        /* \"#utility.yul\":3044:3049   */\n      dup2\n        /* \"#utility.yul\":3017:3050   */\n      tag_66\n      jump\t// in\n    tag_141:\n        /* \"#utility.yul\":2917:3056   */\n      swap3\n      swap2\n      pop\n      pop\n      jump\t// out\n        /* \"#utility.yul\":3062:3716   */\n    tag_8:\n        /* \"#utility.yul\":3140:3146   */\n      0x00\n        /* \"#utility.yul\":3148:3154   */\n      0x00\n        /* \"#utility.yul\":3197:3199   */\n      0x40\n        /* \"#utility.yul\":3185:3194   */\n      dup4\n        /* \"#utility.yul\":3176:3183   */\n      dup6\n        /* \"#utility.yul\":3172:3195   */\n      sub\n        /* \"#utility.yul\":3168:3200   */\n      slt\n        /* \"#utility.yul\":3165:3284   */\n      iszero\n      tag_143\n      jumpi\n        /* \"#utility.yul\":3203:3282   */\n      tag_144\n      tag_52\n      jump\t// in\n    tag_144:\n        /* \"#utility.yul\":3165:3284   */\n    tag_143:\n        /* \"#utility.yul\":3351:3352   */\n      0x00\n        /* \"#utility.yul\":3340:3349   */\n      dup4\n        /* \"#utility.yul\":3336:3353   */\n      add\n        /* \"#utility.yul\":3323:3354   */\n      calldataload\n        /* \"#utility.yul\":3381:3399   */\n      0xffffffffffffffff\n        /* \"#utility.yul\":3373:3379   */\n      dup2\n        /* \"#utility.yul\":3370:3400   */\n      gt\n        /* \"#utility.yul\":3367:3484   */\n      iszero\n      tag_145\n      jumpi\n        /* \"#utility.yul\":3403:3482   */\n      tag_146\n      tag_53\n      jump\t// in\n    tag_146:\n        /* \"#utility.yul\":3367:3484   */\n    tag_145:\n        /* \"#utility.yul\":3508:3571   */\n      tag_147\n        /* \"#utility.yul\":3563:3570   */\n      dup6\n        /* \"#utility.yul\":3554:3560   */\n      dup3\n        /* \"#utility.yul\":3543:3552   */\n      dup7\n        /* \"#utility.yul\":3539:3561   */\n      add\n        /* \"#utility.yul\":3508:3571   */\n      tag_63\n      jump\t// in\n    tag_147:\n        /* \"#utility.yul\":3498:3571   */\n      swap3\n      pop\n        /* \"#utility.yul\":3294:3581   */\n      pop\n        /* \"#utility.yul\":3620:3622   */\n      0x20\n        /* \"#utility.yul\":3646:3699   */\n      tag_148\n        /* \"#utility.yul\":3691:3698   */\n      dup6\n        /* \"#utility.yul\":3682:3688   */\n      dup3\n        /* \"#utility.yul\":3671:3680   */\n      dup7\n        /* \"#utility.yul\":3667:3689   */\n      add\n        /* \"#utility.yul\":3646:3699   */\n      tag_67\n      jump\t// in\n    tag_148:\n        /* \"#utility.yul\":3636:3699   */\n      swap2\n      pop\n        /* \"#utility.yul\":3591:3709   */\n      pop\n        /* \"#utility.yul\":3062:3716   */\n      swap3\n      pop\n      swap3\n      swap1\n      pop\n      jump\t// out\n        /* \"#utility.yul\":3722:3812   */\n    tag_68:\n        /* \"#utility.yul\":3756:3763   */\n      0x00\n        /* \"#utility.yul\":3799:3804   */\n      dup2\n        /* \"#utility.yul\":3792:3805   */\n      iszero\n        /* \"#utility.yul\":3785:3806   */\n      iszero\n        /* \"#utility.yul\":3774:3806   */\n      swap1\n      pop\n        /* \"#utility.yul\":3722:3812   */\n      swap2\n      swap1\n      pop\n      jump\t// out\n        /* \"#utility.yul\":3818:3927   */\n    tag_69:\n        /* \"#utility.yul\":3899:3920   */\n      tag_151\n        /* \"#utility.yul\":3914:3919   */\n      dup2\n        /* \"#utility.yul\":3899:3920   */\n      tag_68\n      jump\t// in\n    tag_151:\n        /* \"#utility.yul\":3894:3897   */\n      dup3\n        /* \"#utility.yul\":3887:3921   */\n      mstore\n        /* \"#utility.yul\":3818:3927   */\n      pop\n      pop\n      jump\t// out\n        /* \"#utility.yul\":3933:4143   */\n    tag_11:\n        /* \"#utility.yul\":4020:4024   */\n      0x00\n        /* \"#utility.yul\":4058:4060   */\n      0x20\n        /* \"#utility.yul\":4047:4056   */\n      dup3\n        /* \"#utility.yul\":4043:4061   */\n      add\n        /* \"#utility.yul\":4035:4061   */\n      swap1\n      pop\n        /* \"#utility.yul\":4071:4136   */\n      tag_153\n        /* \"#utility.yul\":4133:4134   */\n      0x00\n        /* \"#utility.yul\":4122:4131   */\n      dup4\n        /* \"#utility.yul\":4118:4135   */\n      add\n        /* \"#utility.yul\":4109:4115   */\n      dup5\n        /* \"#utility.yul\":4071:4136   */\n      tag_69\n      jump\t// in\n    tag_153:\n        /* \"#utility.yul\":3933:4143   */\n      swap3\n      swap2\n      pop\n      pop\n      jump\t// out\n        /* \"#utility.yul\":4149:4266   */\n    tag_70:\n        /* \"#utility.yul\":4258:4259   */\n      0x00\n        /* \"#utility.yul\":4255:4256   */\n      0x00\n        /* \"#utility.yul\":4248:4260   */\n      revert\n        /* \"#utility.yul\":4272:4389   */\n    tag_71:\n        /* \"#utility.yul\":4381:4382   */\n      0x00\n        /* \"#utility.yul\":4378:4379   */\n      0x00\n        /* \"#utility.yul\":4371:4383   */\n      revert\n        /* \"#utility.yul\":4409:4962   */\n    tag_72:\n        /* \"#utility.yul\":4467:4475   */\n      0x00\n        /* \"#utility.yul\":4477:4483   */\n      0x00\n        /* \"#utility.yul\":4527:4530   */\n      dup4\n        /* \"#utility.yul\":4520:4524   */\n      0x1f\n        /* \"#utility.yul\":4512:4518   */\n      dup5\n        /* \"#utility.yul\":4508:4525   */\n      add\n        /* \"#utility.yul\":4504:4531   */\n      slt\n        /* \"#utility.yul\":4494:4616   */\n      tag_157\n      jumpi\n        /* \"#utility.yul\":4535:4614   */\n      tag_158\n      tag_54\n      jump\t// in\n    tag_158:\n        /* \"#utility.yul\":4494:4616   */\n    tag_157:\n        /* \"#utility.yul\":4648:4654   */\n      dup3\n        /* \"#utility.yul\":4635:4655   */\n      calldataload\n        /* \"#utility.yul\":4625:4655   */\n      swap1\n      pop\n        /* \"#utility.yul\":4678:4696   */\n      0xffffffffffffffff\n        /* \"#utility.yul\":4670:4676   */\n      dup2\n        /* \"#utility.yul\":4667:4697   */\n      gt\n        /* \"#utility.yul\":4664:4781   */\n      iszero\n      tag_159\n      jumpi\n        /* \"#utility.yul\":4700:4779   */\n      tag_160\n      tag_70\n      jump\t// in\n    tag_160:\n        /* \"#utility.yul\":4664:4781   */\n    tag_159:\n        /* \"#utility.yul\":4814:4818   */\n      0x20\n        /* \"#utility.yul\":4806:4812   */\n      dup4\n        /* \"#utility.yul\":4802:4819   */\n      add\n        /* \"#utility.yul\":4790:4819   */\n      swap2\n      pop\n        /* \"#utility.yul\":4868:4871   */\n      dup4\n        /* \"#utility.yul\":4860:4864   */\n      0x01\n        /* \"#utility.yul\":4852:4858   */\n      dup3\n        /* \"#utility.yul\":4848:4865   */\n      mul\n        /* \"#utility.yul\":4838:4846   */\n      dup4\n        /* \"#utility.yul\":4834:4866   */\n      add\n        /* \"#utility.yul\":4831:4872   */\n      gt\n        /* \"#utility.yul\":4828:4956   */\n      iszero\n      tag_161\n      jumpi\n        /* \"#utility.yul\":4875:4954   */\n      tag_162\n      tag_71\n      jump\t// in\n    tag_162:\n        /* \"#utility.yul\":4828:4956   */\n    tag_161:\n        /* \"#utility.yul\":4409:4962   */\n      swap3\n      pop\n      swap3\n      swap1\n      pop\n      jump\t// out\n        /* \"#utility.yul\":4968:5497   */\n    tag_14:\n        /* \"#utility.yul\":5039:5045   */\n      0x00\n        /* \"#utility.yul\":5047:5053   */\n      0x00\n        /* \"#utility.yul\":5096:5098   */\n      0x20\n        /* \"#utility.yul\":5084:5093   */\n      dup4\n        /* \"#utility.yul\":5075:5082   */\n      dup6\n        /* \"#utility.yul\":5071:5094   */\n      sub\n        /* \"#utility.yul\":5067:5099   */\n      slt\n        /* \"#utility.yul\":5064:5183   */\n      iszero\n      tag_164\n      jumpi\n        /* \"#utility.yul\":5102:5181   */\n      tag_165\n      tag_52\n      jump\t// in\n    tag_165:\n        /* \"#utility.yul\":5064:5183   */\n    tag_164:\n        /* \"#utility.yul\":5250:5251   */\n      0x00\n        /* \"#utility.yul\":5239:5248   */\n      dup4\n        /* \"#utility.yul\":5235:5252   */\n      add\n        /* \"#utility.yul\":5222:5253   */\n      calldataload\n        /* \"#utility.yul\":5280:5298   */\n      0xffffffffffffffff\n        /* \"#utility.yul\":5272:5278   */\n      dup2\n        /* \"#utility.yul\":5269:5299   */\n      gt\n        /* \"#utility.yul\":5266:5383   */\n      iszero\n      tag_166\n      jumpi\n        /* \"#utility.yul\":5302:5381   */\n      tag_167\n      tag_53\n      jump\t// in\n    tag_167:\n        /* \"#utility.yul\":5266:5383   */\n    tag_166:\n        /* \"#utility.yul\":5415:5480   */\n      tag_168\n        /* \"#utility.yul\":5472:5479   */\n      dup6\n        /* \"#utility.yul\":5463:5469   */\n      dup3\n        /* \"#utility.yul\":5452:5461   */\n      dup7\n        /* \"#utility.yul\":5448:5470   */\n      add\n        /* \"#utility.yul\":5415:5480   */\n      tag_72\n      jump\t// in\n    tag_168:\n        /* \"#utility.yul\":5397:5480   */\n      swap3\n      pop\n      swap3\n      pop\n        /* \"#utility.yul\":5193:5490   */\n      pop\n        /* \"#utility.yul\":4968:5497   */\n      swap3\n      pop\n      swap3\n      swap1\n      pop\n      jump\t// out\n        /* \"#utility.yul\":5503:5602   */\n    tag_73:\n        /* \"#utility.yul\":5555:5561   */\n      0x00\n        /* \"#utility.yul\":5589:5594   */\n      dup2\n        /* \"#utility.yul\":5583:5595   */\n      mload\n        /* \"#utility.yul\":5573:5595   */\n      swap1\n      pop\n        /* \"#utility.yul\":5503:5602   */\n      swap2\n      swap1\n      pop\n      jump\t// out\n        /* \"#utility.yul\":5608:5767   */\n    tag_74:\n        /* \"#utility.yul\":5682:5693   */\n      0x00\n        /* \"#utility.yul\":5716:5722   */\n      dup3\n        /* \"#utility.yul\":5711:5714   */\n      dup3\n        /* \"#utility.yul\":5704:5723   */\n      mstore\n        /* \"#utility.yul\":5756:5760   */\n      0x20\n        /* \"#utility.yul\":5751:5754   */\n      dup3\n        /* \"#utility.yul\":5747:5761   */\n      add\n        /* \"#utility.yul\":5732:5761   */\n      swap1\n      pop\n        /* \"#utility.yul\":5608:5767   */\n      swap3\n      swap2\n      pop\n      pop\n      jump\t// out\n        /* \"#utility.yul\":5773:5912   */\n    tag_75:\n        /* \"#utility.yul\":5862:5868   */\n      dup3\n        /* \"#utility.yul\":5857:5860   */\n      dup2\n        /* \"#utility.yul\":5852:5855   */\n      dup4\n        /* \"#utility.yul\":5846:5869   */\n      mcopy\n        /* \"#utility.yul\":5903:5904   */\n      0x00\n        /* \"#utility.yul\":5894:5900   */\n      dup4\n        /* \"#utility.yul\":5889:5892   */\n      dup4\n        /* \"#utility.yul\":5885:5901   */\n      add\n        /* \"#utility.yul\":5878:5905   */\n      mstore\n        /* \"#utility.yul\":5773:5912   */\n      pop\n      pop\n      pop\n      jump\t// out\n        /* \"#utility.yul\":5918:6275   */\n    tag_76:\n        /* \"#utility.yul\":5996:5999   */\n      0x00\n        /* \"#utility.yul\":6024:6063   */\n      tag_173\n        /* \"#utility.yul\":6057:6062   */\n      dup3\n        /* \"#utility.yul\":6024:6063   */\n      tag_73\n      jump\t// in\n    tag_173:\n        /* \"#utility.yul\":6079:6140   */\n      tag_174\n        /* \"#utility.yul\":6133:6139   */\n      dup2\n        /* \"#utility.yul\":6128:6131   */\n      dup6\n        /* \"#utility.yul\":6079:6140   */\n      tag_74\n      jump\t// in\n    tag_174:\n        /* \"#utility.yul\":6072:6140   */\n      swap4\n      pop\n        /* \"#utility.yul\":6149:6214   */\n      tag_175\n        /* \"#utility.yul\":6207:6213   */\n      dup2\n        /* \"#utility.yul\":6202:6205   */\n      dup6\n        /* \"#utility.yul\":6195:6199   */\n      0x20\n        /* \"#utility.yul\":6188:6193   */\n      dup7\n        /* \"#utility.yul\":6184:6200   */\n      add\n        /* \"#utility.yul\":6149:6214   */\n      tag_75\n      jump\t// in\n    tag_175:\n        /* \"#utility.yul\":6239:6268   */\n      tag_176\n        /* \"#utility.yul\":6261:6267   */\n      dup2\n        /* \"#utility.yul\":6239:6268   */\n      tag_56\n      jump\t// in\n    tag_176:\n        /* \"#utility.yul\":6234:6237   */\n      dup5\n        /* \"#utility.yul\":6230:6269   */\n      add\n        /* \"#utility.yul\":6223:6269   */\n      swap2\n      pop\n        /* \"#utility.yul\":6000:6275   */\n      pop\n        /* \"#utility.yul\":5918:6275   */\n      swap3\n      swap2\n      pop\n      pop\n      jump\t// out\n        /* \"#utility.yul\":6281:6389   */\n    tag_77:\n        /* \"#utility.yul\":6358:6382   */\n      tag_178\n        /* \"#utility.yul\":6376:6381   */\n      dup2\n        /* \"#utility.yul\":6358:6382   */\n      tag_65\n      jump\t// in\n    tag_178:\n        /* \"#utility.yul\":6353:6356   */\n      dup3\n        /* \"#utility.yul\":6346:6383   */\n      mstore\n        /* \"#utility.yul\":6281:6389   */\n      pop\n      pop\n      jump\t// out\n        /* \"#utility.yul\":6395:6472   */\n    tag_78:\n        /* \"#utility.yul\":6432:6439   */\n      0x00\n        /* \"#utility.yul\":6461:6466   */\n      dup2\n        /* \"#utility.yul\":6450:6466   */\n      swap1\n      pop\n        /* \"#utility.yul\":6395:6472   */\n      swap2\n      swap1\n      pop\n      jump\t// out\n        /* \"#utility.yul\":6478:6586   */\n    tag_79:\n        /* \"#utility.yul\":6555:6579   */\n      tag_181\n        /* \"#utility.yul\":6573:6578   */\n      dup2\n        /* \"#utility.yul\":6555:6579   */\n      tag_78\n      jump\t// in\n    tag_181:\n        /* \"#utility.yul\":6550:6553   */\n      dup3\n        /* \"#utility.yul\":6543:6580   */\n      mstore\n        /* \"#utility.yul\":6478:6586   */\n      pop\n      pop\n      jump\t// out\n        /* \"#utility.yul\":6638:7405   */\n    tag_80:\n        /* \"#utility.yul\":6745:6748   */\n      0x00\n        /* \"#utility.yul\":6781:6785   */\n      0x60\n        /* \"#utility.yul\":6776:6779   */\n      dup4\n        /* \"#utility.yul\":6772:6786   */\n      add\n        /* \"#utility.yul\":6867:6871   */\n      0x00\n        /* \"#utility.yul\":6860:6865   */\n      dup4\n        /* \"#utility.yul\":6856:6872   */\n      add\n        /* \"#utility.yul\":6850:6873   */\n      mload\n        /* \"#utility.yul\":6920:6923   */\n      dup5\n        /* \"#utility.yul\":6914:6918   */\n      dup3\n        /* \"#utility.yul\":6910:6924   */\n      sub\n        /* \"#utility.yul\":6903:6907   */\n      0x00\n        /* \"#utility.yul\":6898:6901   */\n      dup7\n        /* \"#utility.yul\":6894:6908   */\n      add\n        /* \"#utility.yul\":6887:6925   */\n      mstore\n        /* \"#utility.yul\":6946:7019   */\n      tag_183\n        /* \"#utility.yul\":7014:7018   */\n      dup3\n        /* \"#utility.yul\":7000:7012   */\n      dup3\n        /* \"#utility.yul\":6946:7019   */\n      tag_76\n      jump\t// in\n    tag_183:\n        /* \"#utility.yul\":6938:7019   */\n      swap2\n      pop\n        /* \"#utility.yul\":6796:7030   */\n      pop\n        /* \"#utility.yul\":7113:7117   */\n      0x20\n        /* \"#utility.yul\":7106:7111   */\n      dup4\n        /* \"#utility.yul\":7102:7118   */\n      add\n        /* \"#utility.yul\":7096:7119   */\n      mload\n        /* \"#utility.yul\":7132:7195   */\n      tag_184\n        /* \"#utility.yul\":7189:7193   */\n      0x20\n        /* \"#utility.yul\":7184:7187   */\n      dup7\n        /* \"#utility.yul\":7180:7194   */\n      add\n        /* \"#utility.yul\":7166:7178   */\n      dup3\n        /* \"#utility.yul\":7132:7195   */\n      tag_77\n      jump\t// in\n    tag_184:\n        /* \"#utility.yul\":7040:7205   */\n      pop\n        /* \"#utility.yul\":7286:7290   */\n      0x40\n        /* \"#utility.yul\":7279:7284   */\n      dup4\n        /* \"#utility.yul\":7275:7291   */\n      add\n        /* \"#utility.yul\":7269:7292   */\n      mload\n        /* \"#utility.yul\":7305:7368   */\n      tag_185\n        /* \"#utility.yul\":7362:7366   */\n      0x40\n        /* \"#utility.yul\":7357:7360   */\n      dup7\n        /* \"#utility.yul\":7353:7367   */\n      add\n        /* \"#utility.yul\":7339:7351   */\n      dup3\n        /* \"#utility.yul\":7305:7368   */\n      tag_79\n      jump\t// in\n    tag_185:\n        /* \"#utility.yul\":7215:7378   */\n      pop\n        /* \"#utility.yul\":7395:7399   */\n      dup1\n        /* \"#utility.yul\":7388:7399   */\n      swap2\n      pop\n        /* \"#utility.yul\":6750:7405   */\n      pop\n        /* \"#utility.yul\":6638:7405   */\n      swap3\n      swap2\n      pop\n      pop\n      jump\t// out\n        /* \"#utility.yul\":7411:7760   */\n    tag_17:\n        /* \"#utility.yul\":7542:7546   */\n      0x00\n        /* \"#utility.yul\":7580:7582   */\n      0x20\n        /* \"#utility.yul\":7569:7578   */\n      dup3\n        /* \"#utility.yul\":7565:7583   */\n      add\n        /* \"#utility.yul\":7557:7583   */\n      swap1\n      pop\n        /* \"#utility.yul\":7629:7638   */\n      dup2\n        /* \"#utility.yul\":7623:7627   */\n      dup2\n        /* \"#utility.yul\":7619:7639   */\n      sub\n        /* \"#utility.yul\":7615:7616   */\n      0x00\n        /* \"#utility.yul\":7604:7613   */\n      dup4\n        /* \"#utility.yul\":7600:7617   */\n      add\n        /* \"#utility.yul\":7593:7640   */\n      mstore\n        /* \"#utility.yul\":7657:7753   */\n      tag_187\n        /* \"#utility.yul\":7748:7752   */\n      dup2\n        /* \"#utility.yul\":7739:7745   */\n      dup5\n        /* \"#utility.yul\":7657:7753   */\n      tag_80\n      jump\t// in\n    tag_187:\n        /* \"#utility.yul\":7649:7753   */\n      swap1\n      pop\n        /* \"#utility.yul\":7411:7760   */\n      swap3\n      swap2\n      pop\n      pop\n      jump\t// out\n        /* \"#utility.yul\":7766:7888   */\n    tag_81:\n        /* \"#utility.yul\":7839:7863   */\n      tag_189\n        /* \"#utility.yul\":7857:7862   */\n      dup2\n        /* \"#utility.yul\":7839:7863   */\n      tag_78\n      jump\t// in\n    tag_189:\n        /* \"#utility.yul\":7832:7837   */\n      dup2\n        /* \"#utility.yul\":7829:7864   */\n      eq\n        /* \"#utility.yul\":7819:7882   */\n      tag_190\n      jumpi\n        /* \"#utility.yul\":7878:7879   */\n      0x00\n        /* \"#utility.yul\":7875:7876   */\n      0x00\n        /* \"#utility.yul\":7868:7880   */\n      revert\n        /* \"#utility.yul\":7819:7882   */\n    tag_190:\n        /* \"#utility.yul\":7766:7888   */\n      pop\n      jump\t// out\n        /* \"#utility.yul\":7894:8033   */\n    tag_82:\n        /* \"#utility.yul\":7940:7945   */\n      0x00\n        /* \"#utility.yul\":7978:7984   */\n      dup2\n        /* \"#utility.yul\":7965:7985   */\n      calldataload\n        /* \"#utility.yul\":7956:7985   */\n      swap1\n      pop\n        /* \"#utility.yul\":7994:8027   */\n      tag_192\n        /* \"#utility.yul\":8021:8026   */\n      dup2\n        /* \"#utility.yul\":7994:8027   */\n      tag_81\n      jump\t// in\n    tag_192:\n        /* \"#utility.yul\":7894:8033   */\n      swap3\n      swap2\n      pop\n      pop\n      jump\t// out\n        /* \"#utility.yul\":8039:9058   */\n    tag_20:\n        /* \"#utility.yul\":8140:8146   */\n      0x00\n        /* \"#utility.yul\":8148:8154   */\n      0x00\n        /* \"#utility.yul\":8156:8162   */\n      0x00\n        /* \"#utility.yul\":8164:8170   */\n      0x00\n        /* \"#utility.yul\":8172:8178   */\n      0x00\n        /* \"#utility.yul\":8221:8223   */\n      0x60\n        /* \"#utility.yul\":8209:8218   */\n      dup7\n        /* \"#utility.yul\":8200:8207   */\n      dup9\n        /* \"#utility.yul\":8196:8219   */\n      sub\n        /* \"#utility.yul\":8192:8224   */\n      slt\n        /* \"#utility.yul\":8189:8308   */\n      iszero\n      tag_194\n      jumpi\n        /* \"#utility.yul\":8227:8306   */\n      tag_195\n      tag_52\n      jump\t// in\n    tag_195:\n        /* \"#utility.yul\":8189:8308   */\n    tag_194:\n        /* \"#utility.yul\":8375:8376   */\n      0x00\n        /* \"#utility.yul\":8364:8373   */\n      dup7\n        /* \"#utility.yul\":8360:8377   */\n      add\n        /* \"#utility.yul\":8347:8378   */\n      calldataload\n        /* \"#utility.yul\":8405:8423   */\n      0xffffffffffffffff\n        /* \"#utility.yul\":8397:8403   */\n      dup2\n        /* \"#utility.yul\":8394:8424   */\n      gt\n        /* \"#utility.yul\":8391:8508   */\n      iszero\n      tag_196\n      jumpi\n        /* \"#utility.yul\":8427:8506   */\n      tag_197\n      tag_53\n      jump\t// in\n    tag_197:\n        /* \"#utility.yul\":8391:8508   */\n    tag_196:\n        /* \"#utility.yul\":8540:8605   */\n      tag_198\n        /* \"#utility.yul\":8597:8604   */\n      dup9\n        /* \"#utility.yul\":8588:8594   */\n      dup3\n        /* \"#utility.yul\":8577:8586   */\n      dup10\n        /* \"#utility.yul\":8573:8595   */\n      add\n        /* \"#utility.yul\":8540:8605   */\n      tag_72\n      jump\t// in\n    tag_198:\n        /* \"#utility.yul\":8522:8605   */\n      swap6\n      pop\n      swap6\n      pop\n        /* \"#utility.yul\":8318:8615   */\n      pop\n        /* \"#utility.yul\":8682:8684   */\n      0x20\n        /* \"#utility.yul\":8671:8680   */\n      dup7\n        /* \"#utility.yul\":8667:8685   */\n      add\n        /* \"#utility.yul\":8654:8686   */\n      calldataload\n        /* \"#utility.yul\":8713:8731   */\n      0xffffffffffffffff\n        /* \"#utility.yul\":8705:8711   */\n      dup2\n        /* \"#utility.yul\":8702:8732   */\n      gt\n        /* \"#utility.yul\":8699:8816   */\n      iszero\n      tag_199\n      jumpi\n        /* \"#utility.yul\":8735:8814   */\n      tag_200\n      tag_53\n      jump\t// in\n    tag_200:\n        /* \"#utility.yul\":8699:8816   */\n    tag_199:\n        /* \"#utility.yul\":8848:8913   */\n      tag_201\n        /* \"#utility.yul\":8905:8912   */\n      dup9\n        /* \"#utility.yul\":8896:8902   */\n      dup3\n        /* \"#utility.yul\":8885:8894   */\n      dup10\n        /* \"#utility.yul\":8881:8903   */\n      add\n        /* \"#utility.yul\":8848:8913   */\n      tag_72\n      jump\t// in\n    tag_201:\n        /* \"#utility.yul\":8830:8913   */\n      swap4\n      pop\n      swap4\n      pop\n        /* \"#utility.yul\":8625:8923   */\n      pop\n        /* \"#utility.yul\":8962:8964   */\n      0x40\n        /* \"#utility.yul\":8988:9041   */\n      tag_202\n        /* \"#utility.yul\":9033:9040   */\n      dup9\n        /* \"#utility.yul\":9024:9030   */\n      dup3\n        /* \"#utility.yul\":9013:9022   */\n      dup10\n        /* \"#utility.yul\":9009:9031   */\n      add\n        /* \"#utility.yul\":8988:9041   */\n      tag_82\n      jump\t// in\n    tag_202:\n        /* \"#utility.yul\":8978:9041   */\n      swap2\n      pop\n        /* \"#utility.yul\":8933:9051   */\n      pop\n        /* \"#utility.yul\":8039:9058   */\n      swap3\n      swap6\n      pop\n      swap3\n      swap6\n      swap1\n      swap4\n      pop\n      jump\t// out\n        /* \"#utility.yul\":9064:9212   */\n    tag_83:\n        /* \"#utility.yul\":9166:9177   */\n      0x00\n        /* \"#utility.yul\":9203:9206   */\n      dup2\n        /* \"#utility.yul\":9188:9206   */\n      swap1\n      pop\n        /* \"#utility.yul\":9064:9212   */\n      swap3\n      swap2\n      pop\n      pop\n      jump\t// out\n        /* \"#utility.yul\":9242:9572   */\n    tag_84:\n        /* \"#utility.yul\":9358:9361   */\n      0x00\n        /* \"#utility.yul\":9379:9468   */\n      tag_205\n        /* \"#utility.yul\":9461:9467   */\n      dup4\n        /* \"#utility.yul\":9456:9459   */\n      dup6\n        /* \"#utility.yul\":9379:9468   */\n      tag_83\n      jump\t// in\n    tag_205:\n        /* \"#utility.yul\":9372:9468   */\n      swap4\n      pop\n        /* \"#utility.yul\":9478:9534   */\n      tag_206\n        /* \"#utility.yul\":9527:9533   */\n      dup4\n        /* \"#utility.yul\":9522:9525   */\n      dup6\n        /* \"#utility.yul\":9515:9520   */\n      dup5\n        /* \"#utility.yul\":9478:9534   */\n      tag_61\n      jump\t// in\n    tag_206:\n        /* \"#utility.yul\":9559:9565   */\n      dup3\n        /* \"#utility.yul\":9554:9557   */\n      dup5\n        /* \"#utility.yul\":9550:9566   */\n      add\n        /* \"#utility.yul\":9543:9566   */\n      swap1\n      pop\n        /* \"#utility.yul\":9242:9572   */\n      swap4\n      swap3\n      pop\n      pop\n      pop\n      jump\t// out\n        /* \"#utility.yul\":9578:9873   */\n    tag_26:\n        /* \"#utility.yul\":9720:9723   */\n      0x00\n        /* \"#utility.yul\":9742:9847   */\n      tag_208\n        /* \"#utility.yul\":9843:9846   */\n      dup3\n        /* \"#utility.yul\":9834:9840   */\n      dup5\n        /* \"#utility.yul\":9826:9832   */\n      dup7\n        /* \"#utility.yul\":9742:9847   */\n      tag_84\n      jump\t// in\n    tag_208:\n        /* \"#utility.yul\":9735:9847   */\n      swap2\n      pop\n        /* \"#utility.yul\":9864:9867   */\n      dup2\n        /* \"#utility.yul\":9857:9867   */\n      swap1\n      pop\n        /* \"#utility.yul\":9578:9873   */\n      swap4\n      swap3\n      pop\n      pop\n      pop\n      jump\t// out\n        /* \"#utility.yul\":9879:10059   */\n    tag_85:\n        /* \"#utility.yul\":9927:10004   */\n      0x4e487b7100000000000000000000000000000000000000000000000000000000\n        /* \"#utility.yul\":9924:9925   */\n      0x00\n        /* \"#utility.yul\":9917:10005   */\n      mstore\n        /* \"#utility.yul\":10024:10028   */\n      0x22\n        /* \"#utility.yul\":10021:10022   */\n      0x04\n        /* \"#utility.yul\":10014:10029   */\n      mstore\n        /* \"#utility.yul\":10048:10052   */\n      0x24\n        /* \"#utility.yul\":10045:10046   */\n      0x00\n        /* \"#utility.yul\":10038:10053   */\n      revert\n        /* \"#utility.yul\":10065:10385   */\n    tag_28:\n        /* \"#utility.yul\":10109:10115   */\n      0x00\n        /* \"#utility.yul\":10146:10147   */\n      0x02\n        /* \"#utility.yul\":10140:10144   */\n      dup3\n        /* \"#utility.yul\":10136:10148   */\n      div\n        /* \"#utility.yul\":10126:10148   */\n      swap1\n      pop\n        /* \"#utility.yul\":10193:10194   */\n      0x01\n        /* \"#utility.yul\":10187:10191   */\n      dup3\n        /* \"#utility.yul\":10183:10195   */\n      and\n        /* \"#utility.yul\":10214:10232   */\n      dup1\n        /* \"#utility.yul\":10204:10285   */\n      tag_211\n      jumpi\n        /* \"#utility.yul\":10270:10274   */\n      0x7f\n        /* \"#utility.yul\":10262:10268   */\n      dup3\n        /* \"#utility.yul\":10258:10275   */\n      and\n        /* \"#utility.yul\":10248:10275   */\n      swap2\n      pop\n        /* \"#utility.yul\":10204:10285   */\n    tag_211:\n        /* \"#utility.yul\":10332:10334   */\n      0x20\n        /* \"#utility.yul\":10324:10330   */\n      dup3\n        /* \"#utility.yul\":10321:10335   */\n      lt\n        /* \"#utility.yul\":10301:10319   */\n      dup2\n        /* \"#utility.yul\":10298:10336   */\n      sub\n        /* \"#utility.yul\":10295:10379   */\n      tag_212\n      jumpi\n        /* \"#utility.yul\":10351:10369   */\n      tag_213\n      tag_85\n      jump\t// in\n    tag_213:\n        /* \"#utility.yul\":10295:10379   */\n    tag_212:\n        /* \"#utility.yul\":10116:10385   */\n      pop\n        /* \"#utility.yul\":10065:10385   */\n      swap2\n      swap1\n      pop\n      jump\t// out\n        /* \"#utility.yul\":10391:10560   */\n    tag_86:\n        /* \"#utility.yul\":10475:10486   */\n      0x00\n        /* \"#utility.yul\":10509:10515   */\n      dup3\n        /* \"#utility.yul\":10504:10507   */\n      dup3\n        /* \"#utility.yul\":10497:10516   */\n      mstore\n        /* \"#utility.yul\":10549:10553   */\n      0x20\n        /* \"#utility.yul\":10544:10547   */\n      dup3\n        /* \"#utility.yul\":10540:10554   */\n      add\n        /* \"#utility.yul\":10525:10554   */\n      swap1\n      pop\n        /* \"#utility.yul\":10391:10560   */\n      swap3\n      swap2\n      pop\n      pop\n      jump\t// out\n        /* \"#utility.yul\":10566:10748   */\n    tag_87:\n        /* \"#utility.yul\":10706:10740   */\n      0x54686973206c696e6b496420616c72656164792068617320616e206f776e6572\n        /* \"#utility.yul\":10702:10703   */\n      0x00\n        /* \"#utility.yul\":10694:10700   */\n      dup3\n        /* \"#utility.yul\":10690:10704   */\n      add\n        /* \"#utility.yul\":10683:10741   */\n      mstore\n        /* \"#utility.yul\":10566:10748   */\n      pop\n      jump\t// out\n        /* \"#utility.yul\":10754:11120   */\n    tag_88:\n        /* \"#utility.yul\":10896:10899   */\n      0x00\n        /* \"#utility.yul\":10917:10984   */\n      tag_217\n        /* \"#utility.yul\":10981:10983   */\n      0x20\n        /* \"#utility.yul\":10976:10979   */\n      dup4\n        /* \"#utility.yul\":10917:10984   */\n      tag_86\n      jump\t// in\n    tag_217:\n        /* \"#utility.yul\":10910:10984   */\n      swap2\n      pop\n        /* \"#utility.yul\":10993:11086   */\n      tag_218\n        /* \"#utility.yul\":11082:11085   */\n      dup3\n        /* \"#utility.yul\":10993:11086   */\n      tag_87\n      jump\t// in\n    tag_218:\n        /* \"#utility.yul\":11111:11113   */\n      0x20\n        /* \"#utility.yul\":11106:11109   */\n      dup3\n        /* \"#utility.yul\":11102:11114   */\n      add\n        /* \"#utility.yul\":11095:11114   */\n      swap1\n      pop\n        /* \"#utility.yul\":10754:11120   */\n      swap2\n      swap1\n      pop\n      jump\t// out\n        /* \"#utility.yul\":11126:11545   */\n    tag_46:\n        /* \"#utility.yul\":11292:11296   */\n      0x00\n        /* \"#utility.yul\":11330:11332   */\n      0x20\n        /* \"#utility.yul\":11319:11328   */\n      dup3\n        /* \"#utility.yul\":11315:11333   */\n      add\n        /* \"#utility.yul\":11307:11333   */\n      swap1\n      pop\n        /* \"#utility.yul\":11379:11388   */\n      dup2\n        /* \"#utility.yul\":11373:11377   */\n      dup2\n        /* \"#utility.yul\":11369:11389   */\n      sub\n        /* \"#utility.yul\":11365:11366   */\n      0x00\n        /* \"#utility.yul\":11354:11363   */\n      dup4\n        /* \"#utility.yul\":11350:11367   */\n      add\n        /* \"#utility.yul\":11343:11390   */\n      mstore\n        /* \"#utility.yul\":11407:11538   */\n      tag_220\n        /* \"#utility.yul\":11533:11537   */\n      dup2\n        /* \"#utility.yul\":11407:11538   */\n      tag_88\n      jump\t// in\n    tag_220:\n        /* \"#utility.yul\":11399:11538   */\n      swap1\n      pop\n        /* \"#utility.yul\":11126:11545   */\n      swap2\n      swap1\n      pop\n      jump\t// out\n        /* \"#utility.yul\":11551:11692   */\n    tag_89:\n        /* \"#utility.yul\":11600:11604   */\n      0x00\n        /* \"#utility.yul\":11623:11626   */\n      dup2\n        /* \"#utility.yul\":11615:11626   */\n      swap1\n      pop\n        /* \"#utility.yul\":11646:11649   */\n      dup2\n        /* \"#utility.yul\":11643:11644   */\n      0x00\n        /* \"#utility.yul\":11636:11650   */\n      mstore\n        /* \"#utility.yul\":11680:11684   */\n      0x20\n        /* \"#utility.yul\":11677:11678   */\n      0x00\n        /* \"#utility.yul\":11667:11685   */\n      keccak256\n        /* \"#utility.yul\":11659:11685   */\n      swap1\n      pop\n        /* \"#utility.yul\":11551:11692   */\n      swap2\n      swap1\n      pop\n      jump\t// out\n        /* \"#utility.yul\":11698:11791   */\n    tag_90:\n        /* \"#utility.yul\":11735:11741   */\n      0x00\n        /* \"#utility.yul\":11782:11784   */\n      0x20\n        /* \"#utility.yul\":11777:11779   */\n      0x1f\n        /* \"#utility.yul\":11770:11775   */\n      dup4\n        /* \"#utility.yul\":11766:11780   */\n      add\n        /* \"#utility.yul\":11762:11785   */\n      div\n        /* \"#utility.yul\":11752:11785   */\n      swap1\n      pop\n        /* \"#utility.yul\":11698:11791   */\n      swap2\n      swap1\n      pop\n      jump\t// out\n        /* \"#utility.yul\":11797:11904   */\n    tag_91:\n        /* \"#utility.yul\":11841:11849   */\n      0x00\n        /* \"#utility.yul\":11891:11896   */\n      dup3\n        /* \"#utility.yul\":11885:11889   */\n      dup3\n        /* \"#utility.yul\":11881:11897   */\n      shl\n        /* \"#utility.yul\":11860:11897   */\n      swap1\n      pop\n        /* \"#utility.yul\":11797:11904   */\n      swap3\n      swap2\n      pop\n      pop\n      jump\t// out\n        /* \"#utility.yul\":11910:12303   */\n    tag_92:\n        /* \"#utility.yul\":11979:11985   */\n      0x00\n        /* \"#utility.yul\":12029:12030   */\n      0x08\n        /* \"#utility.yul\":12017:12027   */\n      dup4\n        /* \"#utility.yul\":12013:12031   */\n      mul\n        /* \"#utility.yul\":12052:12149   */\n      tag_225\n        /* \"#utility.yul\":12082:12148   */\n      0xffffffffffffffffffffffffffffffffffffffffffffffffffffffffffffffff\n        /* \"#utility.yul\":12071:12080   */\n      dup3\n        /* \"#utility.yul\":12052:12149   */\n      tag_91\n      jump\t// in\n    tag_225:\n        /* \"#utility.yul\":12170:12209   */\n      tag_226\n        /* \"#utility.yul\":12200:12208   */\n      dup7\n        /* \"#utility.yul\":12189:12198   */\n      dup4\n        /* \"#utility.yul\":12170:12209   */\n      tag_91\n      jump\t// in\n    tag_226:\n        /* \"#utility.yul\":12158:12209   */\n      swap6\n      pop\n        /* \"#utility.yul\":12242:12246   */\n      dup1\n        /* \"#utility.yul\":12238:12247   */\n      not\n        /* \"#utility.yul\":12231:12236   */\n      dup5\n        /* \"#utility.yul\":12227:12248   */\n      and\n        /* \"#utility.yul\":12218:12248   */\n      swap4\n      pop\n        /* \"#utility.yul\":12291:12295   */\n      dup1\n        /* \"#utility.yul\":12281:12289   */\n      dup7\n        /* \"#utility.yul\":12277:12296   */\n      and\n        /* \"#utility.yul\":12270:12275   */\n      dup5\n        /* \"#utility.yul\":12267:12297   */\n      or\n        /* \"#utility.yul\":12257:12297   */\n      swap3\n      pop\n        /* \"#utility.yul\":11986:12303   */\n      pop\n      pop\n        /* \"#utility.yul\":11910:12303   */\n      swap4\n      swap3\n      pop\n      pop\n      pop\n      jump\t// out\n        /* \"#utility.yul\":12309:12369   */\n    tag_93:\n        /* \"#utility.yul\":12337:12340   */\n      0x00\n        /* \"#utility.yul\":12358:12363   */\n      dup2\n        /* \"#utility.yul\":12351:12363   */\n      swap1\n      pop\n        /* \"#utility.yul\":12309:12369   */\n      swap2\n      swap1\n      pop\n      jump\t// out\n        /* \"#utility.yul\":12375:12517   */\n    tag_94:\n        /* \"#utility.yul\":12425:12434   */\n      0x00\n        /* \"#utility.yul\":12458:12511   */\n      tag_229\n        /* \"#utility.yul\":12476:12510   */\n      tag_230\n        /* \"#utility.yul\":12485:12509   */\n      tag_231\n        /* \"#utility.yul\":12503:12508   */\n      dup5\n        /* \"#utility.yul\":12485:12509   */\n      tag_78\n      jump\t// in\n    tag_231:\n        /* \"#utility.yul\":12476:12510   */\n      tag_93\n      jump\t// in\n    tag_230:\n        /* \"#utility.yul\":12458:12511   */\n      tag_78\n      jump\t// in\n    tag_229:\n        /* \"#utility.yul\":12445:12511   */\n      swap1\n      pop\n        /* \"#utility.yul\":12375:12517   */\n      swap2\n      swap1\n      pop\n      jump\t// out\n        /* \"#utility.yul\":12523:12598   */\n    tag_95:\n        /* \"#utility.yul\":12566:12569   */\n      0x00\n        /* \"#utility.yul\":12587:12592   */\n      dup2\n        /* \"#utility.yul\":12580:12592   */\n      swap1\n      pop\n        /* \"#utility.yul\":12523:12598   */\n      swap2\n      swap1\n      pop\n      jump\t// out\n        /* \"#utility.yul\":12604:12873   */\n    tag_96:\n        /* \"#utility.yul\":12714:12753   */\n      tag_234\n        /* \"#utility.yul\":12745:12752   */\n      dup4\n        /* \"#utility.yul\":12714:12753   */\n      tag_94\n      jump\t// in\n    tag_234:\n        /* \"#utility.yul\":12775:12866   */\n      tag_235\n        /* \"#utility.yul\":12824:12865   */\n      tag_236\n        /* \"#utility.yul\":12848:12864   */\n      dup3\n        /* \"#utility.yul\":12824:12865   */\n      tag_95\n      jump\t// in\n    tag_236:\n        /* \"#utility.yul\":12816:12822   */\n      dup5\n        /* \"#utility.yul\":12809:12813   */\n      dup5\n        /* \"#utility.yul\":12803:12814   */\n      sload\n        /* \"#utility.yul\":12775:12866   */\n      tag_92\n      jump\t// in\n    tag_235:\n        /* \"#utility.yul\":12769:12773   */\n      dup3\n        /* \"#utility.yul\":12762:12867   */\n      sstore\n        /* \"#utility.yul\":12680:12873   */\n      pop\n        /* \"#utility.yul\":12604:12873   */\n      pop\n      pop\n      pop\n      jump\t// out\n        /* \"#utility.yul\":12879:12952   */\n    tag_97:\n        /* \"#utility.yul\":12924:12927   */\n      0x00\n        /* \"#utility.yul\":12945:12946   */\n      0x00\n        /* \"#utility.yul\":12938:12946   */\n      swap1\n      pop\n        /* \"#utility.yul\":12879:12952   */\n      swap1\n      jump\t// out\n        /* \"#utility.yul\":12958:13147   */\n    tag_98:\n        /* \"#utility.yul\":13035:13067   */\n      tag_239\n      tag_97\n      jump\t// in\n    tag_239:\n        /* \"#utility.yul\":13076:13141   */\n      tag_240\n        /* \"#utility.yul\":13134:13140   */\n      dup2\n        /* \"#utility.yul\":13126:13132   */\n      dup5\n        /* \"#utility.yul\":13120:13124   */\n      dup5\n        /* \"#utility.yul\":13076:13141   */\n      tag_96\n      jump\t// in\n    tag_240:\n        /* \"#utility.yul\":13011:13147   */\n      pop\n        /* \"#utility.yul\":12958:13147   */\n      pop\n      pop\n      jump\t// out\n        /* \"#utility.yul\":13153:13339   */\n    tag_99:\n        /* \"#utility.yul\":13213:13333   */\n    tag_242:\n        /* \"#utility.yul\":13230:13233   */\n      dup2\n        /* \"#utility.yul\":13223:13228   */\n      dup2\n        /* \"#utility.yul\":13220:13234   */\n      lt\n        /* \"#utility.yul\":13213:13333   */\n      iszero\n      tag_244\n      jumpi\n        /* \"#utility.yul\":13284:13323   */\n      tag_245\n        /* \"#utility.yul\":13321:13322   */\n      0x00\n        /* \"#utility.yul\":13314:13319   */\n      dup3\n        /* \"#utility.yul\":13284:13323   */\n      tag_98\n      jump\t// in\n    tag_245:\n        /* \"#utility.yul\":13257:13258   */\n      0x01\n        /* \"#utility.yul\":13250:13255   */\n      dup2\n        /* \"#utility.yul\":13246:13259   */\n      add\n        /* \"#utility.yul\":13237:13259   */\n      swap1\n      pop\n        /* \"#utility.yul\":13213:13333   */\n      jump(tag_242)\n    tag_244:\n        /* \"#utility.yul\":13153:13339   */\n      pop\n      pop\n      jump\t// out\n        /* \"#utility.yul\":13345:13888   */\n    tag_100:\n        /* \"#utility.yul\":13446:13448   */\n      0x1f\n        /* \"#utility.yul\":13441:13444   */\n      dup3\n        /* \"#utility.yul\":13438:13449   */\n      gt\n        /* \"#utility.yul\":13435:13881   */\n      iszero\n      tag_247\n      jumpi\n        /* \"#utility.yul\":13480:13518   */\n      tag_248\n        /* \"#utility.yul\":13512:13517   */\n      dup2\n        /* \"#utility.yul\":13480:13518   */\n      tag_89\n      jump\t// in\n    tag_248:\n        /* \"#utility.yul\":13564:13593   */\n      tag_249\n        /* \"#utility.yul\":13582:13592   */\n      dup5\n        /* \"#utility.yul\":13564:13593   */\n      tag_90\n      jump\t// in\n    tag_249:\n        /* \"#utility.yul\":13554:13562   */\n      dup2\n        /* \"#utility.yul\":13550:13594   */\n      add\n        /* \"#utility.yul\":13747:13749   */\n      0x20\n        /* \"#utility.yul\":13735:13745   */\n      dup6\n        /* \"#utility.yul\":13732:13750   */\n      lt\n        /* \"#utility.yul\":13729:13778   */\n      iszero\n      tag_250\n      jumpi\n        /* \"#utility.yul\":13768:13776   */\n      dup2\n        /* \"#utility.yul\":13753:13776   */\n      swap1\n      pop\n        /* \"#utility.yul\":13729:13778   */\n    tag_250:\n        /* \"#utility.yul\":13791:13871   */\n      tag_251\n        /* \"#utility.yul\":13847:13869   */\n      tag_252\n        /* \"#utility.yul\":13865:13868   */\n      dup6\n        /* \"#utility.yul\":13847:13869   */\n      tag_90\n      jump\t// in\n    tag_252:\n        /* \"#utility.yul\":13837:13845   */\n      dup4\n        /* \"#utility.yul\":13833:13870   */\n      add\n        /* \"#utility.yul\":13820:13831   */\n      dup3\n        /* \"#utility.yul\":13791:13871   */\n      tag_99\n      jump\t// in\n    tag_251:\n        /* \"#utility.yul\":13450:13881   */\n      pop\n      pop\n        /* \"#utility.yul\":13435:13881   */\n    tag_247:\n        /* \"#utility.yul\":13345:13888   */\n      pop\n      pop\n      pop\n      jump\t// out\n        /* \"#utility.yul\":13894:14011   */\n    tag_101:\n        /* \"#utility.yul\":13948:13956   */\n      0x00\n        /* \"#utility.yul\":13998:14003   */\n      dup3\n        /* \"#utility.yul\":13992:13996   */\n      dup3\n        /* \"#utility.yul\":13988:14004   */\n      shr\n        /* \"#utility.yul\":13967:14004   */\n      swap1\n      pop\n        /* \"#utility.yul\":13894:14011   */\n      swap3\n      swap2\n      pop\n      pop\n      jump\t// out\n        /* \"#utility.yul\":14017:14186   */\n    tag_102:\n        /* \"#utility.yul\":14061:14067   */\n      0x00\n        /* \"#utility.yul\":14094:14145   */\n      tag_255\n        /* \"#utility.yul\":14142:14143   */\n      0x00\n        /* \"#utility.yul\":14138:14144   */\n      not\n        /* \"#utility.yul\":14130:14135   */\n      dup5\n        /* \"#utility.yul\":14127:14128   */\n      0x08\n        /* \"#utility.yul\":14123:14136   */\n      mul\n        /* \"#utility.yul\":14094:14145   */\n      tag_101\n      jump\t// in\n    tag_255:\n        /* \"#utility.yul\":14090:14146   */\n      not\n        /* \"#utility.yul\":14175:14179   */\n      dup1\n        /* \"#utility.yul\":14169:14173   */\n      dup4\n        /* \"#utility.yul\":14165:14180   */\n      and\n        /* \"#utility.yul\":14155:14180   */\n      swap2\n      pop\n        /* \"#utility.yul\":14068:14186   */\n      pop\n        /* \"#utility.yul\":14017:14186   */\n      swap3\n      swap2\n      pop\n      pop\n      jump\t// out\n        /* \"#utility.yul\":14191:14486   */\n    tag_103:\n        /* \"#utility.yul\":14267:14271   */\n      0x00\n        /* \"#utility.yul\":14413:14442   */\n      tag_257\n        /* \"#utility.yul\":14438:14441   */\n      dup4\n        /* \"#utility.yul\":14432:14436   */\n      dup4\n        /* \"#utility.yul\":14413:14442   */\n      tag_102\n      jump\t// in\n    tag_257:\n        /* \"#utility.yul\":14405:14442   */\n      swap2\n      pop\n        /* \"#utility.yul\":14475:14478   */\n      dup3\n        /* \"#utility.yul\":14472:14473   */\n      0x02\n        /* \"#utility.yul\":14468:14479   */\n      mul\n        /* \"#utility.yul\":14462:14466   */\n      dup3\n        /* \"#utility.yul\":14459:14480   */\n      or\n        /* \"#utility.yul\":14451:14480   */\n      swap1\n      pop\n        /* \"#utility.yul\":14191:14486   */\n      swap3\n      swap2\n      pop\n      pop\n      jump\t// out\n        /* \"#utility.yul\":14491:15886   */\n    tag_49:\n        /* \"#utility.yul\":14608:14645   */\n      tag_259\n        /* \"#utility.yul\":14641:14644   */\n      dup3\n        /* \"#utility.yul\":14608:14645   */\n      tag_73\n      jump\t// in\n    tag_259:\n        /* \"#utility.yul\":14710:14728   */\n      0xffffffffffffffff\n        /* \"#utility.yul\":14702:14708   */\n      dup2\n        /* \"#utility.yul\":14699:14729   */\n      gt\n        /* \"#utility.yul\":14696:14752   */\n      iszero\n      tag_260\n      jumpi\n        /* \"#utility.yul\":14732:14750   */\n      tag_261\n      tag_57\n      jump\t// in\n    tag_261:\n        /* \"#utility.yul\":14696:14752   */\n    tag_260:\n        /* \"#utility.yul\":14776:14814   */\n      tag_262\n        /* \"#utility.yul\":14808:14812   */\n      dup3\n        /* \"#utility.yul\":14802:14813   */\n      sload\n        /* \"#utility.yul\":14776:14814   */\n      tag_28\n      jump\t// in\n    tag_262:\n        /* \"#utility.yul\":14861:14928   */\n      tag_263\n        /* \"#utility.yul\":14921:14927   */\n      dup3\n        /* \"#utility.yul\":14913:14919   */\n      dup3\n        /* \"#utility.yul\":14907:14911   */\n      dup6\n        /* \"#utility.yul\":14861:14928   */\n      tag_100\n      jump\t// in\n    tag_263:\n        /* \"#utility.yul\":14955:14956   */\n      0x00\n        /* \"#utility.yul\":14979:14983   */\n      0x20\n        /* \"#utility.yul\":14966:14983   */\n      swap1\n      pop\n        /* \"#utility.yul\":15011:15013   */\n      0x1f\n        /* \"#utility.yul\":15003:15009   */\n      dup4\n        /* \"#utility.yul\":15000:15014   */\n      gt\n        /* \"#utility.yul\":15028:15029   */\n      0x01\n        /* \"#utility.yul\":15023:15641   */\n      dup2\n      eq\n      tag_265\n      jumpi\n        /* \"#utility.yul\":15685:15686   */\n      0x00\n        /* \"#utility.yul\":15702:15708   */\n      dup5\n        /* \"#utility.yul\":15699:15776   */\n      iszero\n      tag_266\n      jumpi\n        /* \"#utility.yul\":15751:15760   */\n      dup3\n        /* \"#utility.yul\":15746:15749   */\n      dup8\n        /* \"#utility.yul\":15742:15761   */\n      add\n        /* \"#utility.yul\":15736:15762   */\n      mload\n        /* \"#utility.yul\":15727:15762   */\n      swap1\n      pop\n        /* \"#utility.yul\":15699:15776   */\n    tag_266:\n        /* \"#utility.yul\":15802:15869   */\n      tag_267\n        /* \"#utility.yul\":15862:15868   */\n      dup6\n        /* \"#utility.yul\":15855:15860   */\n      dup3\n        /* \"#utility.yul\":15802:15869   */\n      tag_103\n      jump\t// in\n    tag_267:\n        /* \"#utility.yul\":15796:15800   */\n      dup7\n        /* \"#utility.yul\":15789:15870   */\n      sstore\n        /* \"#utility.yul\":15658:15880   */\n      pop\n        /* \"#utility.yul\":14993:15880   */\n      jump(tag_264)\n        /* \"#utility.yul\":15023:15641   */\n    tag_265:\n        /* \"#utility.yul\":15075:15079   */\n      0x1f\n        /* \"#utility.yul\":15071:15080   */\n      not\n        /* \"#utility.yul\":15063:15069   */\n      dup5\n        /* \"#utility.yul\":15059:15081   */\n      and\n        /* \"#utility.yul\":15109:15146   */\n      tag_268\n        /* \"#utility.yul\":15141:15145   */\n      dup7\n        /* \"#utility.yul\":15109:15146   */\n      tag_89\n      jump\t// in\n    tag_268:\n        /* \"#utility.yul\":15168:15169   */\n      0x00\n        /* \"#utility.yul\":15182:15390   */\n    tag_269:\n        /* \"#utility.yul\":15196:15203   */\n      dup3\n        /* \"#utility.yul\":15193:15194   */\n      dup2\n        /* \"#utility.yul\":15190:15204   */\n      lt\n        /* \"#utility.yul\":15182:15390   */\n      iszero\n      tag_271\n      jumpi\n        /* \"#utility.yul\":15275:15284   */\n      dup5\n        /* \"#utility.yul\":15270:15273   */\n      dup10\n        /* \"#utility.yul\":15266:15285   */\n      add\n        /* \"#utility.yul\":15260:15286   */\n      mload\n        /* \"#utility.yul\":15252:15258   */\n      dup3\n        /* \"#utility.yul\":15245:15287   */\n      sstore\n        /* \"#utility.yul\":15326:15327   */\n      0x01\n        /* \"#utility.yul\":15318:15324   */\n      dup3\n        /* \"#utility.yul\":15314:15328   */\n      add\n        /* \"#utility.yul\":15304:15328   */\n      swap2\n      pop\n        /* \"#utility.yul\":15373:15375   */\n      0x20\n        /* \"#utility.yul\":15362:15371   */\n      dup6\n        /* \"#utility.yul\":15358:15376   */\n      add\n        /* \"#utility.yul\":15345:15376   */\n      swap5\n      pop\n        /* \"#utility.yul\":15219:15223   */\n      0x20\n        /* \"#utility.yul\":15216:15217   */\n      dup2\n        /* \"#utility.yul\":15212:15224   */\n      add\n        /* \"#utility.yul\":15207:15224   */\n      swap1\n      pop\n        /* \"#utility.yul\":15182:15390   */\n      jump(tag_269)\n    tag_271:\n        /* \"#utility.yul\":15418:15424   */\n      dup7\n        /* \"#utility.yul\":15409:15416   */\n      dup4\n        /* \"#utility.yul\":15406:15425   */\n      lt\n        /* \"#utility.yul\":15403:15582   */\n      iszero\n      tag_272\n      jumpi\n        /* \"#utility.yul\":15476:15485   */\n      dup5\n        /* \"#utility.yul\":15471:15474   */\n      dup10\n        /* \"#utility.yul\":15467:15486   */\n      add\n        /* \"#utility.yul\":15461:15487   */\n      mload\n        /* \"#utility.yul\":15519:15567   */\n      tag_273\n        /* \"#utility.yul\":15561:15565   */\n      0x1f\n        /* \"#utility.yul\":15553:15559   */\n      dup10\n        /* \"#utility.yul\":15549:15566   */\n      and\n        /* \"#utility.yul\":15538:15547   */\n      dup3\n        /* \"#utility.yul\":15519:15567   */\n      tag_102\n      jump\t// in\n    tag_273:\n        /* \"#utility.yul\":15511:15517   */\n      dup4\n        /* \"#utility.yul\":15504:15568   */\n      sstore\n        /* \"#utility.yul\":15426:15582   */\n      pop\n        /* \"#utility.yul\":15403:15582   */\n    tag_272:\n        /* \"#utility.yul\":15628:15629   */\n      0x01\n        /* \"#utility.yul\":15624:15625   */\n      0x02\n        /* \"#utility.yul\":15616:15622   */\n      dup9\n        /* \"#utility.yul\":15612:15626   */\n      mul\n        /* \"#utility.yul\":15608:15630   */\n      add\n        /* \"#utility.yul\":15602:15606   */\n      dup9\n        /* \"#utility.yul\":15595:15631   */\n      sstore\n        /* \"#utility.yul\":15030:15641   */\n      pop\n      pop\n      pop\n        /* \"#utility.yul\":14993:15880   */\n    tag_264:\n      pop\n        /* \"#utility.yul\":14583:15886   */\n      pop\n      pop\n      pop\n        /* \"#utility.yul\":14491:15886   */\n      pop\n      pop\n      jump\t// out\n\n    auxdata: 0xa2646970667358221220f6810958dfbedd4284d9c4e8a935bcce147b107f4bd0e9cf3712f4ed451bb72664736f6c634300081e0033\n}\n",
				"bytecode": {
					"linkReferences": {},
					"object": "6080604052348015600e575f5ffd5b50610ea18061001c5f395ff3fe608060405234801561000f575f5ffd5b506004361061003f575f3560e01c806313bd20e2146100435780637476452a14610073578063fc5f2b78146100a3575b5f5ffd5b61005d600480360381019061005891906107fd565b6100bf565b60405161006a9190610871565b60405180910390f35b61008d600480360381019061008891906108e7565b610101565b60405161009a9190610a06565b60405180910390f35b6100bd60048036038101906100b89190610a50565b6102cc565b005b600182805160208101820180518482526020830160208501208183528095505050505050602052805f5260405f205f915091509054906101000a900460ff1681565b610109610621565b5f5f848460405161011b929190610b0f565b90815260200160405180910390206040518060600160405290815f8201805461014390610b54565b80601f016020809104026020016040519081016040528092919081815260200182805461016f90610b54565b80156101ba5780601f10610191576101008083540402835291602001916101ba565b820191905f5260205f20905b81548152906001019060200180831161019d57829003601f168201915b50505050508152602001600182015f9054906101000a900473ffffffffffffffffffffffffffffffffffffffff1673ffffffffffffffffffffffffffffffffffffffff1673ffffffffffffffffffffffffffffffffffffffff16815260200160028201548152505090505f81604001510361023857809150506102c6565b5f15156001858560405161024d929190610b0f565b90815260200160405180910390205f3373ffffffffffffffffffffffffffffffffffffffff1673ffffffffffffffffffffffffffffffffffffffff1681526020019081526020015f205f9054906101000a900460ff161515036102c15760405180602001604052805f815250815f01819052505b809150505b92915050565b5f5f84846040516102de929190610b0f565b90815260200160405180910390206040518060600160405290815f8201805461030690610b54565b80601f016020809104026020016040519081016040528092919081815260200182805461033290610b54565b801561037d5780601f106103545761010080835404028352916020019161037d565b820191905f5260205f20905b81548152906001019060200180831161036057829003601f168201915b50505050508152602001600182015f9054906101000a900473ffffffffffffffffffffffffffffffffffffffff1673ffffffffffffffffffffffffffffffffffffffff1673ffffffffffffffffffffffffffffffffffffffff16815260200160028201548152505090505f73ffffffffffffffffffffffffffffffffffffffff16816020015173ffffffffffffffffffffffffffffffffffffffff16148061045457503373ffffffffffffffffffffffffffffffffffffffff16816020015173ffffffffffffffffffffffffffffffffffffffff16145b610493576040517f08c379a000000000000000000000000000000000000000000000000000000000815260040161048a90610bde565b60405180910390fd5b85858080601f0160208091040260200160405190810160405280939291908181526020018383808284375f81840152601f19601f82011690508083019250505050505050815f01819052508181604001818152505033816020019073ffffffffffffffffffffffffffffffffffffffff16908173ffffffffffffffffffffffffffffffffffffffff1681525050805f8585604051610532929190610b0f565b90815260200160405180910390205f820151815f0190816105539190610d9c565b506020820151816001015f6101000a81548173ffffffffffffffffffffffffffffffffffffffff021916908373ffffffffffffffffffffffffffffffffffffffff1602179055506040820151816002015590505060018085856040516105ba929190610b0f565b90815260200160405180910390205f3373ffffffffffffffffffffffffffffffffffffffff1673ffffffffffffffffffffffffffffffffffffffff1681526020019081526020015f205f6101000a81548160ff021916908315150217905550505050505050565b6040518060600160405280606081526020015f73ffffffffffffffffffffffffffffffffffffffff1681526020015f81525090565b5f604051905090565b5f5ffd5b5f5ffd5b5f5ffd5b5f5ffd5b5f601f19601f8301169050919050565b7f4e487b71000000000000000000000000000000000000000000000000000000005f52604160045260245ffd5b6106b58261066f565b810181811067ffffffffffffffff821117156106d4576106d361067f565b5b80604052505050565b5f6106e6610656565b90506106f282826106ac565b919050565b5f67ffffffffffffffff8211156107115761071061067f565b5b61071a8261066f565b9050602081019050919050565b828183375f83830152505050565b5f610747610742846106f7565b6106dd565b9050828152602081018484840111156107635761076261066b565b5b61076e848285610727565b509392505050565b5f82601f83011261078a57610789610667565b5b813561079a848260208601610735565b91505092915050565b5f73ffffffffffffffffffffffffffffffffffffffff82169050919050565b5f6107cc826107a3565b9050919050565b6107dc816107c2565b81146107e6575f5ffd5b50565b5f813590506107f7816107d3565b92915050565b5f5f604083850312156108135761081261065f565b5b5f83013567ffffffffffffffff8111156108305761082f610663565b5b61083c85828601610776565b925050602061084d858286016107e9565b9150509250929050565b5f8115159050919050565b61086b81610857565b82525050565b5f6020820190506108845f830184610862565b92915050565b5f5ffd5b5f5ffd5b5f5f83601f8401126108a7576108a6610667565b5b8235905067ffffffffffffffff8111156108c4576108c361088a565b5b6020830191508360018202830111156108e0576108df61088e565b5b9250929050565b5f5f602083850312156108fd576108fc61065f565b5b5f83013567ffffffffffffffff81111561091a57610919610663565b5b61092685828601610892565b92509250509250929050565b5f81519050919050565b5f82825260208201905092915050565b8281835e5f83830152505050565b5f61096482610932565b61096e818561093c565b935061097e81856020860161094c565b6109878161066f565b840191505092915050565b61099b816107c2565b82525050565b5f819050919050565b6109b3816109a1565b82525050565b5f606083015f8301518482035f8601526109d3828261095a565b91505060208301516109e86020860182610992565b5060408301516109fb60408601826109aa565b508091505092915050565b5f6020820190508181035f830152610a1e81846109b9565b905092915050565b610a2f816109a1565b8114610a39575f5ffd5b50565b5f81359050610a4a81610a26565b92915050565b5f5f5f5f5f60608688031215610a6957610a6861065f565b5b5f86013567ffffffffffffffff811115610a8657610a85610663565b5b610a9288828901610892565b9550955050602086013567ffffffffffffffff811115610ab557610ab4610663565b5b610ac188828901610892565b93509350506040610ad488828901610a3c565b9150509295509295909350565b5f81905092915050565b5f610af68385610ae1565b9350610b03838584610727565b82840190509392505050565b5f610b1b828486610aeb565b91508190509392505050565b7f4e487b71000000000000000000000000000000000000000000000000000000005f52602260045260245ffd5b5f6002820490506001821680610b6b57607f821691505b602082108103610b7e57610b7d610b27565b5b50919050565b5f82825260208201905092915050565b7f54686973206c696e6b496420616c72656164792068617320616e206f776e65725f82015250565b5f610bc8602083610b84565b9150610bd382610b94565b602082019050919050565b5f6020820190508181035f830152610bf581610bbc565b9050919050565b5f819050815f5260205f209050919050565b5f6020601f8301049050919050565b5f82821b905092915050565b5f60088302610c587fffffffffffffffffffffffffffffffffffffffffffffffffffffffffffffffff82610c1d565b610c628683610c1d565b95508019841693508086168417925050509392505050565b5f819050919050565b5f610c9d610c98610c93846109a1565b610c7a565b6109a1565b9050919050565b5f819050919050565b610cb683610c83565b610cca610cc282610ca4565b848454610c29565b825550505050565b5f5f905090565b610ce1610cd2565b610cec818484610cad565b505050565b5b81811015610d0f57610d045f82610cd9565b600181019050610cf2565b5050565b601f821115610d5457610d2581610bfc565b610d2e84610c0e565b81016020851015610d3d578190505b610d51610d4985610c0e565b830182610cf1565b50505b505050565b5f82821c905092915050565b5f610d745f1984600802610d59565b1980831691505092915050565b5f610d8c8383610d65565b9150826002028217905092915050565b610da582610932565b67ffffffffffffffff811115610dbe57610dbd61067f565b5b610dc88254610b54565b610dd3828285610d13565b5f60209050601f831160018114610e04575f8415610df2578287015190505b610dfc8582610d81565b865550610e63565b601f198416610e1286610bfc565b5f5b82811015610e3957848901518255600182019150602085019450602081019050610e14565b86831015610e565784890151610e52601f891682610d65565b8355505b6001600288020188555050505b50505050505056fea2646970667358221220f6810958dfbedd4284d9c4e8a935bcce147b107f4bd0e9cf3712f4ed451bb72664736f6c634300081e0033",
					"opcodes": "PUSH1 0x80 PUSH1 0x40 MSTORE CALLVALUE DUP1 ISZERO PUSH1 0xE JUMPI PUSH0 PUSH0 REVERT JUMPDEST POP PUSH2 0xEA1 DUP1 PUSH2 0x1C PUSH0 CODECOPY PUSH0 RETURN INVALID PUSH1 0x80 PUSH1 0x40 MSTORE CALLVALUE DUP1 ISZERO PUSH2 0xF JUMPI PUSH0 PUSH0 REVERT JUMPDEST POP PUSH1 0x4 CALLDATASIZE LT PUSH2 0x3F JUMPI PUSH0 CALLDATALOAD PUSH1 0xE0 SHR DUP1 PUSH4 0x13BD20E2 EQ PUSH2 0x43 JUMPI DUP1 PUSH4 0x7476452A EQ PUSH2 0x73 JUMPI DUP1 PUSH4 0xFC5F2B78 EQ PUSH2 0xA3 JUMPI JUMPDEST PUSH0 PUSH0 REVERT JUMPDEST PUSH2 0x5D PUSH1 0x4 DUP1 CALLDATASIZE SUB DUP2 ADD SWAP1 PUSH2 0x58 SWAP2 SWAP1 PUSH2 0x7FD JUMP JUMPDEST PUSH2 0xBF JUMP JUMPDEST PUSH1 0x40 MLOAD PUSH2 0x6A SWAP2 SWAP1 PUSH2 0x871 JUMP JUMPDEST PUSH1 0x40 MLOAD DUP1 SWAP2 SUB SWAP1 RETURN JUMPDEST PUSH2 0x8D PUSH1 0x4 DUP1 CALLDATASIZE SUB DUP2 ADD SWAP1 PUSH2 0x88 SWAP2 SWAP1 PUSH2 0x8E7 JUMP JUMPDEST PUSH2 0x101 JUMP JUMPDEST PUSH1 0x40 MLOAD PUSH2 0x9A SWAP2 SWAP1 PUSH2 0xA06 JUMP JUMPDEST PUSH1 0x40 MLOAD DUP1 SWAP2 SUB SWAP1 RETURN JUMPDEST PUSH2 0xBD PUSH1 0x4 DUP1 CALLDATASIZE SUB DUP2 ADD SWAP1 PUSH2 0xB8 SWAP2 SWAP1 PUSH2 0xA50 JUMP JUMPDEST PUSH2 0x2CC JUMP JUMPDEST STOP JUMPDEST PUSH1 0x1 DUP3 DUP1 MLOAD PUSH1 0x20 DUP2 ADD DUP3 ADD DUP1 MLOAD DUP5 DUP3 MSTORE PUSH1 0x20 DUP4 ADD PUSH1 0x20 DUP6 ADD KECCAK256 DUP2 DUP4 MSTORE DUP1 SWAP6 POP POP POP POP POP POP PUSH1 0x20 MSTORE DUP1 PUSH0 MSTORE PUSH1 0x40 PUSH0 KECCAK256 PUSH0 SWAP2 POP SWAP2 POP SWAP1 SLOAD SWAP1 PUSH2 0x100 EXP SWAP1 DIV PUSH1 0xFF AND DUP2 JUMP JUMPDEST PUSH2 0x109 PUSH2 0x621 JUMP JUMPDEST PUSH0 PUSH0 DUP5 DUP5 PUSH1 0x40 MLOAD PUSH2 0x11B SWAP3 SWAP2 SWAP1 PUSH2 0xB0F JUMP JUMPDEST SWAP1 DUP2 MSTORE PUSH1 0x20 ADD PUSH1 0x40 MLOAD DUP1 SWAP2 SUB SWAP1 KECCAK256 PUSH1 0x40 MLOAD DUP1 PUSH1 0x60 ADD PUSH1 0x40 MSTORE SWAP1 DUP2 PUSH0 DUP3 ADD DUP1 SLOAD PUSH2 0x143 SWAP1 PUSH2 0xB54 JUMP JUMPDEST DUP1 PUSH1 0x1F ADD PUSH1 0x20 DUP1 SWAP2 DIV MUL PUSH1 0x20 ADD PUSH1 0x40 MLOAD SWAP1 DUP2 ADD PUSH1 0x40 MSTORE DUP1 SWAP3 SWAP2 SWAP1 DUP2 DUP2 MSTORE PUSH1 0x20 ADD DUP3 DUP1 SLOAD PUSH2 0x16F SWAP1 PUSH2 0xB54 JUMP JUMPDEST DUP1 ISZERO PUSH2 0x1BA JUMPI DUP1 PUSH1 0x1F LT PUSH2 0x191 JUMPI PUSH2 0x100 DUP1 DUP4 SLOAD DIV MUL DUP4 MSTORE SWAP2 PUSH1 0x20 ADD SWAP2 PUSH2 0x1BA JUMP JUMPDEST DUP3 ADD SWAP2 SWAP1 PUSH0 MSTORE PUSH1 0x20 PUSH0 KECCAK256 SWAP1 JUMPDEST DUP2 SLOAD DUP2 MSTORE SWAP1 PUSH1 0x1 ADD SWAP1 PUSH1 0x20 ADD DUP1 DUP4 GT PUSH2 0x19D JUMPI DUP3 SWAP1 SUB PUSH1 0x1F AND DUP3 ADD SWAP2 JUMPDEST POP POP POP POP POP DUP2 MSTORE PUSH1 0x20 ADD PUSH1 0x1 DUP3 ADD PUSH0 SWAP1 SLOAD SWAP1 PUSH2 0x100 EXP SWAP1 DIV PUSH20 0xFFFFFFFFFFFFFFFFFFFFFFFFFFFFFFFFFFFFFFFF AND PUSH20 0xFFFFFFFFFFFFFFFFFFFFFFFFFFFFFFFFFFFFFFFF AND PUSH20 0xFFFFFFFFFFFFFFFFFFFFFFFFFFFFFFFFFFFFFFFF AND DUP2 MSTORE PUSH1 0x20 ADD PUSH1 0x2 DUP3 ADD SLOAD DUP2 MSTORE POP POP SWAP1 POP PUSH0 DUP2 PUSH1 0x40 ADD MLOAD SUB PUSH2 0x238 JUMPI DUP1 SWAP2 POP POP PUSH2 0x2C6 JUMP JUMPDEST PUSH0 ISZERO ISZERO PUSH1 0x1 DUP6 DUP6 PUSH1 0x40 MLOAD PUSH2 0x24D SWAP3 SWAP2 SWAP1 PUSH2 0xB0F JUMP JUMPDEST SWAP1 DUP2 MSTORE PUSH1 0x20 ADD PUSH1 0x40 MLOAD DUP1 SWAP2 SUB SWAP1 KECCAK256 PUSH0 CALLER PUSH20 0xFFFFFFFFFFFFFFFFFFFFFFFFFFFFFFFFFFFFFFFF AND PUSH20 0xFFFFFFFFFFFFFFFFFFFFFFFFFFFFFFFFFFFFFFFF AND DUP2 MSTORE PUSH1 0x20 ADD SWAP1 DUP2 MSTORE PUSH1 0x20 ADD PUSH0 KECCAK256 PUSH0 SWAP1 SLOAD SWAP1 PUSH2 0x100 EXP SWAP1 DIV PUSH1 0xFF AND ISZERO ISZERO SUB PUSH2 0x2C1 JUMPI PUSH1 0x40 MLOAD DUP1 PUSH1 0x20 ADD PUSH1 0x40 MSTORE DUP1 PUSH0 DUP2 MSTORE POP DUP2 PUSH0 ADD DUP2 SWAP1 MSTORE POP JUMPDEST DUP1 SWAP2 POP POP JUMPDEST SWAP3 SWAP2 POP POP JUMP JUMPDEST PUSH0 PUSH0 DUP5 DUP5 PUSH1 0x40 MLOAD PUSH2 0x2DE SWAP3 SWAP2 SWAP1 PUSH2 0xB0F JUMP JUMPDEST SWAP1 DUP2 MSTORE PUSH1 0x20 ADD PUSH1 0x40 MLOAD DUP1 SWAP2 SUB SWAP1 KECCAK256 PUSH1 0x40 MLOAD DUP1 PUSH1 0x60 ADD PUSH1 0x40 MSTORE SWAP1 DUP2 PUSH0 DUP3 ADD DUP1 SLOAD PUSH2 0x306 SWAP1 PUSH2 0xB54 JUMP JUMPDEST DUP1 PUSH1 0x1F ADD PUSH1 0x20 DUP1 SWAP2 DIV MUL PUSH1 0x20 ADD PUSH1 0x40 MLOAD SWAP1 DUP2 ADD PUSH1 0x40 MSTORE DUP1 SWAP3 SWAP2 SWAP1 DUP2 DUP2 MSTORE PUSH1 0x20 ADD DUP3 DUP1 SLOAD PUSH2 0x332 SWAP1 PUSH2 0xB54 JUMP JUMPDEST DUP1 ISZERO PUSH2 0x37D JUMPI DUP1 PUSH1 0x1F LT PUSH2 0x354 JUMPI PUSH2 0x100 DUP1 DUP4 SLOAD DIV MUL DUP4 MSTORE SWAP2 PUSH1 0x20 ADD SWAP2 PUSH2 0x37D JUMP JUMPDEST DUP3 ADD SWAP2 SWAP1 PUSH0 MSTORE PUSH1 0x20 PUSH0 KECCAK256 SWAP1 JUMPDEST DUP2 SLOAD DUP2 MSTORE SWAP1 PUSH1 0x1 ADD SWAP1 PUSH1 0x20 ADD DUP1 DUP4 GT PUSH2 0x360 JUMPI DUP3 SWAP1 SUB PUSH1 0x1F AND DUP3 ADD SWAP2 JUMPDEST POP POP POP POP POP DUP2 MSTORE PUSH1 0x20 ADD PUSH1 0x1 DUP3 ADD PUSH0 SWAP1 SLOAD SWAP1 PUSH2 0x100 EXP SWAP1 DIV PUSH20 0xFFFFFFFFFFFFFFFFFFFFFFFFFFFFFFFFFFFFFFFF AND PUSH20 0xFFFFFFFFFFFFFFFFFFFFFFFFFFFFFFFFFFFFFFFF AND PUSH20 0xFFFFFFFFFFFFFFFFFFFFFFFFFFFFFFFFFFFFFFFF AND DUP2 MSTORE PUSH1 0x20 ADD PUSH1 0x2 DUP3 ADD SLOAD DUP2 MSTORE POP POP SWAP1 POP PUSH0 PUSH20 0xFFFFFFFFFFFFFFFFFFFFFFFFFFFFFFFFFFFFFFFF AND DUP2 PUSH1 0x20 ADD MLOAD PUSH20 0xFFFFFFFFFFFFFFFFFFFFFFFFFFFFFFFFFFFFFFFF AND EQ DUP1 PUSH2 0x454 JUMPI POP CALLER PUSH20 0xFFFFFFFFFFFFFFFFFFFFFFFFFFFFFFFFFFFFFFFF AND DUP2 PUSH1 0x20 ADD MLOAD PUSH20 0xFFFFFFFFFFFFFFFFFFFFFFFFFFFFFFFFFFFFFFFF AND EQ JUMPDEST PUSH2 0x493 JUMPI PUSH1 0x40 MLOAD PUSH32 0x8C379A000000000000000000000000000000000000000000000000000000000 DUP2 MSTORE PUSH1 0x4 ADD PUSH2 0x48A SWAP1 PUSH2 0xBDE JUMP JUMPDEST PUSH1 0x40 MLOAD DUP1 SWAP2 SUB SWAP1 REVERT JUMPDEST DUP6 DUP6 DUP1 DUP1 PUSH1 0x1F ADD PUSH1 0x20 DUP1 SWAP2 DIV MUL PUSH1 0x20 ADD PUSH1 0x40 MLOAD SWAP1 DUP2 ADD PUSH1 0x40 MSTORE DUP1 SWAP4 SWAP3 SWAP2 SWAP1 DUP2 DUP2 MSTORE PUSH1 0x20 ADD DUP4 DUP4 DUP1 DUP3 DUP5 CALLDATACOPY PUSH0 DUP2 DUP5 ADD MSTORE PUSH1 0x1F NOT PUSH1 0x1F DUP3 ADD AND SWAP1 POP DUP1 DUP4 ADD SWAP3 POP POP POP POP POP POP POP DUP2 PUSH0 ADD DUP2 SWAP1 MSTORE POP DUP2 DUP2 PUSH1 0x40 ADD DUP2 DUP2 MSTORE POP POP CALLER DUP2 PUSH1 0x20 ADD SWAP1 PUSH20 0xFFFFFFFFFFFFFFFFFFFFFFFFFFFFFFFFFFFFFFFF AND SWAP1 DUP2 PUSH20 0xFFFFFFFFFFFFFFFFFFFFFFFFFFFFFFFFFFFFFFFF AND DUP2 MSTORE POP POP DUP1 PUSH0 DUP6 DUP6 PUSH1 0x40 MLOAD PUSH2 0x532 SWAP3 SWAP2 SWAP1 PUSH2 0xB0F JUMP JUMPDEST SWAP1 DUP2 MSTORE PUSH1 0x20 ADD PUSH1 0x40 MLOAD DUP1 SWAP2 SUB SWAP1 KECCAK256 PUSH0 DUP3 ADD MLOAD DUP2 PUSH0 ADD SWAP1 DUP2 PUSH2 0x553 SWAP2 SWAP1 PUSH2 0xD9C JUMP JUMPDEST POP PUSH1 0x20 DUP3 ADD MLOAD DUP2 PUSH1 0x1 ADD PUSH0 PUSH2 0x100 EXP DUP2 SLOAD DUP2 PUSH20 0xFFFFFFFFFFFFFFFFFFFFFFFFFFFFFFFFFFFFFFFF MUL NOT AND SWAP1 DUP4 PUSH20 0xFFFFFFFFFFFFFFFFFFFFFFFFFFFFFFFFFFFFFFFF AND MUL OR SWAP1 SSTORE POP PUSH1 0x40 DUP3 ADD MLOAD DUP2 PUSH1 0x2 ADD SSTORE SWAP1 POP POP PUSH1 0x1 DUP1 DUP6 DUP6 PUSH1 0x40 MLOAD PUSH2 0x5BA SWAP3 SWAP2 SWAP1 PUSH2 0xB0F JUMP JUMPDEST SWAP1 DUP2 MSTORE PUSH1 0x20 ADD PUSH1 0x40 MLOAD DUP1 SWAP2 SUB SWAP1 KECCAK256 PUSH0 CALLER PUSH20 0xFFFFFFFFFFFFFFFFFFFFFFFFFFFFFFFFFFFFFFFF AND PUSH20 0xFFFFFFFFFFFFFFFFFFFFFFFFFFFFFFFFFFFFFFFF AND DUP2 MSTORE PUSH1 0x20 ADD SWAP1 DUP2 MSTORE PUSH1 0x20 ADD PUSH0 KECCAK256 PUSH0 PUSH2 0x100 EXP DUP2 SLOAD DUP2 PUSH1 0xFF MUL NOT AND SWAP1 DUP4 ISZERO ISZERO MUL OR SWAP1 SSTORE POP POP POP POP POP POP POP JUMP JUMPDEST PUSH1 0x40 MLOAD DUP1 PUSH1 0x60 ADD PUSH1 0x40 MSTORE DUP1 PUSH1 0x60 DUP2 MSTORE PUSH1 0x20 ADD PUSH0 PUSH20 0xFFFFFFFFFFFFFFFFFFFFFFFFFFFFFFFFFFFFFFFF AND DUP2 MSTORE PUSH1 0x20 ADD PUSH0 DUP2 MSTORE POP SWAP1 JUMP JUMPDEST PUSH0 PUSH1 0x40 MLOAD SWAP1 POP SWAP1 JUMP JUMPDEST PUSH0 PUSH0 REVERT JUMPDEST PUSH0 PUSH0 REVERT JUMPDEST PUSH0 PUSH0 REVERT JUMPDEST PUSH0 PUSH0 REVERT JUMPDEST PUSH0 PUSH1 0x1F NOT PUSH1 0x1F DUP4 ADD AND SWAP1 POP SWAP2 SWAP1 POP JUMP JUMPDEST PUSH32 0x4E487B7100000000000000000000000000000000000000000000000000000000 PUSH0 MSTORE PUSH1 0x41 PUSH1 0x4 MSTORE PUSH1 0x24 PUSH0 REVERT JUMPDEST PUSH2 0x6B5 DUP3 PUSH2 0x66F JUMP JUMPDEST DUP2 ADD DUP2 DUP2 LT PUSH8 0xFFFFFFFFFFFFFFFF DUP3 GT OR ISZERO PUSH2 0x6D4 JUMPI PUSH2 0x6D3 PUSH2 0x67F JUMP JUMPDEST JUMPDEST DUP1 PUSH1 0x40 MSTORE POP POP POP JUMP JUMPDEST PUSH0 PUSH2 0x6E6 PUSH2 0x656 JUMP JUMPDEST SWAP1 POP PUSH2 0x6F2 DUP3 DUP3 PUSH2 0x6AC JUMP JUMPDEST SWAP2 SWAP1 POP JUMP JUMPDEST PUSH0 PUSH8 0xFFFFFFFFFFFFFFFF DUP3 GT ISZERO PUSH2 0x711 JUMPI PUSH2 0x710 PUSH2 0x67F JUMP JUMPDEST JUMPDEST PUSH2 0x71A DUP3 PUSH2 0x66F JUMP JUMPDEST SWAP1 POP PUSH1 0x20 DUP2 ADD SWAP1 POP SWAP2 SWAP1 POP JUMP JUMPDEST DUP3 DUP2 DUP4 CALLDATACOPY PUSH0 DUP4 DUP4 ADD MSTORE POP POP POP JUMP JUMPDEST PUSH0 PUSH2 0x747 PUSH2 0x742 DUP5 PUSH2 0x6F7 JUMP JUMPDEST PUSH2 0x6DD JUMP JUMPDEST SWAP1 POP DUP3 DUP2 MSTORE PUSH1 0x20 DUP2 ADD DUP5 DUP5 DUP5 ADD GT ISZERO PUSH2 0x763 JUMPI PUSH2 0x762 PUSH2 0x66B JUMP JUMPDEST JUMPDEST PUSH2 0x76E DUP5 DUP3 DUP6 PUSH2 0x727 JUMP JUMPDEST POP SWAP4 SWAP3 POP POP POP JUMP JUMPDEST PUSH0 DUP3 PUSH1 0x1F DUP4 ADD SLT PUSH2 0x78A JUMPI PUSH2 0x789 PUSH2 0x667 JUMP JUMPDEST JUMPDEST DUP2 CALLDATALOAD PUSH2 0x79A DUP5 DUP3 PUSH1 0x20 DUP7 ADD PUSH2 0x735 JUMP JUMPDEST SWAP2 POP POP SWAP3 SWAP2 POP POP JUMP JUMPDEST PUSH0 PUSH20 0xFFFFFFFFFFFFFFFFFFFFFFFFFFFFFFFFFFFFFFFF DUP3 AND SWAP1 POP SWAP2 SWAP1 POP JUMP JUMPDEST PUSH0 PUSH2 0x7CC DUP3 PUSH2 0x7A3 JUMP JUMPDEST SWAP1 POP SWAP2 SWAP1 POP JUMP JUMPDEST PUSH2 0x7DC DUP2 PUSH2 0x7C2 JUMP JUMPDEST DUP2 EQ PUSH2 0x7E6 JUMPI PUSH0 PUSH0 REVERT JUMPDEST POP JUMP JUMPDEST PUSH0 DUP2 CALLDATALOAD SWAP1 POP PUSH2 0x7F7 DUP2 PUSH2 0x7D3 JUMP JUMPDEST SWAP3 SWAP2 POP POP JUMP JUMPDEST PUSH0 PUSH0 PUSH1 0x40 DUP4 DUP6 SUB SLT ISZERO PUSH2 0x813 JUMPI PUSH2 0x812 PUSH2 0x65F JUMP JUMPDEST JUMPDEST PUSH0 DUP4 ADD CALLDATALOAD PUSH8 0xFFFFFFFFFFFFFFFF DUP2 GT ISZERO PUSH2 0x830 JUMPI PUSH2 0x82F PUSH2 0x663 JUMP JUMPDEST JUMPDEST PUSH2 0x83C DUP6 DUP3 DUP7 ADD PUSH2 0x776 JUMP JUMPDEST SWAP3 POP POP PUSH1 0x20 PUSH2 0x84D DUP6 DUP3 DUP7 ADD PUSH2 0x7E9 JUMP JUMPDEST SWAP2 POP POP SWAP3 POP SWAP3 SWAP1 POP JUMP JUMPDEST PUSH0 DUP2 ISZERO ISZERO SWAP1 POP SWAP2 SWAP1 POP JUMP JUMPDEST PUSH2 0x86B DUP2 PUSH2 0x857 JUMP JUMPDEST DUP3 MSTORE POP POP JUMP JUMPDEST PUSH0 PUSH1 0x20 DUP3 ADD SWAP1 POP PUSH2 0x884 PUSH0 DUP4 ADD DUP5 PUSH2 0x862 JUMP JUMPDEST SWAP3 SWAP2 POP POP JUMP JUMPDEST PUSH0 PUSH0 REVERT JUMPDEST PUSH0 PUSH0 REVERT JUMPDEST PUSH0 PUSH0 DUP4 PUSH1 0x1F DUP5 ADD SLT PUSH2 0x8A7 JUMPI PUSH2 0x8A6 PUSH2 0x667 JUMP JUMPDEST JUMPDEST DUP3 CALLDATALOAD SWAP1 POP PUSH8 0xFFFFFFFFFFFFFFFF DUP2 GT ISZERO PUSH2 0x8C4 JUMPI PUSH2 0x8C3 PUSH2 0x88A JUMP JUMPDEST JUMPDEST PUSH1 0x20 DUP4 ADD SWAP2 POP DUP4 PUSH1 0x1 DUP3 MUL DUP4 ADD GT ISZERO PUSH2 0x8E0 JUMPI PUSH2 0x8DF PUSH2 0x88E JUMP JUMPDEST JUMPDEST SWAP3 POP SWAP3 SWAP1 POP JUMP JUMPDEST PUSH0 PUSH0 PUSH1 0x20 DUP4 DUP6 SUB SLT ISZERO PUSH2 0x8FD JUMPI PUSH2 0x8FC PUSH2 0x65F JUMP JUMPDEST JUMPDEST PUSH0 DUP4 ADD CALLDATALOAD PUSH8 0xFFFFFFFFFFFFFFFF DUP2 GT ISZERO PUSH2 0x91A JUMPI PUSH2 0x919 PUSH2 0x663 JUMP JUMPDEST JUMPDEST PUSH2 0x926 DUP6 DUP3 DUP7 ADD PUSH2 0x892 JUMP JUMPDEST SWAP3 POP SWAP3 POP POP SWAP3 POP SWAP3 SWAP1 POP JUMP JUMPDEST PUSH0 DUP2 MLOAD SWAP1 POP SWAP2 SWAP1 POP JUMP JUMPDEST PUSH0 DUP3 DUP3 MSTORE PUSH1 0x20 DUP3 ADD SWAP1 POP SWAP3 SWAP2 POP POP JUMP JUMPDEST DUP3 DUP2 DUP4 MCOPY PUSH0 DUP4 DUP4 ADD MSTORE POP POP POP JUMP JUMPDEST PUSH0 PUSH2 0x964 DUP3 PUSH2 0x932 JUMP JUMPDEST PUSH2 0x96E DUP2 DUP6 PUSH2 0x93C JUMP JUMPDEST SWAP4 POP PUSH2 0x97E DUP2 DUP6 PUSH1 0x20 DUP7 ADD PUSH2 0x94C JUMP JUMPDEST PUSH2 0x987 DUP2 PUSH2 0x66F JUMP JUMPDEST DUP5 ADD SWAP2 POP POP SWAP3 SWAP2 POP POP JUMP JUMPDEST PUSH2 0x99B DUP2 PUSH2 0x7C2 JUMP JUMPDEST DUP3 MSTORE POP POP JUMP JUMPDEST PUSH0 DUP2 SWAP1 POP SWAP2 SWAP1 POP JUMP JUMPDEST PUSH2 0x9B3 DUP2 PUSH2 0x9A1 JUMP JUMPDEST DUP3 MSTORE POP POP JUMP JUMPDEST PUSH0 PUSH1 0x60 DUP4 ADD PUSH0 DUP4 ADD MLOAD DUP5 DUP3 SUB PUSH0 DUP7 ADD MSTORE PUSH2 0x9D3 DUP3 DUP3 PUSH2 0x95A JUMP JUMPDEST SWAP2 POP POP PUSH1 0x20 DUP4 ADD MLOAD PUSH2 0x9E8 PUSH1 0x20 DUP7 ADD DUP3 PUSH2 0x992 JUMP JUMPDEST POP PUSH1 0x40 DUP4 ADD MLOAD PUSH2 0x9FB PUSH1 0x40 DUP7 ADD DUP3 PUSH2 0x9AA JUMP JUMPDEST POP DUP1 SWAP2 POP POP SWAP3 SWAP2 POP POP JUMP JUMPDEST PUSH0 PUSH1 0x20 DUP3 ADD SWAP1 POP DUP2 DUP2 SUB PUSH0 DUP4 ADD MSTORE PUSH2 0xA1E DUP2 DUP5 PUSH2 0x9B9 JUMP JUMPDEST SWAP1 POP SWAP3 SWAP2 POP POP JUMP JUMPDEST PUSH2 0xA2F DUP2 PUSH2 0x9A1 JUMP JUMPDEST DUP2 EQ PUSH2 0xA39 JUMPI PUSH0 PUSH0 REVERT JUMPDEST POP JUMP JUMPDEST PUSH0 DUP2 CALLDATALOAD SWAP1 POP PUSH2 0xA4A DUP2 PUSH2 0xA26 JUMP JUMPDEST SWAP3 SWAP2 POP POP JUMP JUMPDEST PUSH0 PUSH0 PUSH0 PUSH0 PUSH0 PUSH1 0x60 DUP7 DUP9 SUB SLT ISZERO PUSH2 0xA69 JUMPI PUSH2 0xA68 PUSH2 0x65F JUMP JUMPDEST JUMPDEST PUSH0 DUP7 ADD CALLDATALOAD PUSH8 0xFFFFFFFFFFFFFFFF DUP2 GT ISZERO PUSH2 0xA86 JUMPI PUSH2 0xA85 PUSH2 0x663 JUMP JUMPDEST JUMPDEST PUSH2 0xA92 DUP9 DUP3 DUP10 ADD PUSH2 0x892 JUMP JUMPDEST SWAP6 POP SWAP6 POP POP PUSH1 0x20 DUP7 ADD CALLDATALOAD PUSH8 0xFFFFFFFFFFFFFFFF DUP2 GT ISZERO PUSH2 0xAB5 JUMPI PUSH2 0xAB4 PUSH2 0x663 JUMP JUMPDEST JUMPDEST PUSH2 0xAC1 DUP9 DUP3 DUP10 ADD PUSH2 0x892 JUMP JUMPDEST SWAP4 POP SWAP4 POP POP PUSH1 0x40 PUSH2 0xAD4 DUP9 DUP3 DUP10 ADD PUSH2 0xA3C JUMP JUMPDEST SWAP2 POP POP SWAP3 SWAP6 POP SWAP3 SWAP6 SWAP1 SWAP4 POP JUMP JUMPDEST PUSH0 DUP2 SWAP1 POP SWAP3 SWAP2 POP POP JUMP JUMPDEST PUSH0 PUSH2 0xAF6 DUP4 DUP6 PUSH2 0xAE1 JUMP JUMPDEST SWAP4 POP PUSH2 0xB03 DUP4 DUP6 DUP5 PUSH2 0x727 JUMP JUMPDEST DUP3 DUP5 ADD SWAP1 POP SWAP4 SWAP3 POP POP POP JUMP JUMPDEST PUSH0 PUSH2 0xB1B DUP3 DUP5 DUP7 PUSH2 0xAEB JUMP JUMPDEST SWAP2 POP DUP2 SWAP1 POP SWAP4 SWAP3 POP POP POP JUMP JUMPDEST PUSH32 0x4E487B7100000000000000000000000000000000000000000000000000000000 PUSH0 MSTORE PUSH1 0x22 PUSH1 0x4 MSTORE PUSH1 0x24 PUSH0 REVERT JUMPDEST PUSH0 PUSH1 0x2 DUP3 DIV SWAP1 POP PUSH1 0x1 DUP3 AND DUP1 PUSH2 0xB6B JUMPI PUSH1 0x7F DUP3 AND SWAP2 POP JUMPDEST PUSH1 0x20 DUP3 LT DUP2 SUB PUSH2 0xB7E JUMPI PUSH2 0xB7D PUSH2 0xB27 JUMP JUMPDEST JUMPDEST POP SWAP2 SWAP1 POP JUMP JUMPDEST PUSH0 DUP3 DUP3 MSTORE PUSH1 0x20 DUP3 ADD SWAP1 POP SWAP3 SWAP2 POP POP JUMP JUMPDEST PUSH32 0x54686973206C696E6B496420616C72656164792068617320616E206F776E6572 PUSH0 DUP3 ADD MSTORE POP JUMP JUMPDEST PUSH0 PUSH2 0xBC8 PUSH1 0x20 DUP4 PUSH2 0xB84 JUMP JUMPDEST SWAP2 POP PUSH2 0xBD3 DUP3 PUSH2 0xB94 JUMP JUMPDEST PUSH1 0x20 DUP3 ADD SWAP1 POP SWAP2 SWAP1 POP JUMP JUMPDEST PUSH0 PUSH1 0x20 DUP3 ADD SWAP1 POP DUP2 DUP2 SUB PUSH0 DUP4 ADD MSTORE PUSH2 0xBF5 DUP2 PUSH2 0xBBC JUMP JUMPDEST SWAP1 POP SWAP2 SWAP1 POP JUMP JUMPDEST PUSH0 DUP2 SWAP1 POP DUP2 PUSH0 MSTORE PUSH1 0x20 PUSH0 KECCAK256 SWAP1 POP SWAP2 SWAP1 POP JUMP JUMPDEST PUSH0 PUSH1 0x20 PUSH1 0x1F DUP4 ADD DIV SWAP1 POP SWAP2 SWAP1 POP JUMP JUMPDEST PUSH0 DUP3 DUP3 SHL SWAP1 POP SWAP3 SWAP2 POP POP JUMP JUMPDEST PUSH0 PUSH1 0x8 DUP4 MUL PUSH2 0xC58 PUSH32 0xFFFFFFFFFFFFFFFFFFFFFFFFFFFFFFFFFFFFFFFFFFFFFFFFFFFFFFFFFFFFFFFF DUP3 PUSH2 0xC1D JUMP JUMPDEST PUSH2 0xC62 DUP7 DUP4 PUSH2 0xC1D JUMP JUMPDEST SWAP6 POP DUP1 NOT DUP5 AND SWAP4 POP DUP1 DUP7 AND DUP5 OR SWAP3 POP POP POP SWAP4 SWAP3 POP POP POP JUMP JUMPDEST PUSH0 DUP2 SWAP1 POP SWAP2 SWAP1 POP JUMP JUMPDEST PUSH0 PUSH2 0xC9D PUSH2 0xC98 PUSH2 0xC93 DUP5 PUSH2 0x9A1 JUMP JUMPDEST PUSH2 0xC7A JUMP JUMPDEST PUSH2 0x9A1 JUMP JUMPDEST SWAP1 POP SWAP2 SWAP1 POP JUMP JUMPDEST PUSH0 DUP2 SWAP1 POP SWAP2 SWAP1 POP JUMP JUMPDEST PUSH2 0xCB6 DUP4 PUSH2 0xC83 JUMP JUMPDEST PUSH2 0xCCA PUSH2 0xCC2 DUP3 PUSH2 0xCA4 JUMP JUMPDEST DUP5 DUP5 SLOAD PUSH2 0xC29 JUMP JUMPDEST DUP3 SSTORE POP POP POP POP JUMP JUMPDEST PUSH0 PUSH0 SWAP1 POP SWAP1 JUMP JUMPDEST PUSH2 0xCE1 PUSH2 0xCD2 JUMP JUMPDEST PUSH2 0xCEC DUP2 DUP5 DUP5 PUSH2 0xCAD JUMP JUMPDEST POP POP POP JUMP JUMPDEST JUMPDEST DUP2 DUP2 LT ISZERO PUSH2 0xD0F JUMPI PUSH2 0xD04 PUSH0 DUP3 PUSH2 0xCD9 JUMP JUMPDEST PUSH1 0x1 DUP2 ADD SWAP1 POP PUSH2 0xCF2 JUMP JUMPDEST POP POP JUMP JUMPDEST PUSH1 0x1F DUP3 GT ISZERO PUSH2 0xD54 JUMPI PUSH2 0xD25 DUP2 PUSH2 0xBFC JUMP JUMPDEST PUSH2 0xD2E DUP5 PUSH2 0xC0E JUMP JUMPDEST DUP2 ADD PUSH1 0x20 DUP6 LT ISZERO PUSH2 0xD3D JUMPI DUP2 SWAP1 POP JUMPDEST PUSH2 0xD51 PUSH2 0xD49 DUP6 PUSH2 0xC0E JUMP JUMPDEST DUP4 ADD DUP3 PUSH2 0xCF1 JUMP JUMPDEST POP POP JUMPDEST POP POP POP JUMP JUMPDEST PUSH0 DUP3 DUP3 SHR SWAP1 POP SWAP3 SWAP2 POP POP JUMP JUMPDEST PUSH0 PUSH2 0xD74 PUSH0 NOT DUP5 PUSH1 0x8 MUL PUSH2 0xD59 JUMP JUMPDEST NOT DUP1 DUP4 AND SWAP2 POP POP SWAP3 SWAP2 POP POP JUMP JUMPDEST PUSH0 PUSH2 0xD8C DUP4 DUP4 PUSH2 0xD65 JUMP JUMPDEST SWAP2 POP DUP3 PUSH1 0x2 MUL DUP3 OR SWAP1 POP SWAP3 SWAP2 POP POP JUMP JUMPDEST PUSH2 0xDA5 DUP3 PUSH2 0x932 JUMP JUMPDEST PUSH8 0xFFFFFFFFFFFFFFFF DUP2 GT ISZERO PUSH2 0xDBE JUMPI PUSH2 0xDBD PUSH2 0x67F JUMP JUMPDEST JUMPDEST PUSH2 0xDC8 DUP3 SLOAD PUSH2 0xB54 JUMP JUMPDEST PUSH2 0xDD3 DUP3 DUP3 DUP6 PUSH2 0xD13 JUMP JUMPDEST PUSH0 PUSH1 0x20 SWAP1 POP PUSH1 0x1F DUP4 GT PUSH1 0x1 DUP2 EQ PUSH2 0xE04 JUMPI PUSH0 DUP5 ISZERO PUSH2 0xDF2 JUMPI DUP3 DUP8 ADD MLOAD SWAP1 POP JUMPDEST PUSH2 0xDFC DUP6 DUP3 PUSH2 0xD81 JUMP JUMPDEST DUP7 SSTORE POP PUSH2 0xE63 JUMP JUMPDEST PUSH1 0x1F NOT DUP5 AND PUSH2 0xE12 DUP7 PUSH2 0xBFC JUMP JUMPDEST PUSH0 JUMPDEST DUP3 DUP2 LT ISZERO PUSH2 0xE39 JUMPI DUP5 DUP10 ADD MLOAD DUP3 SSTORE PUSH1 0x1 DUP3 ADD SWAP2 POP PUSH1 0x20 DUP6 ADD SWAP5 POP PUSH1 0x20 DUP2 ADD SWAP1 POP PUSH2 0xE14 JUMP JUMPDEST DUP7 DUP4 LT ISZERO PUSH2 0xE56 JUMPI DUP5 DUP10 ADD MLOAD PUSH2 0xE52 PUSH1 0x1F DUP10 AND DUP3 PUSH2 0xD65 JUMP JUMPDEST DUP4 SSTORE POP JUMPDEST PUSH1 0x1 PUSH1 0x2 DUP9 MUL ADD DUP9 SSTORE POP POP POP JUMPDEST POP POP POP POP POP POP JUMP INVALID LOG2 PUSH5 0x6970667358 0x22 SLT KECCAK256 0xF6 DUP2 MULMOD PC 0xDF 0xBE 0xDD TIMESTAMP DUP5 0xD9 0xC4 0xE8 0xA9 CALLDATALOAD 0xBC 0xCE EQ PUSH28 0x107F4BD0E9CF3712F4ED451BB72664736F6C634300081E0033000000 "
				},
				"gasEstimates": {
					"creation": {
						"codeDepositCost": "749000",
						"executionCost": "784",
						"totalCost": "749784"
					},
					"external": {
						"addLink(string,string,uint256)": "infinite",
						"getLink(string)": "infinite",
						"hasAccess(string,address)": "infinite"
					}
				},
				"methodIdentifiers": {
					"addLink(string,string,uint256)": "fc5f2b78",
					"getLink(string)": "7476452a",
					"hasAccess(string,address)": "13bd20e2"
				}
			},
			"storageLayout": {
				"storage": [
					{
						"astId": 13,
						"contract": "contracts/Link3.sol:Link3",
						"label": "links",
						"offset": 0,
						"slot": "0",
						"type": "t_mapping(t_string_memory_ptr,t_struct(Link)8_storage)"
					},
					{
						"astId": 19,
						"contract": "contracts/Link3.sol:Link3",
						"label": "hasAccess",
						"offset": 0,
						"slot": "1",
						"type": "t_mapping(t_string_memory_ptr,t_mapping(t_address,t_bool))"
					}
				],
				"types": {
					"t_address": {
						"encoding": "inplace",
						"label": "address",
						"numberOfBytes": "20"
					},
					"t_bool": {
						"encoding": "inplace",
						"label": "bool",
						"numberOfBytes": "1"
					},
					"t_mapping(t_address,t_bool)": {
						"encoding": "mapping",
						"key": "t_address",
						"label": "mapping(address => bool)",
						"numberOfBytes": "32",
						"value": "t_bool"
					},
					"t_mapping(t_string_memory_ptr,t_mapping(t_address,t_bool))": {
						"encoding": "mapping",
						"key": "t_string_memory_ptr",
						"label": "mapping(string => mapping(address => bool))",
						"numberOfBytes": "32",
						"value": "t_mapping(t_address,t_bool)"
					},
					"t_mapping(t_string_memory_ptr,t_struct(Link)8_storage)": {
						"encoding": "mapping",
						"key": "t_string_memory_ptr",
						"label": "mapping(string => struct Link3.Link)",
						"numberOfBytes": "32",
						"value": "t_struct(Link)8_storage"
					},
					"t_string_memory_ptr": {
						"encoding": "bytes",
						"label": "string",
						"numberOfBytes": "32"
					},
					"t_string_storage": {
						"encoding": "bytes",
						"label": "string",
						"numberOfBytes": "32"
					},
					"t_struct(Link)8_storage": {
						"encoding": "inplace",
						"label": "struct Link3.Link",
						"members": [
							{
								"astId": 3,
								"contract": "contracts/Link3.sol:Link3",
								"label": "url",
								"offset": 0,
								"slot": "0",
								"type": "t_string_storage"
							},
							{
								"astId": 5,
								"contract": "contracts/Link3.sol:Link3",
								"label": "owner",
								"offset": 0,
								"slot": "1",
								"type": "t_address"
							},
							{
								"astId": 7,
								"contract": "contracts/Link3.sol:Link3",
								"label": "fee",
								"offset": 0,
								"slot": "2",
								"type": "t_uint256"
							}
						],
						"numberOfBytes": "96"
					},
					"t_uint256": {
						"encoding": "inplace",
						"label": "uint256",
						"numberOfBytes": "32"
					}
				}
			},
			"userdoc": {
				"kind": "user",
				"methods": {},
				"version": 1
			}
		}
	}
}